{
	"SecurePoll.sol": {
		"SecurePoll": {
			"abi": [
				{
					"anonymous": false,
					"inputs": [
						{
							"indexed": false,
							"internalType": "uint256",
							"name": "pollId",
							"type": "uint256"
						},
						{
							"indexed": false,
							"internalType": "string",
							"name": "question",
							"type": "string"
						},
						{
							"indexed": false,
							"internalType": "address",
							"name": "creator",
							"type": "address"
						}
					],
					"name": "PollCreated",
					"type": "event"
				},
				{
					"anonymous": false,
					"inputs": [
						{
							"indexed": false,
							"internalType": "uint256",
							"name": "pollId",
							"type": "uint256"
						}
					],
					"name": "PollEnded",
					"type": "event"
				},
				{
					"anonymous": false,
					"inputs": [
						{
							"indexed": false,
							"internalType": "uint256",
							"name": "pollId",
							"type": "uint256"
						},
						{
							"indexed": false,
							"internalType": "address",
							"name": "voter",
							"type": "address"
						},
						{
							"indexed": false,
							"internalType": "uint256",
							"name": "option",
							"type": "uint256"
						}
					],
					"name": "VoteCast",
					"type": "event"
				},
				{
					"inputs": [
						{
							"internalType": "string",
							"name": "_question",
							"type": "string"
						},
						{
							"internalType": "string[]",
							"name": "_options",
							"type": "string[]"
						},
						{
							"internalType": "uint256",
							"name": "_duration",
							"type": "uint256"
						}
					],
					"name": "createPoll",
					"outputs": [
						{
							"internalType": "uint256",
							"name": "",
							"type": "uint256"
						}
					],
					"stateMutability": "nonpayable",
					"type": "function"
				},
				{
					"inputs": [
						{
							"internalType": "uint256",
							"name": "_pollId",
							"type": "uint256"
						}
					],
					"name": "endPoll",
					"outputs": [],
					"stateMutability": "nonpayable",
					"type": "function"
				},
				{
					"inputs": [
						{
							"internalType": "uint256",
							"name": "_pollId",
							"type": "uint256"
						}
					],
					"name": "getPollInfo",
					"outputs": [
						{
							"internalType": "string",
							"name": "question",
							"type": "string"
						},
						{
							"internalType": "string[]",
							"name": "options",
							"type": "string[]"
						},
						{
							"internalType": "address",
							"name": "creator",
							"type": "address"
						},
						{
							"internalType": "uint256",
							"name": "startTime",
							"type": "uint256"
						},
						{
							"internalType": "uint256",
							"name": "endTime",
							"type": "uint256"
						},
						{
							"internalType": "bool",
							"name": "isActive",
							"type": "bool"
						}
					],
					"stateMutability": "view",
					"type": "function"
				},
				{
					"inputs": [
						{
							"internalType": "uint256",
							"name": "_pollId",
							"type": "uint256"
						}
					],
					"name": "getPollResults",
					"outputs": [
						{
							"internalType": "uint256[]",
							"name": "",
							"type": "uint256[]"
						}
					],
					"stateMutability": "view",
					"type": "function"
				},
				{
					"inputs": [
						{
							"internalType": "uint256",
							"name": "_pollId",
							"type": "uint256"
						},
						{
							"internalType": "address",
							"name": "_voter",
							"type": "address"
						}
					],
					"name": "hasVoted",
					"outputs": [
						{
							"internalType": "bool",
							"name": "",
							"type": "bool"
						}
					],
					"stateMutability": "view",
					"type": "function"
				},
				{
					"inputs": [],
					"name": "pollCount",
					"outputs": [
						{
							"internalType": "uint256",
							"name": "",
							"type": "uint256"
						}
					],
					"stateMutability": "view",
					"type": "function"
				},
				{
					"inputs": [],
					"name": "pollId",
					"outputs": [
						{
							"internalType": "uint256",
							"name": "",
							"type": "uint256"
						}
					],
					"stateMutability": "view",
					"type": "function"
				},
				{
					"inputs": [
						{
							"internalType": "uint256",
							"name": "",
							"type": "uint256"
						}
					],
					"name": "polls",
					"outputs": [
						{
							"internalType": "uint256",
							"name": "id",
							"type": "uint256"
						},
						{
							"internalType": "string",
							"name": "question",
							"type": "string"
						},
						{
							"internalType": "address",
							"name": "creator",
							"type": "address"
						},
						{
							"internalType": "uint256",
							"name": "startTime",
							"type": "uint256"
						},
						{
							"internalType": "uint256",
							"name": "endTime",
							"type": "uint256"
						},
						{
							"internalType": "bool",
							"name": "isActive",
							"type": "bool"
						}
					],
					"stateMutability": "view",
					"type": "function"
				},
				{
					"inputs": [],
					"name": "viewID",
					"outputs": [
						{
							"internalType": "uint256",
							"name": "",
							"type": "uint256"
						}
					],
					"stateMutability": "view",
					"type": "function"
				},
				{
					"inputs": [
						{
							"internalType": "uint256",
							"name": "_pollId",
							"type": "uint256"
						},
						{
							"internalType": "uint256",
							"name": "_optionIndex",
							"type": "uint256"
						}
					],
					"name": "vote",
					"outputs": [],
					"stateMutability": "nonpayable",
					"type": "function"
				}
			],
			"devdoc": {
				"kind": "dev",
				"methods": {},
				"version": 1
			},
			"evm": {
				"assembly": "    /* \"SecurePoll.sol\":58:3957  contract SecurePoll {... */\n  mstore(0x40, 0x80)\n  callvalue\n  dup1\n  iszero\n  tag_1\n  jumpi\n  revert(0x00, 0x00)\ntag_1:\n  pop\n  dataSize(sub_0)\n  dup1\n  dataOffset(sub_0)\n  0x00\n  codecopy\n  0x00\n  return\nstop\n\nsub_0: assembly {\n        /* \"SecurePoll.sol\":58:3957  contract SecurePoll {... */\n      mstore(0x40, 0x80)\n      callvalue\n      dup1\n      iszero\n      tag_1\n      jumpi\n      revert(0x00, 0x00)\n    tag_1:\n      pop\n      jumpi(tag_2, lt(calldatasize, 0x04))\n      shr(0xe0, calldataload(0x00))\n      dup1\n      0x9207891d\n      gt\n      tag_13\n      jumpi\n      dup1\n      0x9207891d\n      eq\n      tag_8\n      jumpi\n      dup1\n      0xac2f0074\n      eq\n      tag_9\n      jumpi\n      dup1\n      0xb384abef\n      eq\n      tag_10\n      jumpi\n      dup1\n      0xf43b8778\n      eq\n      tag_11\n      jumpi\n      dup1\n      0xf8c860f4\n      eq\n      tag_12\n      jumpi\n      jump(tag_2)\n    tag_13:\n      dup1\n      0x29b8f44a\n      eq\n      tag_3\n      jumpi\n      dup1\n      0x33b4097b\n      eq\n      tag_4\n      jumpi\n      dup1\n      0x43859632\n      eq\n      tag_5\n      jumpi\n      dup1\n      0x6f13ab00\n      eq\n      tag_6\n      jumpi\n      dup1\n      0x8280264b\n      eq\n      tag_7\n      jumpi\n    tag_2:\n      revert(0x00, 0x00)\n        /* \"SecurePoll.sol\":3299:3789  function getPollInfo(uint256 _pollId) external view pollExists(_pollId) returns (... */\n    tag_3:\n      tag_14\n      0x04\n      dup1\n      calldatasize\n      sub\n      dup2\n      add\n      swap1\n      tag_15\n      swap2\n      swap1\n      tag_16\n      jump\t// in\n    tag_15:\n      tag_17\n      jump\t// in\n    tag_14:\n      mload(0x40)\n      tag_18\n      swap7\n      swap6\n      swap5\n      swap4\n      swap3\n      swap2\n      swap1\n      tag_19\n      jump\t// in\n    tag_18:\n      mload(0x40)\n      dup1\n      swap2\n      sub\n      swap1\n      return\n        /* \"SecurePoll.sol\":2637:3013  function getPollResults(uint256 _pollId) external view pollExists(_pollId) returns (uint256[] memory) {... */\n    tag_4:\n      tag_20\n      0x04\n      dup1\n      calldatasize\n      sub\n      dup2\n      add\n      swap1\n      tag_21\n      swap2\n      swap1\n      tag_16\n      jump\t// in\n    tag_21:\n      tag_22\n      jump\t// in\n    tag_20:\n      mload(0x40)\n      tag_23\n      swap2\n      swap1\n      tag_24\n      jump\t// in\n    tag_23:\n      mload(0x40)\n      dup1\n      swap2\n      sub\n      swap1\n      return\n        /* \"SecurePoll.sol\":3795:3950  function hasVoted(uint256 _pollId, address _voter) external view pollExists(_pollId) returns (bool) {... */\n    tag_5:\n      tag_25\n      0x04\n      dup1\n      calldatasize\n      sub\n      dup2\n      add\n      swap1\n      tag_26\n      swap2\n      swap1\n      tag_27\n      jump\t// in\n    tag_26:\n      tag_28\n      jump\t// in\n    tag_25:\n      mload(0x40)\n      tag_29\n      swap2\n      swap1\n      tag_30\n      jump\t// in\n    tag_29:\n      mload(0x40)\n      dup1\n      swap2\n      sub\n      swap1\n      return\n        /* \"SecurePoll.sol\":399:420  uint256 public pollId */\n    tag_6:\n      tag_31\n      tag_32\n      jump\t// in\n    tag_31:\n      mload(0x40)\n      tag_33\n      swap2\n      swap1\n      tag_34\n      jump\t// in\n    tag_33:\n      mload(0x40)\n      dup1\n      swap2\n      sub\n      swap1\n      return\n        /* \"SecurePoll.sol\":1912:1986  function viewID() public view returns(uint){... */\n    tag_7:\n      tag_35\n      tag_36\n      jump\t// in\n    tag_35:\n      mload(0x40)\n      tag_37\n      swap2\n      swap1\n      tag_34\n      jump\t// in\n    tag_37:\n      mload(0x40)\n      dup1\n      swap2\n      sub\n      swap1\n      return\n        /* \"SecurePoll.sol\":426:450  uint256 public pollCount */\n    tag_8:\n      tag_38\n      tag_39\n      jump\t// in\n    tag_38:\n      mload(0x40)\n      tag_40\n      swap2\n      swap1\n      tag_34\n      jump\t// in\n    tag_40:\n      mload(0x40)\n      dup1\n      swap2\n      sub\n      swap1\n      return\n        /* \"SecurePoll.sol\":456:493  mapping(uint256 => Poll) public polls */\n    tag_9:\n      tag_41\n      0x04\n      dup1\n      calldatasize\n      sub\n      dup2\n      add\n      swap1\n      tag_42\n      swap2\n      swap1\n      tag_16\n      jump\t// in\n    tag_42:\n      tag_43\n      jump\t// in\n    tag_41:\n      mload(0x40)\n      tag_44\n      swap7\n      swap6\n      swap5\n      swap4\n      swap3\n      swap2\n      swap1\n      tag_45\n      jump\t// in\n    tag_44:\n      mload(0x40)\n      dup1\n      swap2\n      sub\n      swap1\n      return\n        /* \"SecurePoll.sol\":1996:2627  function vote(uint256 _pollId, uint256 _optionIndex) external pollExists(_pollId) {... */\n    tag_10:\n      tag_46\n      0x04\n      dup1\n      calldatasize\n      sub\n      dup2\n      add\n      swap1\n      tag_47\n      swap2\n      swap1\n      tag_48\n      jump\t// in\n    tag_47:\n      tag_49\n      jump\t// in\n    tag_46:\n      stop\n        /* \"SecurePoll.sol\":3023:3289  function endPoll(uint256 _pollId) external onlyPollCreator(_pollId) pollExists(_pollId) {... */\n    tag_11:\n      tag_50\n      0x04\n      dup1\n      calldatasize\n      sub\n      dup2\n      add\n      swap1\n      tag_51\n      swap2\n      swap1\n      tag_16\n      jump\t// in\n    tag_51:\n      tag_52\n      jump\t// in\n    tag_50:\n      stop\n        /* \"SecurePoll.sol\":998:1906  function createPoll(... */\n    tag_12:\n      tag_53\n      0x04\n      dup1\n      calldatasize\n      sub\n      dup2\n      add\n      swap1\n      tag_54\n      swap2\n      swap1\n      tag_55\n      jump\t// in\n    tag_54:\n      tag_56\n      jump\t// in\n    tag_53:\n      mload(0x40)\n      tag_57\n      swap2\n      swap1\n      tag_34\n      jump\t// in\n    tag_57:\n      mload(0x40)\n      dup1\n      swap2\n      sub\n      swap1\n      return\n        /* \"SecurePoll.sol\":3299:3789  function getPollInfo(uint256 _pollId) external view pollExists(_pollId) returns (... */\n    tag_17:\n        /* \"SecurePoll.sol\":3389:3411  string memory question */\n      0x60\n        /* \"SecurePoll.sol\":3421:3444  string[] memory options */\n      dup1\n        /* \"SecurePoll.sol\":3454:3469  address creator */\n      0x00\n        /* \"SecurePoll.sol\":3479:3496  uint256 startTime */\n      0x00\n        /* \"SecurePoll.sol\":3506:3521  uint256 endTime */\n      0x00\n        /* \"SecurePoll.sol\":3531:3544  bool isActive */\n      0x00\n        /* \"SecurePoll.sol\":3362:3369  _pollId */\n      dup7\n        /* \"SecurePoll.sol\":921:930  pollCount */\n      sload(0x01)\n        /* \"SecurePoll.sol\":911:918  _pollId */\n      dup2\n        /* \"SecurePoll.sol\":911:930  _pollId < pollCount */\n      lt\n        /* \"SecurePoll.sol\":911:946  _pollId < pollCount && _pollId >= 0 */\n      dup1\n      iszero\n      tag_59\n      jumpi\n      pop\n        /* \"SecurePoll.sol\":945:946  0 */\n      0x00\n        /* \"SecurePoll.sol\":934:941  _pollId */\n      dup2\n        /* \"SecurePoll.sol\":934:946  _pollId >= 0 */\n      lt\n      iszero\n        /* \"SecurePoll.sol\":911:946  _pollId < pollCount && _pollId >= 0 */\n    tag_59:\n        /* \"SecurePoll.sol\":903:970  require(_pollId < pollCount && _pollId >= 0, \"Poll does not exist\") */\n      tag_60\n      jumpi\n      mload(0x40)\n      0x08c379a000000000000000000000000000000000000000000000000000000000\n      dup2\n      mstore\n      0x04\n      add\n      tag_61\n      swap1\n      tag_62\n      jump\t// in\n    tag_61:\n      mload(0x40)\n      dup1\n      swap2\n      sub\n      swap1\n      revert\n    tag_60:\n        /* \"SecurePoll.sol\":3561:3578  Poll storage poll */\n      0x00\n        /* \"SecurePoll.sol\":3581:3586  polls */\n      0x02\n        /* \"SecurePoll.sol\":3581:3595  polls[_pollId] */\n      0x00\n        /* \"SecurePoll.sol\":3587:3594  _pollId */\n      dup11\n        /* \"SecurePoll.sol\":3581:3595  polls[_pollId] */\n      dup2\n      mstore\n      0x20\n      add\n      swap1\n      dup2\n      mstore\n      0x20\n      add\n      0x00\n      keccak256\n        /* \"SecurePoll.sol\":3561:3595  Poll storage poll = polls[_pollId] */\n      swap1\n      pop\n        /* \"SecurePoll.sol\":3626:3630  poll */\n      dup1\n        /* \"SecurePoll.sol\":3626:3639  poll.question */\n      0x01\n      add\n        /* \"SecurePoll.sol\":3653:3657  poll */\n      dup2\n        /* \"SecurePoll.sol\":3653:3665  poll.options */\n      0x02\n      add\n        /* \"SecurePoll.sol\":3679:3683  poll */\n      dup3\n        /* \"SecurePoll.sol\":3679:3691  poll.creator */\n      0x05\n      add\n      0x00\n      swap1\n      sload\n      swap1\n      0x0100\n      exp\n      swap1\n      div\n      0xffffffffffffffffffffffffffffffffffffffff\n      and\n        /* \"SecurePoll.sol\":3705:3709  poll */\n      dup4\n        /* \"SecurePoll.sol\":3705:3719  poll.startTime */\n      0x06\n      add\n      sload\n        /* \"SecurePoll.sol\":3733:3737  poll */\n      dup5\n        /* \"SecurePoll.sol\":3733:3745  poll.endTime */\n      0x07\n      add\n      sload\n        /* \"SecurePoll.sol\":3759:3763  poll */\n      dup6\n        /* \"SecurePoll.sol\":3759:3772  poll.isActive */\n      0x08\n      add\n      0x00\n      swap1\n      sload\n      swap1\n      0x0100\n      exp\n      swap1\n      div\n      0xff\n      and\n        /* \"SecurePoll.sol\":3605:3782  return (... */\n      dup6\n      dup1\n      sload\n      tag_64\n      swap1\n      tag_65\n      jump\t// in\n    tag_64:\n      dup1\n      0x1f\n      add\n      0x20\n      dup1\n      swap2\n      div\n      mul\n      0x20\n      add\n      mload(0x40)\n      swap1\n      dup2\n      add\n      0x40\n      mstore\n      dup1\n      swap3\n      swap2\n      swap1\n      dup2\n      dup2\n      mstore\n      0x20\n      add\n      dup3\n      dup1\n      sload\n      tag_66\n      swap1\n      tag_65\n      jump\t// in\n    tag_66:\n      dup1\n      iszero\n      tag_67\n      jumpi\n      dup1\n      0x1f\n      lt\n      tag_68\n      jumpi\n      0x0100\n      dup1\n      dup4\n      sload\n      div\n      mul\n      dup4\n      mstore\n      swap2\n      0x20\n      add\n      swap2\n      jump(tag_67)\n    tag_68:\n      dup3\n      add\n      swap2\n      swap1\n      0x00\n      mstore\n      keccak256(0x00, 0x20)\n      swap1\n    tag_69:\n      dup2\n      sload\n      dup2\n      mstore\n      swap1\n      0x01\n      add\n      swap1\n      0x20\n      add\n      dup1\n      dup4\n      gt\n      tag_69\n      jumpi\n      dup3\n      swap1\n      sub\n      0x1f\n      and\n      dup3\n      add\n      swap2\n    tag_67:\n      pop\n      pop\n      pop\n      pop\n      pop\n      swap6\n      pop\n      dup5\n      dup1\n      sload\n      dup1\n      0x20\n      mul\n      0x20\n      add\n      mload(0x40)\n      swap1\n      dup2\n      add\n      0x40\n      mstore\n      dup1\n      swap3\n      swap2\n      swap1\n      dup2\n      dup2\n      mstore\n      0x20\n      add\n      0x00\n      swap1\n    tag_70:\n      dup3\n      dup3\n      lt\n      iszero\n      tag_71\n      jumpi\n      dup4\n      dup3\n      swap1\n      0x00\n      mstore\n      keccak256(0x00, 0x20)\n      add\n      dup1\n      sload\n      tag_73\n      swap1\n      tag_65\n      jump\t// in\n    tag_73:\n      dup1\n      0x1f\n      add\n      0x20\n      dup1\n      swap2\n      div\n      mul\n      0x20\n      add\n      mload(0x40)\n      swap1\n      dup2\n      add\n      0x40\n      mstore\n      dup1\n      swap3\n      swap2\n      swap1\n      dup2\n      dup2\n      mstore\n      0x20\n      add\n      dup3\n      dup1\n      sload\n      tag_74\n      swap1\n      tag_65\n      jump\t// in\n    tag_74:\n      dup1\n      iszero\n      tag_75\n      jumpi\n      dup1\n      0x1f\n      lt\n      tag_76\n      jumpi\n      0x0100\n      dup1\n      dup4\n      sload\n      div\n      mul\n      dup4\n      mstore\n      swap2\n      0x20\n      add\n      swap2\n      jump(tag_75)\n    tag_76:\n      dup3\n      add\n      swap2\n      swap1\n      0x00\n      mstore\n      keccak256(0x00, 0x20)\n      swap1\n    tag_77:\n      dup2\n      sload\n      dup2\n      mstore\n      swap1\n      0x01\n      add\n      swap1\n      0x20\n      add\n      dup1\n      dup4\n      gt\n      tag_77\n      jumpi\n      dup3\n      swap1\n      sub\n      0x1f\n      and\n      dup3\n      add\n      swap2\n    tag_75:\n      pop\n      pop\n      pop\n      pop\n      pop\n      dup2\n      mstore\n      0x20\n      add\n      swap1\n      0x01\n      add\n      swap1\n      jump(tag_70)\n    tag_71:\n      pop\n      pop\n      pop\n      pop\n      swap5\n      pop\n      swap8\n      pop\n      swap8\n      pop\n      swap8\n      pop\n      swap8\n      pop\n      swap8\n      pop\n      swap8\n      pop\n      pop\n        /* \"SecurePoll.sol\":3299:3789  function getPollInfo(uint256 _pollId) external view pollExists(_pollId) returns (... */\n      pop\n      swap2\n      swap4\n      swap6\n      pop\n      swap2\n      swap4\n      swap6\n      jump\t// out\n        /* \"SecurePoll.sol\":2637:3013  function getPollResults(uint256 _pollId) external view pollExists(_pollId) returns (uint256[] memory) {... */\n    tag_22:\n        /* \"SecurePoll.sol\":2721:2737  uint256[] memory */\n      0x60\n        /* \"SecurePoll.sol\":2703:2710  _pollId */\n      dup2\n        /* \"SecurePoll.sol\":921:930  pollCount */\n      sload(0x01)\n        /* \"SecurePoll.sol\":911:918  _pollId */\n      dup2\n        /* \"SecurePoll.sol\":911:930  _pollId < pollCount */\n      lt\n        /* \"SecurePoll.sol\":911:946  _pollId < pollCount && _pollId >= 0 */\n      dup1\n      iszero\n      tag_79\n      jumpi\n      pop\n        /* \"SecurePoll.sol\":945:946  0 */\n      0x00\n        /* \"SecurePoll.sol\":934:941  _pollId */\n      dup2\n        /* \"SecurePoll.sol\":934:946  _pollId >= 0 */\n      lt\n      iszero\n        /* \"SecurePoll.sol\":911:946  _pollId < pollCount && _pollId >= 0 */\n    tag_79:\n        /* \"SecurePoll.sol\":903:970  require(_pollId < pollCount && _pollId >= 0, \"Poll does not exist\") */\n      tag_80\n      jumpi\n      mload(0x40)\n      0x08c379a000000000000000000000000000000000000000000000000000000000\n      dup2\n      mstore\n      0x04\n      add\n      tag_81\n      swap1\n      tag_62\n      jump\t// in\n    tag_81:\n      mload(0x40)\n      dup1\n      swap2\n      sub\n      swap1\n      revert\n    tag_80:\n        /* \"SecurePoll.sol\":2749:2766  Poll storage poll */\n      0x00\n        /* \"SecurePoll.sol\":2769:2774  polls */\n      0x02\n        /* \"SecurePoll.sol\":2769:2783  polls[_pollId] */\n      0x00\n        /* \"SecurePoll.sol\":2775:2782  _pollId */\n      dup6\n        /* \"SecurePoll.sol\":2769:2783  polls[_pollId] */\n      dup2\n      mstore\n      0x20\n      add\n      swap1\n      dup2\n      mstore\n      0x20\n      add\n      0x00\n      keccak256\n        /* \"SecurePoll.sol\":2749:2783  Poll storage poll = polls[_pollId] */\n      swap1\n      pop\n        /* \"SecurePoll.sol\":2793:2817  uint256[] memory results */\n      0x00\n        /* \"SecurePoll.sol\":2834:2838  poll */\n      dup2\n        /* \"SecurePoll.sol\":2834:2846  poll.options */\n      0x02\n      add\n        /* \"SecurePoll.sol\":2834:2853  poll.options.length */\n      dup1\n      sload\n      swap1\n      pop\n        /* \"SecurePoll.sol\":2820:2854  new uint256[](poll.options.length) */\n      0xffffffffffffffff\n      dup2\n      gt\n      iszero\n      tag_83\n      jumpi\n      tag_84\n      tag_85\n      jump\t// in\n    tag_84:\n    tag_83:\n      mload(0x40)\n      swap1\n      dup1\n      dup3\n      mstore\n      dup1\n      0x20\n      mul\n      0x20\n      add\n      dup3\n      add\n      0x40\n      mstore\n      dup1\n      iszero\n      tag_86\n      jumpi\n      dup2\n      0x20\n      add\n      0x20\n      dup3\n      mul\n      dup1\n      calldatasize\n      dup4\n      calldatacopy\n      dup1\n      dup3\n      add\n      swap2\n      pop\n      pop\n      swap1\n      pop\n    tag_86:\n      pop\n        /* \"SecurePoll.sol\":2793:2854  uint256[] memory results = new uint256[](poll.options.length) */\n      swap1\n      pop\n        /* \"SecurePoll.sol\":2878:2887  uint256 i */\n      0x00\n        /* \"SecurePoll.sol\":2890:2891  0 */\n      0x00\n        /* \"SecurePoll.sol\":2878:2891  uint256 i = 0 */\n      swap1\n      pop\n        /* \"SecurePoll.sol\":2873:2974  for (uint256 i = 0; i < poll.options.length; i++) {... */\n    tag_87:\n        /* \"SecurePoll.sol\":2897:2901  poll */\n      dup3\n        /* \"SecurePoll.sol\":2897:2909  poll.options */\n      0x02\n      add\n        /* \"SecurePoll.sol\":2897:2916  poll.options.length */\n      dup1\n      sload\n      swap1\n      pop\n        /* \"SecurePoll.sol\":2893:2894  i */\n      dup2\n        /* \"SecurePoll.sol\":2893:2916  i < poll.options.length */\n      lt\n        /* \"SecurePoll.sol\":2873:2974  for (uint256 i = 0; i < poll.options.length; i++) {... */\n      iszero\n      tag_88\n      jumpi\n        /* \"SecurePoll.sol\":2950:2954  poll */\n      dup3\n        /* \"SecurePoll.sol\":2950:2960  poll.votes */\n      0x03\n      add\n        /* \"SecurePoll.sol\":2950:2963  poll.votes[i] */\n      0x00\n        /* \"SecurePoll.sol\":2961:2962  i */\n      dup3\n        /* \"SecurePoll.sol\":2950:2963  poll.votes[i] */\n      dup2\n      mstore\n      0x20\n      add\n      swap1\n      dup2\n      mstore\n      0x20\n      add\n      0x00\n      keccak256\n      sload\n        /* \"SecurePoll.sol\":2937:2944  results */\n      dup3\n        /* \"SecurePoll.sol\":2945:2946  i */\n      dup3\n        /* \"SecurePoll.sol\":2937:2947  results[i] */\n      dup2\n      mload\n      dup2\n      lt\n      tag_90\n      jumpi\n      tag_91\n      tag_92\n      jump\t// in\n    tag_91:\n    tag_90:\n      0x20\n      mul\n      0x20\n      add\n      add\n        /* \"SecurePoll.sol\":2937:2963  results[i] = poll.votes[i] */\n      dup2\n      dup2\n      mstore\n      pop\n      pop\n        /* \"SecurePoll.sol\":2918:2921  i++ */\n      dup1\n      dup1\n      0x01\n      add\n      swap2\n      pop\n      pop\n        /* \"SecurePoll.sol\":2873:2974  for (uint256 i = 0; i < poll.options.length; i++) {... */\n      jump(tag_87)\n    tag_88:\n      pop\n        /* \"SecurePoll.sol\":2999:3006  results */\n      dup1\n        /* \"SecurePoll.sol\":2992:3006  return results */\n      swap4\n      pop\n      pop\n      pop\n        /* \"SecurePoll.sol\":2637:3013  function getPollResults(uint256 _pollId) external view pollExists(_pollId) returns (uint256[] memory) {... */\n      pop\n      swap2\n      swap1\n      pop\n      jump\t// out\n        /* \"SecurePoll.sol\":3795:3950  function hasVoted(uint256 _pollId, address _voter) external view pollExists(_pollId) returns (bool) {... */\n    tag_28:\n        /* \"SecurePoll.sol\":3889:3893  bool */\n      0x00\n        /* \"SecurePoll.sol\":3871:3878  _pollId */\n      dup3\n        /* \"SecurePoll.sol\":921:930  pollCount */\n      sload(0x01)\n        /* \"SecurePoll.sol\":911:918  _pollId */\n      dup2\n        /* \"SecurePoll.sol\":911:930  _pollId < pollCount */\n      lt\n        /* \"SecurePoll.sol\":911:946  _pollId < pollCount && _pollId >= 0 */\n      dup1\n      iszero\n      tag_94\n      jumpi\n      pop\n        /* \"SecurePoll.sol\":945:946  0 */\n      0x00\n        /* \"SecurePoll.sol\":934:941  _pollId */\n      dup2\n        /* \"SecurePoll.sol\":934:946  _pollId >= 0 */\n      lt\n      iszero\n        /* \"SecurePoll.sol\":911:946  _pollId < pollCount && _pollId >= 0 */\n    tag_94:\n        /* \"SecurePoll.sol\":903:970  require(_pollId < pollCount && _pollId >= 0, \"Poll does not exist\") */\n      tag_95\n      jumpi\n      mload(0x40)\n      0x08c379a000000000000000000000000000000000000000000000000000000000\n      dup2\n      mstore\n      0x04\n      add\n      tag_96\n      swap1\n      tag_62\n      jump\t// in\n    tag_96:\n      mload(0x40)\n      dup1\n      swap2\n      sub\n      swap1\n      revert\n    tag_95:\n        /* \"SecurePoll.sol\":3912:3917  polls */\n      0x02\n        /* \"SecurePoll.sol\":3912:3926  polls[_pollId] */\n      0x00\n        /* \"SecurePoll.sol\":3918:3925  _pollId */\n      dup6\n        /* \"SecurePoll.sol\":3912:3926  polls[_pollId] */\n      dup2\n      mstore\n      0x20\n      add\n      swap1\n      dup2\n      mstore\n      0x20\n      add\n      0x00\n      keccak256\n        /* \"SecurePoll.sol\":3912:3935  polls[_pollId].hasVoted */\n      0x04\n      add\n        /* \"SecurePoll.sol\":3912:3943  polls[_pollId].hasVoted[_voter] */\n      0x00\n        /* \"SecurePoll.sol\":3936:3942  _voter */\n      dup5\n        /* \"SecurePoll.sol\":3912:3943  polls[_pollId].hasVoted[_voter] */\n      0xffffffffffffffffffffffffffffffffffffffff\n      and\n      0xffffffffffffffffffffffffffffffffffffffff\n      and\n      dup2\n      mstore\n      0x20\n      add\n      swap1\n      dup2\n      mstore\n      0x20\n      add\n      0x00\n      keccak256\n      0x00\n      swap1\n      sload\n      swap1\n      0x0100\n      exp\n      swap1\n      div\n      0xff\n      and\n        /* \"SecurePoll.sol\":3905:3943  return polls[_pollId].hasVoted[_voter] */\n      swap2\n      pop\n        /* \"SecurePoll.sol\":3795:3950  function hasVoted(uint256 _pollId, address _voter) external view pollExists(_pollId) returns (bool) {... */\n      pop\n      swap3\n      swap2\n      pop\n      pop\n      jump\t// out\n        /* \"SecurePoll.sol\":399:420  uint256 public pollId */\n    tag_32:\n      sload(0x00)\n      dup2\n      jump\t// out\n        /* \"SecurePoll.sol\":1912:1986  function viewID() public view returns(uint){... */\n    tag_36:\n        /* \"SecurePoll.sol\":1950:1954  uint */\n      0x00\n        /* \"SecurePoll.sol\":1972:1978  pollId */\n      sload(0x00)\n        /* \"SecurePoll.sol\":1965:1979  return(pollId) */\n      swap1\n      pop\n        /* \"SecurePoll.sol\":1912:1986  function viewID() public view returns(uint){... */\n      swap1\n      jump\t// out\n        /* \"SecurePoll.sol\":426:450  uint256 public pollCount */\n    tag_39:\n      sload(0x01)\n      dup2\n      jump\t// out\n        /* \"SecurePoll.sol\":456:493  mapping(uint256 => Poll) public polls */\n    tag_43:\n      mstore(0x20, 0x02)\n      dup1\n      0x00\n      mstore\n      keccak256(0x00, 0x40)\n      0x00\n      swap2\n      pop\n      swap1\n      pop\n      dup1\n      0x00\n      add\n      sload\n      swap1\n      dup1\n      0x01\n      add\n      dup1\n      sload\n      tag_99\n      swap1\n      tag_65\n      jump\t// in\n    tag_99:\n      dup1\n      0x1f\n      add\n      0x20\n      dup1\n      swap2\n      div\n      mul\n      0x20\n      add\n      mload(0x40)\n      swap1\n      dup2\n      add\n      0x40\n      mstore\n      dup1\n      swap3\n      swap2\n      swap1\n      dup2\n      dup2\n      mstore\n      0x20\n      add\n      dup3\n      dup1\n      sload\n      tag_100\n      swap1\n      tag_65\n      jump\t// in\n    tag_100:\n      dup1\n      iszero\n      tag_101\n      jumpi\n      dup1\n      0x1f\n      lt\n      tag_102\n      jumpi\n      0x0100\n      dup1\n      dup4\n      sload\n      div\n      mul\n      dup4\n      mstore\n      swap2\n      0x20\n      add\n      swap2\n      jump(tag_101)\n    tag_102:\n      dup3\n      add\n      swap2\n      swap1\n      0x00\n      mstore\n      keccak256(0x00, 0x20)\n      swap1\n    tag_103:\n      dup2\n      sload\n      dup2\n      mstore\n      swap1\n      0x01\n      add\n      swap1\n      0x20\n      add\n      dup1\n      dup4\n      gt\n      tag_103\n      jumpi\n      dup3\n      swap1\n      sub\n      0x1f\n      and\n      dup3\n      add\n      swap2\n    tag_101:\n      pop\n      pop\n      pop\n      pop\n      pop\n      swap1\n      dup1\n      0x05\n      add\n      0x00\n      swap1\n      sload\n      swap1\n      0x0100\n      exp\n      swap1\n      div\n      0xffffffffffffffffffffffffffffffffffffffff\n      and\n      swap1\n      dup1\n      0x06\n      add\n      sload\n      swap1\n      dup1\n      0x07\n      add\n      sload\n      swap1\n      dup1\n      0x08\n      add\n      0x00\n      swap1\n      sload\n      swap1\n      0x0100\n      exp\n      swap1\n      div\n      0xff\n      and\n      swap1\n      pop\n      dup7\n      jump\t// out\n        /* \"SecurePoll.sol\":1996:2627  function vote(uint256 _pollId, uint256 _optionIndex) external pollExists(_pollId) {... */\n    tag_49:\n        /* \"SecurePoll.sol\":2069:2076  _pollId */\n      dup2\n        /* \"SecurePoll.sol\":921:930  pollCount */\n      sload(0x01)\n        /* \"SecurePoll.sol\":911:918  _pollId */\n      dup2\n        /* \"SecurePoll.sol\":911:930  _pollId < pollCount */\n      lt\n        /* \"SecurePoll.sol\":911:946  _pollId < pollCount && _pollId >= 0 */\n      dup1\n      iszero\n      tag_105\n      jumpi\n      pop\n        /* \"SecurePoll.sol\":945:946  0 */\n      0x00\n        /* \"SecurePoll.sol\":934:941  _pollId */\n      dup2\n        /* \"SecurePoll.sol\":934:946  _pollId >= 0 */\n      lt\n      iszero\n        /* \"SecurePoll.sol\":911:946  _pollId < pollCount && _pollId >= 0 */\n    tag_105:\n        /* \"SecurePoll.sol\":903:970  require(_pollId < pollCount && _pollId >= 0, \"Poll does not exist\") */\n      tag_106\n      jumpi\n      mload(0x40)\n      0x08c379a000000000000000000000000000000000000000000000000000000000\n      dup2\n      mstore\n      0x04\n      add\n      tag_107\n      swap1\n      tag_62\n      jump\t// in\n    tag_107:\n      mload(0x40)\n      dup1\n      swap2\n      sub\n      swap1\n      revert\n    tag_106:\n        /* \"SecurePoll.sol\":2088:2105  Poll storage poll */\n      0x00\n        /* \"SecurePoll.sol\":2108:2113  polls */\n      0x02\n        /* \"SecurePoll.sol\":2108:2122  polls[_pollId] */\n      0x00\n        /* \"SecurePoll.sol\":2114:2121  _pollId */\n      dup6\n        /* \"SecurePoll.sol\":2108:2122  polls[_pollId] */\n      dup2\n      mstore\n      0x20\n      add\n      swap1\n      dup2\n      mstore\n      0x20\n      add\n      0x00\n      keccak256\n        /* \"SecurePoll.sol\":2088:2122  Poll storage poll = polls[_pollId] */\n      swap1\n      pop\n        /* \"SecurePoll.sol\":2149:2153  poll */\n      dup1\n        /* \"SecurePoll.sol\":2149:2162  poll.isActive */\n      0x08\n      add\n      0x00\n      swap1\n      sload\n      swap1\n      0x0100\n      exp\n      swap1\n      div\n      0xff\n      and\n        /* \"SecurePoll.sol\":2141:2185  require(poll.isActive, \"Poll is not active\") */\n      tag_109\n      jumpi\n      mload(0x40)\n      0x08c379a000000000000000000000000000000000000000000000000000000000\n      dup2\n      mstore\n      0x04\n      add\n      tag_110\n      swap1\n      tag_111\n      jump\t// in\n    tag_110:\n      mload(0x40)\n      dup1\n      swap2\n      sub\n      swap1\n      revert\n    tag_109:\n        /* \"SecurePoll.sol\":2222:2226  poll */\n      dup1\n        /* \"SecurePoll.sol\":2222:2236  poll.startTime */\n      0x06\n      add\n      sload\n        /* \"SecurePoll.sol\":2203:2218  block.timestamp */\n      timestamp\n        /* \"SecurePoll.sol\":2203:2236  block.timestamp >= poll.startTime */\n      lt\n      iszero\n        /* \"SecurePoll.sol\":2195:2265  require(block.timestamp >= poll.startTime, \"Poll has not started yet\") */\n      tag_112\n      jumpi\n      mload(0x40)\n      0x08c379a000000000000000000000000000000000000000000000000000000000\n      dup2\n      mstore\n      0x04\n      add\n      tag_113\n      swap1\n      tag_114\n      jump\t// in\n    tag_113:\n      mload(0x40)\n      dup1\n      swap2\n      sub\n      swap1\n      revert\n    tag_112:\n        /* \"SecurePoll.sol\":2302:2306  poll */\n      dup1\n        /* \"SecurePoll.sol\":2302:2314  poll.endTime */\n      0x07\n      add\n      sload\n        /* \"SecurePoll.sol\":2283:2298  block.timestamp */\n      timestamp\n        /* \"SecurePoll.sol\":2283:2314  block.timestamp <= poll.endTime */\n      gt\n      iszero\n        /* \"SecurePoll.sol\":2275:2333  require(block.timestamp <= poll.endTime, \"Poll has ended\") */\n      tag_115\n      jumpi\n      mload(0x40)\n      0x08c379a000000000000000000000000000000000000000000000000000000000\n      dup2\n      mstore\n      0x04\n      add\n      tag_116\n      swap1\n      tag_117\n      jump\t// in\n    tag_116:\n      mload(0x40)\n      dup1\n      swap2\n      sub\n      swap1\n      revert\n    tag_115:\n        /* \"SecurePoll.sol\":2352:2356  poll */\n      dup1\n        /* \"SecurePoll.sol\":2352:2365  poll.hasVoted */\n      0x04\n      add\n        /* \"SecurePoll.sol\":2352:2377  poll.hasVoted[msg.sender] */\n      0x00\n        /* \"SecurePoll.sol\":2366:2376  msg.sender */\n      caller\n        /* \"SecurePoll.sol\":2352:2377  poll.hasVoted[msg.sender] */\n      0xffffffffffffffffffffffffffffffffffffffff\n      and\n      0xffffffffffffffffffffffffffffffffffffffff\n      and\n      dup2\n      mstore\n      0x20\n      add\n      swap1\n      dup2\n      mstore\n      0x20\n      add\n      0x00\n      keccak256\n      0x00\n      swap1\n      sload\n      swap1\n      0x0100\n      exp\n      swap1\n      div\n      0xff\n      and\n        /* \"SecurePoll.sol\":2351:2377  !poll.hasVoted[msg.sender] */\n      iszero\n        /* \"SecurePoll.sol\":2343:2395  require(!poll.hasVoted[msg.sender], \"Already voted\") */\n      tag_118\n      jumpi\n      mload(0x40)\n      0x08c379a000000000000000000000000000000000000000000000000000000000\n      dup2\n      mstore\n      0x04\n      add\n      tag_119\n      swap1\n      tag_120\n      jump\t// in\n    tag_119:\n      mload(0x40)\n      dup1\n      swap2\n      sub\n      swap1\n      revert\n    tag_118:\n        /* \"SecurePoll.sol\":2428:2432  poll */\n      dup1\n        /* \"SecurePoll.sol\":2428:2440  poll.options */\n      0x02\n      add\n        /* \"SecurePoll.sol\":2428:2447  poll.options.length */\n      dup1\n      sload\n      swap1\n      pop\n        /* \"SecurePoll.sol\":2413:2425  _optionIndex */\n      dup4\n        /* \"SecurePoll.sol\":2413:2447  _optionIndex < poll.options.length */\n      lt\n        /* \"SecurePoll.sol\":2405:2466  require(_optionIndex < poll.options.length, \"Invalid option\") */\n      tag_121\n      jumpi\n      mload(0x40)\n      0x08c379a000000000000000000000000000000000000000000000000000000000\n      dup2\n      mstore\n      0x04\n      add\n      tag_122\n      swap1\n      tag_123\n      jump\t// in\n    tag_122:\n      mload(0x40)\n      dup1\n      swap2\n      sub\n      swap1\n      revert\n    tag_121:\n        /* \"SecurePoll.sol\":2485:2489  poll */\n      dup1\n        /* \"SecurePoll.sol\":2485:2495  poll.votes */\n      0x03\n      add\n        /* \"SecurePoll.sol\":2485:2509  poll.votes[_optionIndex] */\n      0x00\n        /* \"SecurePoll.sol\":2496:2508  _optionIndex */\n      dup5\n        /* \"SecurePoll.sol\":2485:2509  poll.votes[_optionIndex] */\n      dup2\n      mstore\n      0x20\n      add\n      swap1\n      dup2\n      mstore\n      0x20\n      add\n      0x00\n      keccak256\n      0x00\n        /* \"SecurePoll.sol\":2485:2511  poll.votes[_optionIndex]++ */\n      dup2\n      sload\n      dup1\n      swap3\n      swap2\n      swap1\n      tag_124\n      swap1\n      tag_125\n      jump\t// in\n    tag_124:\n      swap2\n      swap1\n      pop\n      sstore\n      pop\n        /* \"SecurePoll.sol\":2549:2553  true */\n      0x01\n        /* \"SecurePoll.sol\":2521:2525  poll */\n      dup2\n        /* \"SecurePoll.sol\":2521:2534  poll.hasVoted */\n      0x04\n      add\n        /* \"SecurePoll.sol\":2521:2546  poll.hasVoted[msg.sender] */\n      0x00\n        /* \"SecurePoll.sol\":2535:2545  msg.sender */\n      caller\n        /* \"SecurePoll.sol\":2521:2546  poll.hasVoted[msg.sender] */\n      0xffffffffffffffffffffffffffffffffffffffff\n      and\n      0xffffffffffffffffffffffffffffffffffffffff\n      and\n      dup2\n      mstore\n      0x20\n      add\n      swap1\n      dup2\n      mstore\n      0x20\n      add\n      0x00\n      keccak256\n      0x00\n        /* \"SecurePoll.sol\":2521:2553  poll.hasVoted[msg.sender] = true */\n      0x0100\n      exp\n      dup2\n      sload\n      dup2\n      0xff\n      mul\n      not\n      and\n      swap1\n      dup4\n      iszero\n      iszero\n      mul\n      or\n      swap1\n      sstore\n      pop\n        /* \"SecurePoll.sol\":2577:2620  VoteCast(_pollId, msg.sender, _optionIndex) */\n      0x2acce567deca3aabf56327adbb4524bd5318936eaefa69e3a5208ffda0cfec09\n        /* \"SecurePoll.sol\":2586:2593  _pollId */\n      dup5\n        /* \"SecurePoll.sol\":2595:2605  msg.sender */\n      caller\n        /* \"SecurePoll.sol\":2607:2619  _optionIndex */\n      dup6\n        /* \"SecurePoll.sol\":2577:2620  VoteCast(_pollId, msg.sender, _optionIndex) */\n      mload(0x40)\n      tag_126\n      swap4\n      swap3\n      swap2\n      swap1\n      tag_127\n      jump\t// in\n    tag_126:\n      mload(0x40)\n      dup1\n      swap2\n      sub\n      swap1\n      log1\n        /* \"SecurePoll.sol\":2078:2627  {... */\n      pop\n        /* \"SecurePoll.sol\":1996:2627  function vote(uint256 _pollId, uint256 _optionIndex) external pollExists(_pollId) {... */\n      pop\n      pop\n      pop\n      jump\t// out\n        /* \"SecurePoll.sol\":3023:3289  function endPoll(uint256 _pollId) external onlyPollCreator(_pollId) pollExists(_pollId) {... */\n    tag_52:\n        /* \"SecurePoll.sol\":3082:3089  _pollId */\n      dup1\n        /* \"SecurePoll.sol\":772:782  msg.sender */\n      caller\n        /* \"SecurePoll.sol\":746:782  polls[_pollId].creator == msg.sender */\n      0xffffffffffffffffffffffffffffffffffffffff\n      and\n        /* \"SecurePoll.sol\":746:751  polls */\n      0x02\n        /* \"SecurePoll.sol\":746:760  polls[_pollId] */\n      0x00\n        /* \"SecurePoll.sol\":752:759  _pollId */\n      dup4\n        /* \"SecurePoll.sol\":746:760  polls[_pollId] */\n      dup2\n      mstore\n      0x20\n      add\n      swap1\n      dup2\n      mstore\n      0x20\n      add\n      0x00\n      keccak256\n        /* \"SecurePoll.sol\":746:768  polls[_pollId].creator */\n      0x05\n      add\n      0x00\n      swap1\n      sload\n      swap1\n      0x0100\n      exp\n      swap1\n      div\n      0xffffffffffffffffffffffffffffffffffffffff\n      and\n        /* \"SecurePoll.sol\":746:782  polls[_pollId].creator == msg.sender */\n      0xffffffffffffffffffffffffffffffffffffffff\n      and\n      eq\n        /* \"SecurePoll.sol\":738:828  require(polls[_pollId].creator == msg.sender, \"Only poll creator can perform this action\") */\n      tag_129\n      jumpi\n      mload(0x40)\n      0x08c379a000000000000000000000000000000000000000000000000000000000\n      dup2\n      mstore\n      0x04\n      add\n      tag_130\n      swap1\n      tag_131\n      jump\t// in\n    tag_130:\n      mload(0x40)\n      dup1\n      swap2\n      sub\n      swap1\n      revert\n    tag_129:\n        /* \"SecurePoll.sol\":3102:3109  _pollId */\n      dup2\n        /* \"SecurePoll.sol\":921:930  pollCount */\n      sload(0x01)\n        /* \"SecurePoll.sol\":911:918  _pollId */\n      dup2\n        /* \"SecurePoll.sol\":911:930  _pollId < pollCount */\n      lt\n        /* \"SecurePoll.sol\":911:946  _pollId < pollCount && _pollId >= 0 */\n      dup1\n      iszero\n      tag_133\n      jumpi\n      pop\n        /* \"SecurePoll.sol\":945:946  0 */\n      0x00\n        /* \"SecurePoll.sol\":934:941  _pollId */\n      dup2\n        /* \"SecurePoll.sol\":934:946  _pollId >= 0 */\n      lt\n      iszero\n        /* \"SecurePoll.sol\":911:946  _pollId < pollCount && _pollId >= 0 */\n    tag_133:\n        /* \"SecurePoll.sol\":903:970  require(_pollId < pollCount && _pollId >= 0, \"Poll does not exist\") */\n      tag_134\n      jumpi\n      mload(0x40)\n      0x08c379a000000000000000000000000000000000000000000000000000000000\n      dup2\n      mstore\n      0x04\n      add\n      tag_135\n      swap1\n      tag_62\n      jump\t// in\n    tag_135:\n      mload(0x40)\n      dup1\n      swap2\n      sub\n      swap1\n      revert\n    tag_134:\n        /* \"SecurePoll.sol\":3121:3138  Poll storage poll */\n      0x00\n        /* \"SecurePoll.sol\":3141:3146  polls */\n      0x02\n        /* \"SecurePoll.sol\":3141:3155  polls[_pollId] */\n      0x00\n        /* \"SecurePoll.sol\":3147:3154  _pollId */\n      dup6\n        /* \"SecurePoll.sol\":3141:3155  polls[_pollId] */\n      dup2\n      mstore\n      0x20\n      add\n      swap1\n      dup2\n      mstore\n      0x20\n      add\n      0x00\n      keccak256\n        /* \"SecurePoll.sol\":3121:3155  Poll storage poll = polls[_pollId] */\n      swap1\n      pop\n        /* \"SecurePoll.sol\":3173:3177  poll */\n      dup1\n        /* \"SecurePoll.sol\":3173:3186  poll.isActive */\n      0x08\n      add\n      0x00\n      swap1\n      sload\n      swap1\n      0x0100\n      exp\n      swap1\n      div\n      0xff\n      and\n        /* \"SecurePoll.sol\":3165:3209  require(poll.isActive, \"Poll already ended\") */\n      tag_137\n      jumpi\n      mload(0x40)\n      0x08c379a000000000000000000000000000000000000000000000000000000000\n      dup2\n      mstore\n      0x04\n      add\n      tag_138\n      swap1\n      tag_139\n      jump\t// in\n    tag_138:\n      mload(0x40)\n      dup1\n      swap2\n      sub\n      swap1\n      revert\n    tag_137:\n        /* \"SecurePoll.sol\":3244:3249  false */\n      0x00\n        /* \"SecurePoll.sol\":3228:3232  poll */\n      dup2\n        /* \"SecurePoll.sol\":3228:3241  poll.isActive */\n      0x08\n      add\n      0x00\n        /* \"SecurePoll.sol\":3228:3249  poll.isActive = false */\n      0x0100\n      exp\n      dup2\n      sload\n      dup2\n      0xff\n      mul\n      not\n      and\n      swap1\n      dup4\n      iszero\n      iszero\n      mul\n      or\n      swap1\n      sstore\n      pop\n        /* \"SecurePoll.sol\":3264:3282  PollEnded(_pollId) */\n      0x14d4cfc1c2a6f37c8f97ad80fc12bd9d943ea6d4dd7684137850125597ce9bf7\n        /* \"SecurePoll.sol\":3274:3281  _pollId */\n      dup5\n        /* \"SecurePoll.sol\":3264:3282  PollEnded(_pollId) */\n      mload(0x40)\n      tag_140\n      swap2\n      swap1\n      tag_34\n      jump\t// in\n    tag_140:\n      mload(0x40)\n      dup1\n      swap2\n      sub\n      swap1\n      log1\n        /* \"SecurePoll.sol\":3111:3289  {... */\n      pop\n        /* \"SecurePoll.sol\":838:839  _ */\n      pop\n        /* \"SecurePoll.sol\":3023:3289  function endPoll(uint256 _pollId) external onlyPollCreator(_pollId) pollExists(_pollId) {... */\n      pop\n      pop\n      jump\t// out\n        /* \"SecurePoll.sol\":998:1906  function createPoll(... */\n    tag_56:\n        /* \"SecurePoll.sol\":1138:1145  uint256 */\n      0x00\n        /* \"SecurePoll.sol\":1191:1192  0 */\n      0x00\n        /* \"SecurePoll.sol\":1171:1180  _question */\n      dup5\n        /* \"SecurePoll.sol\":1165:1188  bytes(_question).length */\n      mload\n        /* \"SecurePoll.sol\":1165:1192  bytes(_question).length > 0 */\n      gt\n        /* \"SecurePoll.sol\":1157:1221  require(bytes(_question).length > 0, \"Question cannot be empty\") */\n      tag_142\n      jumpi\n      mload(0x40)\n      0x08c379a000000000000000000000000000000000000000000000000000000000\n      dup2\n      mstore\n      0x04\n      add\n      tag_143\n      swap1\n      tag_144\n      jump\t// in\n    tag_143:\n      mload(0x40)\n      dup1\n      swap2\n      sub\n      swap1\n      revert\n    tag_142:\n        /* \"SecurePoll.sol\":1258:1259  2 */\n      0x02\n        /* \"SecurePoll.sol\":1239:1247  _options */\n      dup4\n        /* \"SecurePoll.sol\":1239:1254  _options.length */\n      mload\n        /* \"SecurePoll.sol\":1239:1259  _options.length >= 2 */\n      lt\n      iszero\n        /* \"SecurePoll.sol\":1231:1291  require(_options.length >= 2, \"At least 2 options required\") */\n      tag_145\n      jumpi\n      mload(0x40)\n      0x08c379a000000000000000000000000000000000000000000000000000000000\n      dup2\n      mstore\n      0x04\n      add\n      tag_146\n      swap1\n      tag_147\n      jump\t// in\n    tag_146:\n      mload(0x40)\n      dup1\n      swap2\n      sub\n      swap1\n      revert\n    tag_145:\n        /* \"SecurePoll.sol\":1321:1322  0 */\n      0x00\n        /* \"SecurePoll.sol\":1309:1318  _duration */\n      dup3\n        /* \"SecurePoll.sol\":1309:1322  _duration > 0 */\n      gt\n        /* \"SecurePoll.sol\":1301:1352  require(_duration > 0, \"Duration must be positive\") */\n      tag_148\n      jumpi\n      mload(0x40)\n      0x08c379a000000000000000000000000000000000000000000000000000000000\n      dup2\n      mstore\n      0x04\n      add\n      tag_149\n      swap1\n      tag_150\n      jump\t// in\n    tag_149:\n      mload(0x40)\n      dup1\n      swap2\n      sub\n      swap1\n      revert\n    tag_148:\n        /* \"SecurePoll.sol\":1380:1389  pollCount */\n      0x01\n      0x00\n        /* \"SecurePoll.sol\":1380:1391  pollCount++ */\n      dup2\n      sload\n      dup1\n      swap3\n      swap2\n      swap1\n      tag_151\n      swap1\n      tag_125\n      jump\t// in\n    tag_151:\n      swap2\n      swap1\n      pop\n      sstore\n        /* \"SecurePoll.sol\":1371:1377  pollId */\n      0x00\n        /* \"SecurePoll.sol\":1371:1391  pollId = pollCount++ */\n      dup2\n      swap1\n      sstore\n      pop\n        /* \"SecurePoll.sol\":1401:1421  Poll storage newPoll */\n      0x00\n        /* \"SecurePoll.sol\":1424:1429  polls */\n      0x02\n        /* \"SecurePoll.sol\":1424:1437  polls[pollId] */\n      0x00\n        /* \"SecurePoll.sol\":1430:1436  pollId */\n      sload(0x00)\n        /* \"SecurePoll.sol\":1424:1437  polls[pollId] */\n      dup2\n      mstore\n      0x20\n      add\n      swap1\n      dup2\n      mstore\n      0x20\n      add\n      0x00\n      keccak256\n        /* \"SecurePoll.sol\":1401:1437  Poll storage newPoll = polls[pollId] */\n      swap1\n      pop\n        /* \"SecurePoll.sol\":1469:1475  pollId */\n      sload(0x00)\n        /* \"SecurePoll.sol\":1456:1463  newPoll */\n      dup2\n        /* \"SecurePoll.sol\":1456:1466  newPoll.id */\n      0x00\n      add\n        /* \"SecurePoll.sol\":1456:1475  newPoll.id = pollId */\n      dup2\n      swap1\n      sstore\n      pop\n        /* \"SecurePoll.sol\":1504:1513  _question */\n      dup5\n        /* \"SecurePoll.sol\":1485:1492  newPoll */\n      dup2\n        /* \"SecurePoll.sol\":1485:1501  newPoll.question */\n      0x01\n      add\n        /* \"SecurePoll.sol\":1485:1513  newPoll.question = _question */\n      swap1\n      dup2\n      tag_152\n      swap2\n      swap1\n      tag_153\n      jump\t// in\n    tag_152:\n      pop\n        /* \"SecurePoll.sol\":1541:1551  msg.sender */\n      caller\n        /* \"SecurePoll.sol\":1523:1530  newPoll */\n      dup2\n        /* \"SecurePoll.sol\":1523:1538  newPoll.creator */\n      0x05\n      add\n      0x00\n        /* \"SecurePoll.sol\":1523:1551  newPoll.creator = msg.sender */\n      0x0100\n      exp\n      dup2\n      sload\n      dup2\n      0xffffffffffffffffffffffffffffffffffffffff\n      mul\n      not\n      and\n      swap1\n      dup4\n      0xffffffffffffffffffffffffffffffffffffffff\n      and\n      mul\n      or\n      swap1\n      sstore\n      pop\n        /* \"SecurePoll.sol\":1581:1596  block.timestamp */\n      timestamp\n        /* \"SecurePoll.sol\":1561:1568  newPoll */\n      dup2\n        /* \"SecurePoll.sol\":1561:1578  newPoll.startTime */\n      0x06\n      add\n        /* \"SecurePoll.sol\":1561:1596  newPoll.startTime = block.timestamp */\n      dup2\n      swap1\n      sstore\n      pop\n        /* \"SecurePoll.sol\":1642:1651  _duration */\n      dup3\n        /* \"SecurePoll.sol\":1624:1639  block.timestamp */\n      timestamp\n        /* \"SecurePoll.sol\":1624:1651  block.timestamp + _duration */\n      tag_154\n      swap2\n      swap1\n      tag_155\n      jump\t// in\n    tag_154:\n        /* \"SecurePoll.sol\":1606:1613  newPoll */\n      dup2\n        /* \"SecurePoll.sol\":1606:1621  newPoll.endTime */\n      0x07\n      add\n        /* \"SecurePoll.sol\":1606:1651  newPoll.endTime = block.timestamp + _duration */\n      dup2\n      swap1\n      sstore\n      pop\n        /* \"SecurePoll.sol\":1680:1684  true */\n      0x01\n        /* \"SecurePoll.sol\":1661:1668  newPoll */\n      dup2\n        /* \"SecurePoll.sol\":1661:1677  newPoll.isActive */\n      0x08\n      add\n      0x00\n        /* \"SecurePoll.sol\":1661:1684  newPoll.isActive = true */\n      0x0100\n      exp\n      dup2\n      sload\n      dup2\n      0xff\n      mul\n      not\n      and\n      swap1\n      dup4\n      iszero\n      iszero\n      mul\n      or\n      swap1\n      sstore\n      pop\n        /* \"SecurePoll.sol\":1708:1717  uint256 i */\n      0x00\n        /* \"SecurePoll.sol\":1720:1721  0 */\n      0x00\n        /* \"SecurePoll.sol\":1708:1721  uint256 i = 0 */\n      swap1\n      pop\n        /* \"SecurePoll.sol\":1703:1807  for (uint256 i = 0; i < _options.length; i++) {... */\n    tag_156:\n        /* \"SecurePoll.sol\":1727:1735  _options */\n      dup5\n        /* \"SecurePoll.sol\":1727:1742  _options.length */\n      mload\n        /* \"SecurePoll.sol\":1723:1724  i */\n      dup2\n        /* \"SecurePoll.sol\":1723:1742  i < _options.length */\n      lt\n        /* \"SecurePoll.sol\":1703:1807  for (uint256 i = 0; i < _options.length; i++) {... */\n      iszero\n      tag_157\n      jumpi\n        /* \"SecurePoll.sol\":1763:1770  newPoll */\n      dup2\n        /* \"SecurePoll.sol\":1763:1778  newPoll.options */\n      0x02\n      add\n        /* \"SecurePoll.sol\":1784:1792  _options */\n      dup6\n        /* \"SecurePoll.sol\":1793:1794  i */\n      dup3\n        /* \"SecurePoll.sol\":1784:1795  _options[i] */\n      dup2\n      mload\n      dup2\n      lt\n      tag_159\n      jumpi\n      tag_160\n      tag_92\n      jump\t// in\n    tag_160:\n    tag_159:\n      0x20\n      mul\n      0x20\n      add\n      add\n      mload\n        /* \"SecurePoll.sol\":1763:1796  newPoll.options.push(_options[i]) */\n      swap1\n      dup1\n      0x01\n      dup2\n      sload\n      add\n      dup1\n      dup3\n      sstore\n      dup1\n      swap2\n      pop\n      pop\n      0x01\n      swap1\n      sub\n      swap1\n      0x00\n      mstore\n      keccak256(0x00, 0x20)\n      add\n      0x00\n      swap1\n      swap2\n      swap1\n      swap2\n      swap1\n      swap2\n      pop\n      swap1\n      dup2\n      tag_162\n      swap2\n      swap1\n      tag_153\n      jump\t// in\n    tag_162:\n      pop\n        /* \"SecurePoll.sol\":1744:1747  i++ */\n      dup1\n      dup1\n      0x01\n      add\n      swap2\n      pop\n      pop\n        /* \"SecurePoll.sol\":1703:1807  for (uint256 i = 0; i < _options.length; i++) {... */\n      jump(tag_156)\n    tag_157:\n      pop\n        /* \"SecurePoll.sol\":1830:1872  PollCreated(pollId, _question, msg.sender) */\n      0xd2a8dbeae3cac9e94402cc3d7e3ee6cb0a2c32d2e426bf82f24b87ffd1089efd\n        /* \"SecurePoll.sol\":1842:1848  pollId */\n      sload(0x00)\n        /* \"SecurePoll.sol\":1850:1859  _question */\n      dup7\n        /* \"SecurePoll.sol\":1861:1871  msg.sender */\n      caller\n        /* \"SecurePoll.sol\":1830:1872  PollCreated(pollId, _question, msg.sender) */\n      mload(0x40)\n      tag_163\n      swap4\n      swap3\n      swap2\n      swap1\n      tag_164\n      jump\t// in\n    tag_163:\n      mload(0x40)\n      dup1\n      swap2\n      sub\n      swap1\n      log1\n        /* \"SecurePoll.sol\":1893:1899  pollId */\n      sload(0x00)\n        /* \"SecurePoll.sol\":1886:1899  return pollId */\n      swap2\n      pop\n      pop\n        /* \"SecurePoll.sol\":998:1906  function createPoll(... */\n      swap4\n      swap3\n      pop\n      pop\n      pop\n      jump\t// out\n        /* \"#utility.yul\":7:82   */\n    tag_165:\n        /* \"#utility.yul\":40:46   */\n      0x00\n        /* \"#utility.yul\":73:75   */\n      0x40\n        /* \"#utility.yul\":67:76   */\n      mload\n        /* \"#utility.yul\":57:76   */\n      swap1\n      pop\n        /* \"#utility.yul\":7:82   */\n      swap1\n      jump\t// out\n        /* \"#utility.yul\":88:205   */\n    tag_166:\n        /* \"#utility.yul\":197:198   */\n      0x00\n        /* \"#utility.yul\":194:195   */\n      0x00\n        /* \"#utility.yul\":187:199   */\n      revert\n        /* \"#utility.yul\":211:328   */\n    tag_167:\n        /* \"#utility.yul\":320:321   */\n      0x00\n        /* \"#utility.yul\":317:318   */\n      0x00\n        /* \"#utility.yul\":310:322   */\n      revert\n        /* \"#utility.yul\":334:411   */\n    tag_168:\n        /* \"#utility.yul\":371:378   */\n      0x00\n        /* \"#utility.yul\":400:405   */\n      dup2\n        /* \"#utility.yul\":389:405   */\n      swap1\n      pop\n        /* \"#utility.yul\":334:411   */\n      swap2\n      swap1\n      pop\n      jump\t// out\n        /* \"#utility.yul\":417:539   */\n    tag_169:\n        /* \"#utility.yul\":490:514   */\n      tag_256\n        /* \"#utility.yul\":508:513   */\n      dup2\n        /* \"#utility.yul\":490:514   */\n      tag_168\n      jump\t// in\n    tag_256:\n        /* \"#utility.yul\":483:488   */\n      dup2\n        /* \"#utility.yul\":480:515   */\n      eq\n        /* \"#utility.yul\":470:533   */\n      tag_257\n      jumpi\n        /* \"#utility.yul\":529:530   */\n      0x00\n        /* \"#utility.yul\":526:527   */\n      0x00\n        /* \"#utility.yul\":519:531   */\n      revert\n        /* \"#utility.yul\":470:533   */\n    tag_257:\n        /* \"#utility.yul\":417:539   */\n      pop\n      jump\t// out\n        /* \"#utility.yul\":545:684   */\n    tag_170:\n        /* \"#utility.yul\":591:596   */\n      0x00\n        /* \"#utility.yul\":629:635   */\n      dup2\n        /* \"#utility.yul\":616:636   */\n      calldataload\n        /* \"#utility.yul\":607:636   */\n      swap1\n      pop\n        /* \"#utility.yul\":645:678   */\n      tag_259\n        /* \"#utility.yul\":672:677   */\n      dup2\n        /* \"#utility.yul\":645:678   */\n      tag_169\n      jump\t// in\n    tag_259:\n        /* \"#utility.yul\":545:684   */\n      swap3\n      swap2\n      pop\n      pop\n      jump\t// out\n        /* \"#utility.yul\":690:1019   */\n    tag_16:\n        /* \"#utility.yul\":749:755   */\n      0x00\n        /* \"#utility.yul\":798:800   */\n      0x20\n        /* \"#utility.yul\":786:795   */\n      dup3\n        /* \"#utility.yul\":777:784   */\n      dup5\n        /* \"#utility.yul\":773:796   */\n      sub\n        /* \"#utility.yul\":769:801   */\n      slt\n        /* \"#utility.yul\":766:885   */\n      iszero\n      tag_261\n      jumpi\n        /* \"#utility.yul\":804:883   */\n      tag_262\n      tag_166\n      jump\t// in\n    tag_262:\n        /* \"#utility.yul\":766:885   */\n    tag_261:\n        /* \"#utility.yul\":924:925   */\n      0x00\n        /* \"#utility.yul\":949:1002   */\n      tag_263\n        /* \"#utility.yul\":994:1001   */\n      dup5\n        /* \"#utility.yul\":985:991   */\n      dup3\n        /* \"#utility.yul\":974:983   */\n      dup6\n        /* \"#utility.yul\":970:992   */\n      add\n        /* \"#utility.yul\":949:1002   */\n      tag_170\n      jump\t// in\n    tag_263:\n        /* \"#utility.yul\":939:1002   */\n      swap2\n      pop\n        /* \"#utility.yul\":895:1012   */\n      pop\n        /* \"#utility.yul\":690:1019   */\n      swap3\n      swap2\n      pop\n      pop\n      jump\t// out\n        /* \"#utility.yul\":1025:1124   */\n    tag_171:\n        /* \"#utility.yul\":1077:1083   */\n      0x00\n        /* \"#utility.yul\":1111:1116   */\n      dup2\n        /* \"#utility.yul\":1105:1117   */\n      mload\n        /* \"#utility.yul\":1095:1117   */\n      swap1\n      pop\n        /* \"#utility.yul\":1025:1124   */\n      swap2\n      swap1\n      pop\n      jump\t// out\n        /* \"#utility.yul\":1130:1299   */\n    tag_172:\n        /* \"#utility.yul\":1214:1225   */\n      0x00\n        /* \"#utility.yul\":1248:1254   */\n      dup3\n        /* \"#utility.yul\":1243:1246   */\n      dup3\n        /* \"#utility.yul\":1236:1255   */\n      mstore\n        /* \"#utility.yul\":1288:1292   */\n      0x20\n        /* \"#utility.yul\":1283:1286   */\n      dup3\n        /* \"#utility.yul\":1279:1293   */\n      add\n        /* \"#utility.yul\":1264:1293   */\n      swap1\n      pop\n        /* \"#utility.yul\":1130:1299   */\n      swap3\n      swap2\n      pop\n      pop\n      jump\t// out\n        /* \"#utility.yul\":1305:1444   */\n    tag_173:\n        /* \"#utility.yul\":1394:1400   */\n      dup3\n        /* \"#utility.yul\":1389:1392   */\n      dup2\n        /* \"#utility.yul\":1384:1387   */\n      dup4\n        /* \"#utility.yul\":1378:1401   */\n      mcopy\n        /* \"#utility.yul\":1435:1436   */\n      0x00\n        /* \"#utility.yul\":1426:1432   */\n      dup4\n        /* \"#utility.yul\":1421:1424   */\n      dup4\n        /* \"#utility.yul\":1417:1433   */\n      add\n        /* \"#utility.yul\":1410:1437   */\n      mstore\n        /* \"#utility.yul\":1305:1444   */\n      pop\n      pop\n      pop\n      jump\t// out\n        /* \"#utility.yul\":1450:1552   */\n    tag_174:\n        /* \"#utility.yul\":1491:1497   */\n      0x00\n        /* \"#utility.yul\":1542:1544   */\n      0x1f\n        /* \"#utility.yul\":1538:1545   */\n      not\n        /* \"#utility.yul\":1533:1535   */\n      0x1f\n        /* \"#utility.yul\":1526:1531   */\n      dup4\n        /* \"#utility.yul\":1522:1536   */\n      add\n        /* \"#utility.yul\":1518:1546   */\n      and\n        /* \"#utility.yul\":1508:1546   */\n      swap1\n      pop\n        /* \"#utility.yul\":1450:1552   */\n      swap2\n      swap1\n      pop\n      jump\t// out\n        /* \"#utility.yul\":1558:1935   */\n    tag_175:\n        /* \"#utility.yul\":1646:1649   */\n      0x00\n        /* \"#utility.yul\":1674:1713   */\n      tag_269\n        /* \"#utility.yul\":1707:1712   */\n      dup3\n        /* \"#utility.yul\":1674:1713   */\n      tag_171\n      jump\t// in\n    tag_269:\n        /* \"#utility.yul\":1729:1800   */\n      tag_270\n        /* \"#utility.yul\":1793:1799   */\n      dup2\n        /* \"#utility.yul\":1788:1791   */\n      dup6\n        /* \"#utility.yul\":1729:1800   */\n      tag_172\n      jump\t// in\n    tag_270:\n        /* \"#utility.yul\":1722:1800   */\n      swap4\n      pop\n        /* \"#utility.yul\":1809:1874   */\n      tag_271\n        /* \"#utility.yul\":1867:1873   */\n      dup2\n        /* \"#utility.yul\":1862:1865   */\n      dup6\n        /* \"#utility.yul\":1855:1859   */\n      0x20\n        /* \"#utility.yul\":1848:1853   */\n      dup7\n        /* \"#utility.yul\":1844:1860   */\n      add\n        /* \"#utility.yul\":1809:1874   */\n      tag_173\n      jump\t// in\n    tag_271:\n        /* \"#utility.yul\":1899:1928   */\n      tag_272\n        /* \"#utility.yul\":1921:1927   */\n      dup2\n        /* \"#utility.yul\":1899:1928   */\n      tag_174\n      jump\t// in\n    tag_272:\n        /* \"#utility.yul\":1894:1897   */\n      dup5\n        /* \"#utility.yul\":1890:1929   */\n      add\n        /* \"#utility.yul\":1883:1929   */\n      swap2\n      pop\n        /* \"#utility.yul\":1650:1935   */\n      pop\n        /* \"#utility.yul\":1558:1935   */\n      swap3\n      swap2\n      pop\n      pop\n      jump\t// out\n        /* \"#utility.yul\":1941:2065   */\n    tag_176:\n        /* \"#utility.yul\":2018:2024   */\n      0x00\n        /* \"#utility.yul\":2052:2057   */\n      dup2\n        /* \"#utility.yul\":2046:2058   */\n      mload\n        /* \"#utility.yul\":2036:2058   */\n      swap1\n      pop\n        /* \"#utility.yul\":1941:2065   */\n      swap2\n      swap1\n      pop\n      jump\t// out\n        /* \"#utility.yul\":2071:2265   */\n    tag_177:\n        /* \"#utility.yul\":2180:2191   */\n      0x00\n        /* \"#utility.yul\":2214:2220   */\n      dup3\n        /* \"#utility.yul\":2209:2212   */\n      dup3\n        /* \"#utility.yul\":2202:2221   */\n      mstore\n        /* \"#utility.yul\":2254:2258   */\n      0x20\n        /* \"#utility.yul\":2249:2252   */\n      dup3\n        /* \"#utility.yul\":2245:2259   */\n      add\n        /* \"#utility.yul\":2230:2259   */\n      swap1\n      pop\n        /* \"#utility.yul\":2071:2265   */\n      swap3\n      swap2\n      pop\n      pop\n      jump\t// out\n        /* \"#utility.yul\":2271:2413   */\n    tag_178:\n        /* \"#utility.yul\":2348:2352   */\n      0x00\n        /* \"#utility.yul\":2371:2374   */\n      dup2\n        /* \"#utility.yul\":2363:2374   */\n      swap1\n      pop\n        /* \"#utility.yul\":2401:2405   */\n      0x20\n        /* \"#utility.yul\":2396:2399   */\n      dup3\n        /* \"#utility.yul\":2392:2406   */\n      add\n        /* \"#utility.yul\":2384:2406   */\n      swap1\n      pop\n        /* \"#utility.yul\":2271:2413   */\n      swap2\n      swap1\n      pop\n      jump\t// out\n        /* \"#utility.yul\":2419:2578   */\n    tag_179:\n        /* \"#utility.yul\":2493:2504   */\n      0x00\n        /* \"#utility.yul\":2527:2533   */\n      dup3\n        /* \"#utility.yul\":2522:2525   */\n      dup3\n        /* \"#utility.yul\":2515:2534   */\n      mstore\n        /* \"#utility.yul\":2567:2571   */\n      0x20\n        /* \"#utility.yul\":2562:2565   */\n      dup3\n        /* \"#utility.yul\":2558:2572   */\n      add\n        /* \"#utility.yul\":2543:2572   */\n      swap1\n      pop\n        /* \"#utility.yul\":2419:2578   */\n      swap3\n      swap2\n      pop\n      pop\n      jump\t// out\n        /* \"#utility.yul\":2584:2941   */\n    tag_180:\n        /* \"#utility.yul\":2662:2665   */\n      0x00\n        /* \"#utility.yul\":2690:2729   */\n      tag_278\n        /* \"#utility.yul\":2723:2728   */\n      dup3\n        /* \"#utility.yul\":2690:2729   */\n      tag_171\n      jump\t// in\n    tag_278:\n        /* \"#utility.yul\":2745:2806   */\n      tag_279\n        /* \"#utility.yul\":2799:2805   */\n      dup2\n        /* \"#utility.yul\":2794:2797   */\n      dup6\n        /* \"#utility.yul\":2745:2806   */\n      tag_179\n      jump\t// in\n    tag_279:\n        /* \"#utility.yul\":2738:2806   */\n      swap4\n      pop\n        /* \"#utility.yul\":2815:2880   */\n      tag_280\n        /* \"#utility.yul\":2873:2879   */\n      dup2\n        /* \"#utility.yul\":2868:2871   */\n      dup6\n        /* \"#utility.yul\":2861:2865   */\n      0x20\n        /* \"#utility.yul\":2854:2859   */\n      dup7\n        /* \"#utility.yul\":2850:2866   */\n      add\n        /* \"#utility.yul\":2815:2880   */\n      tag_173\n      jump\t// in\n    tag_280:\n        /* \"#utility.yul\":2905:2934   */\n      tag_281\n        /* \"#utility.yul\":2927:2933   */\n      dup2\n        /* \"#utility.yul\":2905:2934   */\n      tag_174\n      jump\t// in\n    tag_281:\n        /* \"#utility.yul\":2900:2903   */\n      dup5\n        /* \"#utility.yul\":2896:2935   */\n      add\n        /* \"#utility.yul\":2889:2935   */\n      swap2\n      pop\n        /* \"#utility.yul\":2666:2941   */\n      pop\n        /* \"#utility.yul\":2584:2941   */\n      swap3\n      swap2\n      pop\n      pop\n      jump\t// out\n        /* \"#utility.yul\":2947:3143   */\n    tag_181:\n        /* \"#utility.yul\":3036:3046   */\n      0x00\n        /* \"#utility.yul\":3071:3137   */\n      tag_283\n        /* \"#utility.yul\":3133:3136   */\n      dup4\n        /* \"#utility.yul\":3125:3131   */\n      dup4\n        /* \"#utility.yul\":3071:3137   */\n      tag_180\n      jump\t// in\n    tag_283:\n        /* \"#utility.yul\":3057:3137   */\n      swap1\n      pop\n        /* \"#utility.yul\":2947:3143   */\n      swap3\n      swap2\n      pop\n      pop\n      jump\t// out\n        /* \"#utility.yul\":3149:3272   */\n    tag_182:\n        /* \"#utility.yul\":3229:3233   */\n      0x00\n        /* \"#utility.yul\":3261:3265   */\n      0x20\n        /* \"#utility.yul\":3256:3259   */\n      dup3\n        /* \"#utility.yul\":3252:3266   */\n      add\n        /* \"#utility.yul\":3244:3266   */\n      swap1\n      pop\n        /* \"#utility.yul\":3149:3272   */\n      swap2\n      swap1\n      pop\n      jump\t// out\n        /* \"#utility.yul\":3306:4297   */\n    tag_183:\n        /* \"#utility.yul\":3445:3448   */\n      0x00\n        /* \"#utility.yul\":3474:3538   */\n      tag_286\n        /* \"#utility.yul\":3532:3537   */\n      dup3\n        /* \"#utility.yul\":3474:3538   */\n      tag_176\n      jump\t// in\n    tag_286:\n        /* \"#utility.yul\":3554:3650   */\n      tag_287\n        /* \"#utility.yul\":3643:3649   */\n      dup2\n        /* \"#utility.yul\":3638:3641   */\n      dup6\n        /* \"#utility.yul\":3554:3650   */\n      tag_177\n      jump\t// in\n    tag_287:\n        /* \"#utility.yul\":3547:3650   */\n      swap4\n      pop\n        /* \"#utility.yul\":3676:3679   */\n      dup4\n        /* \"#utility.yul\":3721:3725   */\n      0x20\n        /* \"#utility.yul\":3713:3719   */\n      dup3\n        /* \"#utility.yul\":3709:3726   */\n      mul\n        /* \"#utility.yul\":3704:3707   */\n      dup6\n        /* \"#utility.yul\":3700:3727   */\n      add\n        /* \"#utility.yul\":3751:3817   */\n      tag_288\n        /* \"#utility.yul\":3811:3816   */\n      dup6\n        /* \"#utility.yul\":3751:3817   */\n      tag_178\n      jump\t// in\n    tag_288:\n        /* \"#utility.yul\":3840:3847   */\n      dup1\n        /* \"#utility.yul\":3871:3872   */\n      0x00\n        /* \"#utility.yul\":3856:4252   */\n    tag_289:\n        /* \"#utility.yul\":3881:3887   */\n      dup6\n        /* \"#utility.yul\":3878:3879   */\n      dup2\n        /* \"#utility.yul\":3875:3888   */\n      lt\n        /* \"#utility.yul\":3856:4252   */\n      iszero\n      tag_291\n      jumpi\n        /* \"#utility.yul\":3952:3961   */\n      dup5\n        /* \"#utility.yul\":3946:3950   */\n      dup5\n        /* \"#utility.yul\":3942:3962   */\n      sub\n        /* \"#utility.yul\":3937:3940   */\n      dup10\n        /* \"#utility.yul\":3930:3963   */\n      mstore\n        /* \"#utility.yul\":4003:4009   */\n      dup2\n        /* \"#utility.yul\":3997:4010   */\n      mload\n        /* \"#utility.yul\":4031:4115   */\n      tag_292\n        /* \"#utility.yul\":4110:4114   */\n      dup6\n        /* \"#utility.yul\":4095:4108   */\n      dup3\n        /* \"#utility.yul\":4031:4115   */\n      tag_181\n      jump\t// in\n    tag_292:\n        /* \"#utility.yul\":4023:4115   */\n      swap5\n      pop\n        /* \"#utility.yul\":4138:4208   */\n      tag_293\n        /* \"#utility.yul\":4201:4207   */\n      dup4\n        /* \"#utility.yul\":4138:4208   */\n      tag_182\n      jump\t// in\n    tag_293:\n        /* \"#utility.yul\":4128:4208   */\n      swap3\n      pop\n        /* \"#utility.yul\":4237:4241   */\n      0x20\n        /* \"#utility.yul\":4232:4235   */\n      dup11\n        /* \"#utility.yul\":4228:4242   */\n      add\n        /* \"#utility.yul\":4221:4242   */\n      swap10\n      pop\n        /* \"#utility.yul\":3916:4252   */\n      pop\n        /* \"#utility.yul\":3903:3904   */\n      0x01\n        /* \"#utility.yul\":3900:3901   */\n      dup2\n        /* \"#utility.yul\":3896:3905   */\n      add\n        /* \"#utility.yul\":3891:3905   */\n      swap1\n      pop\n        /* \"#utility.yul\":3856:4252   */\n      jump(tag_289)\n    tag_291:\n        /* \"#utility.yul\":3860:3874   */\n      pop\n        /* \"#utility.yul\":4268:4272   */\n      dup3\n        /* \"#utility.yul\":4261:4272   */\n      swap8\n      pop\n        /* \"#utility.yul\":4288:4291   */\n      dup8\n        /* \"#utility.yul\":4281:4291   */\n      swap6\n      pop\n        /* \"#utility.yul\":3450:4297   */\n      pop\n      pop\n      pop\n      pop\n      pop\n        /* \"#utility.yul\":3306:4297   */\n      swap3\n      swap2\n      pop\n      pop\n      jump\t// out\n        /* \"#utility.yul\":4303:4429   */\n    tag_184:\n        /* \"#utility.yul\":4340:4347   */\n      0x00\n        /* \"#utility.yul\":4380:4422   */\n      0xffffffffffffffffffffffffffffffffffffffff\n        /* \"#utility.yul\":4373:4378   */\n      dup3\n        /* \"#utility.yul\":4369:4423   */\n      and\n        /* \"#utility.yul\":4358:4423   */\n      swap1\n      pop\n        /* \"#utility.yul\":4303:4429   */\n      swap2\n      swap1\n      pop\n      jump\t// out\n        /* \"#utility.yul\":4435:4531   */\n    tag_185:\n        /* \"#utility.yul\":4472:4479   */\n      0x00\n        /* \"#utility.yul\":4501:4525   */\n      tag_296\n        /* \"#utility.yul\":4519:4524   */\n      dup3\n        /* \"#utility.yul\":4501:4525   */\n      tag_184\n      jump\t// in\n    tag_296:\n        /* \"#utility.yul\":4490:4525   */\n      swap1\n      pop\n        /* \"#utility.yul\":4435:4531   */\n      swap2\n      swap1\n      pop\n      jump\t// out\n        /* \"#utility.yul\":4537:4655   */\n    tag_186:\n        /* \"#utility.yul\":4624:4648   */\n      tag_298\n        /* \"#utility.yul\":4642:4647   */\n      dup2\n        /* \"#utility.yul\":4624:4648   */\n      tag_185\n      jump\t// in\n    tag_298:\n        /* \"#utility.yul\":4619:4622   */\n      dup3\n        /* \"#utility.yul\":4612:4649   */\n      mstore\n        /* \"#utility.yul\":4537:4655   */\n      pop\n      pop\n      jump\t// out\n        /* \"#utility.yul\":4661:4779   */\n    tag_187:\n        /* \"#utility.yul\":4748:4772   */\n      tag_300\n        /* \"#utility.yul\":4766:4771   */\n      dup2\n        /* \"#utility.yul\":4748:4772   */\n      tag_168\n      jump\t// in\n    tag_300:\n        /* \"#utility.yul\":4743:4746   */\n      dup3\n        /* \"#utility.yul\":4736:4773   */\n      mstore\n        /* \"#utility.yul\":4661:4779   */\n      pop\n      pop\n      jump\t// out\n        /* \"#utility.yul\":4785:4875   */\n    tag_188:\n        /* \"#utility.yul\":4819:4826   */\n      0x00\n        /* \"#utility.yul\":4862:4867   */\n      dup2\n        /* \"#utility.yul\":4855:4868   */\n      iszero\n        /* \"#utility.yul\":4848:4869   */\n      iszero\n        /* \"#utility.yul\":4837:4869   */\n      swap1\n      pop\n        /* \"#utility.yul\":4785:4875   */\n      swap2\n      swap1\n      pop\n      jump\t// out\n        /* \"#utility.yul\":4881:4990   */\n    tag_189:\n        /* \"#utility.yul\":4962:4983   */\n      tag_303\n        /* \"#utility.yul\":4977:4982   */\n      dup2\n        /* \"#utility.yul\":4962:4983   */\n      tag_188\n      jump\t// in\n    tag_303:\n        /* \"#utility.yul\":4957:4960   */\n      dup3\n        /* \"#utility.yul\":4950:4984   */\n      mstore\n        /* \"#utility.yul\":4881:4990   */\n      pop\n      pop\n      jump\t// out\n        /* \"#utility.yul\":4996:6041   */\n    tag_19:\n        /* \"#utility.yul\":5313:5317   */\n      0x00\n        /* \"#utility.yul\":5351:5354   */\n      0xc0\n        /* \"#utility.yul\":5340:5349   */\n      dup3\n        /* \"#utility.yul\":5336:5355   */\n      add\n        /* \"#utility.yul\":5328:5355   */\n      swap1\n      pop\n        /* \"#utility.yul\":5401:5410   */\n      dup2\n        /* \"#utility.yul\":5395:5399   */\n      dup2\n        /* \"#utility.yul\":5391:5411   */\n      sub\n        /* \"#utility.yul\":5387:5388   */\n      0x00\n        /* \"#utility.yul\":5376:5385   */\n      dup4\n        /* \"#utility.yul\":5372:5389   */\n      add\n        /* \"#utility.yul\":5365:5412   */\n      mstore\n        /* \"#utility.yul\":5429:5507   */\n      tag_305\n        /* \"#utility.yul\":5502:5506   */\n      dup2\n        /* \"#utility.yul\":5493:5499   */\n      dup10\n        /* \"#utility.yul\":5429:5507   */\n      tag_175\n      jump\t// in\n    tag_305:\n        /* \"#utility.yul\":5421:5507   */\n      swap1\n      pop\n        /* \"#utility.yul\":5554:5563   */\n      dup2\n        /* \"#utility.yul\":5548:5552   */\n      dup2\n        /* \"#utility.yul\":5544:5564   */\n      sub\n        /* \"#utility.yul\":5539:5541   */\n      0x20\n        /* \"#utility.yul\":5528:5537   */\n      dup4\n        /* \"#utility.yul\":5524:5542   */\n      add\n        /* \"#utility.yul\":5517:5565   */\n      mstore\n        /* \"#utility.yul\":5582:5710   */\n      tag_306\n        /* \"#utility.yul\":5705:5709   */\n      dup2\n        /* \"#utility.yul\":5696:5702   */\n      dup9\n        /* \"#utility.yul\":5582:5710   */\n      tag_183\n      jump\t// in\n    tag_306:\n        /* \"#utility.yul\":5574:5710   */\n      swap1\n      pop\n        /* \"#utility.yul\":5720:5792   */\n      tag_307\n        /* \"#utility.yul\":5788:5790   */\n      0x40\n        /* \"#utility.yul\":5777:5786   */\n      dup4\n        /* \"#utility.yul\":5773:5791   */\n      add\n        /* \"#utility.yul\":5764:5770   */\n      dup8\n        /* \"#utility.yul\":5720:5792   */\n      tag_186\n      jump\t// in\n    tag_307:\n        /* \"#utility.yul\":5802:5874   */\n      tag_308\n        /* \"#utility.yul\":5870:5872   */\n      0x60\n        /* \"#utility.yul\":5859:5868   */\n      dup4\n        /* \"#utility.yul\":5855:5873   */\n      add\n        /* \"#utility.yul\":5846:5852   */\n      dup7\n        /* \"#utility.yul\":5802:5874   */\n      tag_187\n      jump\t// in\n    tag_308:\n        /* \"#utility.yul\":5884:5957   */\n      tag_309\n        /* \"#utility.yul\":5952:5955   */\n      0x80\n        /* \"#utility.yul\":5941:5950   */\n      dup4\n        /* \"#utility.yul\":5937:5956   */\n      add\n        /* \"#utility.yul\":5928:5934   */\n      dup6\n        /* \"#utility.yul\":5884:5957   */\n      tag_187\n      jump\t// in\n    tag_309:\n        /* \"#utility.yul\":5967:6034   */\n      tag_310\n        /* \"#utility.yul\":6029:6032   */\n      0xa0\n        /* \"#utility.yul\":6018:6027   */\n      dup4\n        /* \"#utility.yul\":6014:6033   */\n      add\n        /* \"#utility.yul\":6005:6011   */\n      dup5\n        /* \"#utility.yul\":5967:6034   */\n      tag_189\n      jump\t// in\n    tag_310:\n        /* \"#utility.yul\":4996:6041   */\n      swap8\n      swap7\n      pop\n      pop\n      pop\n      pop\n      pop\n      pop\n      pop\n      jump\t// out\n        /* \"#utility.yul\":6047:6161   */\n    tag_190:\n        /* \"#utility.yul\":6114:6120   */\n      0x00\n        /* \"#utility.yul\":6148:6153   */\n      dup2\n        /* \"#utility.yul\":6142:6154   */\n      mload\n        /* \"#utility.yul\":6132:6154   */\n      swap1\n      pop\n        /* \"#utility.yul\":6047:6161   */\n      swap2\n      swap1\n      pop\n      jump\t// out\n        /* \"#utility.yul\":6167:6351   */\n    tag_191:\n        /* \"#utility.yul\":6266:6277   */\n      0x00\n        /* \"#utility.yul\":6300:6306   */\n      dup3\n        /* \"#utility.yul\":6295:6298   */\n      dup3\n        /* \"#utility.yul\":6288:6307   */\n      mstore\n        /* \"#utility.yul\":6340:6344   */\n      0x20\n        /* \"#utility.yul\":6335:6338   */\n      dup3\n        /* \"#utility.yul\":6331:6345   */\n      add\n        /* \"#utility.yul\":6316:6345   */\n      swap1\n      pop\n        /* \"#utility.yul\":6167:6351   */\n      swap3\n      swap2\n      pop\n      pop\n      jump\t// out\n        /* \"#utility.yul\":6357:6489   */\n    tag_192:\n        /* \"#utility.yul\":6424:6428   */\n      0x00\n        /* \"#utility.yul\":6447:6450   */\n      dup2\n        /* \"#utility.yul\":6439:6450   */\n      swap1\n      pop\n        /* \"#utility.yul\":6477:6481   */\n      0x20\n        /* \"#utility.yul\":6472:6475   */\n      dup3\n        /* \"#utility.yul\":6468:6482   */\n      add\n        /* \"#utility.yul\":6460:6482   */\n      swap1\n      pop\n        /* \"#utility.yul\":6357:6489   */\n      swap2\n      swap1\n      pop\n      jump\t// out\n        /* \"#utility.yul\":6495:6603   */\n    tag_193:\n        /* \"#utility.yul\":6572:6596   */\n      tag_315\n        /* \"#utility.yul\":6590:6595   */\n      dup2\n        /* \"#utility.yul\":6572:6596   */\n      tag_168\n      jump\t// in\n    tag_315:\n        /* \"#utility.yul\":6567:6570   */\n      dup3\n        /* \"#utility.yul\":6560:6597   */\n      mstore\n        /* \"#utility.yul\":6495:6603   */\n      pop\n      pop\n      jump\t// out\n        /* \"#utility.yul\":6609:6788   */\n    tag_194:\n        /* \"#utility.yul\":6678:6688   */\n      0x00\n        /* \"#utility.yul\":6699:6745   */\n      tag_317\n        /* \"#utility.yul\":6741:6744   */\n      dup4\n        /* \"#utility.yul\":6733:6739   */\n      dup4\n        /* \"#utility.yul\":6699:6745   */\n      tag_193\n      jump\t// in\n    tag_317:\n        /* \"#utility.yul\":6777:6781   */\n      0x20\n        /* \"#utility.yul\":6772:6775   */\n      dup4\n        /* \"#utility.yul\":6768:6782   */\n      add\n        /* \"#utility.yul\":6754:6782   */\n      swap1\n      pop\n        /* \"#utility.yul\":6609:6788   */\n      swap3\n      swap2\n      pop\n      pop\n      jump\t// out\n        /* \"#utility.yul\":6794:6907   */\n    tag_195:\n        /* \"#utility.yul\":6864:6868   */\n      0x00\n        /* \"#utility.yul\":6896:6900   */\n      0x20\n        /* \"#utility.yul\":6891:6894   */\n      dup3\n        /* \"#utility.yul\":6887:6901   */\n      add\n        /* \"#utility.yul\":6879:6901   */\n      swap1\n      pop\n        /* \"#utility.yul\":6794:6907   */\n      swap2\n      swap1\n      pop\n      jump\t// out\n        /* \"#utility.yul\":6943:7675   */\n    tag_196:\n        /* \"#utility.yul\":7062:7065   */\n      0x00\n        /* \"#utility.yul\":7091:7145   */\n      tag_320\n        /* \"#utility.yul\":7139:7144   */\n      dup3\n        /* \"#utility.yul\":7091:7145   */\n      tag_190\n      jump\t// in\n    tag_320:\n        /* \"#utility.yul\":7161:7247   */\n      tag_321\n        /* \"#utility.yul\":7240:7246   */\n      dup2\n        /* \"#utility.yul\":7235:7238   */\n      dup6\n        /* \"#utility.yul\":7161:7247   */\n      tag_191\n      jump\t// in\n    tag_321:\n        /* \"#utility.yul\":7154:7247   */\n      swap4\n      pop\n        /* \"#utility.yul\":7271:7327   */\n      tag_322\n        /* \"#utility.yul\":7321:7326   */\n      dup4\n        /* \"#utility.yul\":7271:7327   */\n      tag_192\n      jump\t// in\n    tag_322:\n        /* \"#utility.yul\":7350:7357   */\n      dup1\n        /* \"#utility.yul\":7381:7382   */\n      0x00\n        /* \"#utility.yul\":7366:7650   */\n    tag_323:\n        /* \"#utility.yul\":7391:7397   */\n      dup4\n        /* \"#utility.yul\":7388:7389   */\n      dup2\n        /* \"#utility.yul\":7385:7398   */\n      lt\n        /* \"#utility.yul\":7366:7650   */\n      iszero\n      tag_325\n      jumpi\n        /* \"#utility.yul\":7467:7473   */\n      dup2\n        /* \"#utility.yul\":7461:7474   */\n      mload\n        /* \"#utility.yul\":7494:7557   */\n      tag_326\n        /* \"#utility.yul\":7553:7556   */\n      dup9\n        /* \"#utility.yul\":7538:7551   */\n      dup3\n        /* \"#utility.yul\":7494:7557   */\n      tag_194\n      jump\t// in\n    tag_326:\n        /* \"#utility.yul\":7487:7557   */\n      swap8\n      pop\n        /* \"#utility.yul\":7580:7640   */\n      tag_327\n        /* \"#utility.yul\":7633:7639   */\n      dup4\n        /* \"#utility.yul\":7580:7640   */\n      tag_195\n      jump\t// in\n    tag_327:\n        /* \"#utility.yul\":7570:7640   */\n      swap3\n      pop\n        /* \"#utility.yul\":7426:7650   */\n      pop\n        /* \"#utility.yul\":7413:7414   */\n      0x01\n        /* \"#utility.yul\":7410:7411   */\n      dup2\n        /* \"#utility.yul\":7406:7415   */\n      add\n        /* \"#utility.yul\":7401:7415   */\n      swap1\n      pop\n        /* \"#utility.yul\":7366:7650   */\n      jump(tag_323)\n    tag_325:\n        /* \"#utility.yul\":7370:7384   */\n      pop\n        /* \"#utility.yul\":7666:7669   */\n      dup6\n        /* \"#utility.yul\":7659:7669   */\n      swap4\n      pop\n        /* \"#utility.yul\":7067:7675   */\n      pop\n      pop\n      pop\n        /* \"#utility.yul\":6943:7675   */\n      swap3\n      swap2\n      pop\n      pop\n      jump\t// out\n        /* \"#utility.yul\":7681:8054   */\n    tag_24:\n        /* \"#utility.yul\":7824:7828   */\n      0x00\n        /* \"#utility.yul\":7862:7864   */\n      0x20\n        /* \"#utility.yul\":7851:7860   */\n      dup3\n        /* \"#utility.yul\":7847:7865   */\n      add\n        /* \"#utility.yul\":7839:7865   */\n      swap1\n      pop\n        /* \"#utility.yul\":7911:7920   */\n      dup2\n        /* \"#utility.yul\":7905:7909   */\n      dup2\n        /* \"#utility.yul\":7901:7921   */\n      sub\n        /* \"#utility.yul\":7897:7898   */\n      0x00\n        /* \"#utility.yul\":7886:7895   */\n      dup4\n        /* \"#utility.yul\":7882:7899   */\n      add\n        /* \"#utility.yul\":7875:7922   */\n      mstore\n        /* \"#utility.yul\":7939:8047   */\n      tag_329\n        /* \"#utility.yul\":8042:8046   */\n      dup2\n        /* \"#utility.yul\":8033:8039   */\n      dup5\n        /* \"#utility.yul\":7939:8047   */\n      tag_196\n      jump\t// in\n    tag_329:\n        /* \"#utility.yul\":7931:8047   */\n      swap1\n      pop\n        /* \"#utility.yul\":7681:8054   */\n      swap3\n      swap2\n      pop\n      pop\n      jump\t// out\n        /* \"#utility.yul\":8060:8182   */\n    tag_197:\n        /* \"#utility.yul\":8133:8157   */\n      tag_331\n        /* \"#utility.yul\":8151:8156   */\n      dup2\n        /* \"#utility.yul\":8133:8157   */\n      tag_185\n      jump\t// in\n    tag_331:\n        /* \"#utility.yul\":8126:8131   */\n      dup2\n        /* \"#utility.yul\":8123:8158   */\n      eq\n        /* \"#utility.yul\":8113:8176   */\n      tag_332\n      jumpi\n        /* \"#utility.yul\":8172:8173   */\n      0x00\n        /* \"#utility.yul\":8169:8170   */\n      0x00\n        /* \"#utility.yul\":8162:8174   */\n      revert\n        /* \"#utility.yul\":8113:8176   */\n    tag_332:\n        /* \"#utility.yul\":8060:8182   */\n      pop\n      jump\t// out\n        /* \"#utility.yul\":8188:8327   */\n    tag_198:\n        /* \"#utility.yul\":8234:8239   */\n      0x00\n        /* \"#utility.yul\":8272:8278   */\n      dup2\n        /* \"#utility.yul\":8259:8279   */\n      calldataload\n        /* \"#utility.yul\":8250:8279   */\n      swap1\n      pop\n        /* \"#utility.yul\":8288:8321   */\n      tag_334\n        /* \"#utility.yul\":8315:8320   */\n      dup2\n        /* \"#utility.yul\":8288:8321   */\n      tag_197\n      jump\t// in\n    tag_334:\n        /* \"#utility.yul\":8188:8327   */\n      swap3\n      swap2\n      pop\n      pop\n      jump\t// out\n        /* \"#utility.yul\":8333:8807   */\n    tag_27:\n        /* \"#utility.yul\":8401:8407   */\n      0x00\n        /* \"#utility.yul\":8409:8415   */\n      0x00\n        /* \"#utility.yul\":8458:8460   */\n      0x40\n        /* \"#utility.yul\":8446:8455   */\n      dup4\n        /* \"#utility.yul\":8437:8444   */\n      dup6\n        /* \"#utility.yul\":8433:8456   */\n      sub\n        /* \"#utility.yul\":8429:8461   */\n      slt\n        /* \"#utility.yul\":8426:8545   */\n      iszero\n      tag_336\n      jumpi\n        /* \"#utility.yul\":8464:8543   */\n      tag_337\n      tag_166\n      jump\t// in\n    tag_337:\n        /* \"#utility.yul\":8426:8545   */\n    tag_336:\n        /* \"#utility.yul\":8584:8585   */\n      0x00\n        /* \"#utility.yul\":8609:8662   */\n      tag_338\n        /* \"#utility.yul\":8654:8661   */\n      dup6\n        /* \"#utility.yul\":8645:8651   */\n      dup3\n        /* \"#utility.yul\":8634:8643   */\n      dup7\n        /* \"#utility.yul\":8630:8652   */\n      add\n        /* \"#utility.yul\":8609:8662   */\n      tag_170\n      jump\t// in\n    tag_338:\n        /* \"#utility.yul\":8599:8662   */\n      swap3\n      pop\n        /* \"#utility.yul\":8555:8672   */\n      pop\n        /* \"#utility.yul\":8711:8713   */\n      0x20\n        /* \"#utility.yul\":8737:8790   */\n      tag_339\n        /* \"#utility.yul\":8782:8789   */\n      dup6\n        /* \"#utility.yul\":8773:8779   */\n      dup3\n        /* \"#utility.yul\":8762:8771   */\n      dup7\n        /* \"#utility.yul\":8758:8780   */\n      add\n        /* \"#utility.yul\":8737:8790   */\n      tag_198\n      jump\t// in\n    tag_339:\n        /* \"#utility.yul\":8727:8790   */\n      swap2\n      pop\n        /* \"#utility.yul\":8682:8800   */\n      pop\n        /* \"#utility.yul\":8333:8807   */\n      swap3\n      pop\n      swap3\n      swap1\n      pop\n      jump\t// out\n        /* \"#utility.yul\":8813:9023   */\n    tag_30:\n        /* \"#utility.yul\":8900:8904   */\n      0x00\n        /* \"#utility.yul\":8938:8940   */\n      0x20\n        /* \"#utility.yul\":8927:8936   */\n      dup3\n        /* \"#utility.yul\":8923:8941   */\n      add\n        /* \"#utility.yul\":8915:8941   */\n      swap1\n      pop\n        /* \"#utility.yul\":8951:9016   */\n      tag_341\n        /* \"#utility.yul\":9013:9014   */\n      0x00\n        /* \"#utility.yul\":9002:9011   */\n      dup4\n        /* \"#utility.yul\":8998:9015   */\n      add\n        /* \"#utility.yul\":8989:8995   */\n      dup5\n        /* \"#utility.yul\":8951:9016   */\n      tag_189\n      jump\t// in\n    tag_341:\n        /* \"#utility.yul\":8813:9023   */\n      swap3\n      swap2\n      pop\n      pop\n      jump\t// out\n        /* \"#utility.yul\":9029:9251   */\n    tag_34:\n        /* \"#utility.yul\":9122:9126   */\n      0x00\n        /* \"#utility.yul\":9160:9162   */\n      0x20\n        /* \"#utility.yul\":9149:9158   */\n      dup3\n        /* \"#utility.yul\":9145:9163   */\n      add\n        /* \"#utility.yul\":9137:9163   */\n      swap1\n      pop\n        /* \"#utility.yul\":9173:9244   */\n      tag_343\n        /* \"#utility.yul\":9241:9242   */\n      0x00\n        /* \"#utility.yul\":9230:9239   */\n      dup4\n        /* \"#utility.yul\":9226:9243   */\n      add\n        /* \"#utility.yul\":9217:9223   */\n      dup5\n        /* \"#utility.yul\":9173:9244   */\n      tag_187\n      jump\t// in\n    tag_343:\n        /* \"#utility.yul\":9029:9251   */\n      swap3\n      swap2\n      pop\n      pop\n      jump\t// out\n        /* \"#utility.yul\":9257:10111   */\n    tag_45:\n        /* \"#utility.yul\":9504:9508   */\n      0x00\n        /* \"#utility.yul\":9542:9545   */\n      0xc0\n        /* \"#utility.yul\":9531:9540   */\n      dup3\n        /* \"#utility.yul\":9527:9546   */\n      add\n        /* \"#utility.yul\":9519:9546   */\n      swap1\n      pop\n        /* \"#utility.yul\":9556:9627   */\n      tag_345\n        /* \"#utility.yul\":9624:9625   */\n      0x00\n        /* \"#utility.yul\":9613:9622   */\n      dup4\n        /* \"#utility.yul\":9609:9626   */\n      add\n        /* \"#utility.yul\":9600:9606   */\n      dup10\n        /* \"#utility.yul\":9556:9627   */\n      tag_187\n      jump\t// in\n    tag_345:\n        /* \"#utility.yul\":9674:9683   */\n      dup2\n        /* \"#utility.yul\":9668:9672   */\n      dup2\n        /* \"#utility.yul\":9664:9684   */\n      sub\n        /* \"#utility.yul\":9659:9661   */\n      0x20\n        /* \"#utility.yul\":9648:9657   */\n      dup4\n        /* \"#utility.yul\":9644:9662   */\n      add\n        /* \"#utility.yul\":9637:9685   */\n      mstore\n        /* \"#utility.yul\":9702:9780   */\n      tag_346\n        /* \"#utility.yul\":9775:9779   */\n      dup2\n        /* \"#utility.yul\":9766:9772   */\n      dup9\n        /* \"#utility.yul\":9702:9780   */\n      tag_175\n      jump\t// in\n    tag_346:\n        /* \"#utility.yul\":9694:9780   */\n      swap1\n      pop\n        /* \"#utility.yul\":9790:9862   */\n      tag_347\n        /* \"#utility.yul\":9858:9860   */\n      0x40\n        /* \"#utility.yul\":9847:9856   */\n      dup4\n        /* \"#utility.yul\":9843:9861   */\n      add\n        /* \"#utility.yul\":9834:9840   */\n      dup8\n        /* \"#utility.yul\":9790:9862   */\n      tag_186\n      jump\t// in\n    tag_347:\n        /* \"#utility.yul\":9872:9944   */\n      tag_348\n        /* \"#utility.yul\":9940:9942   */\n      0x60\n        /* \"#utility.yul\":9929:9938   */\n      dup4\n        /* \"#utility.yul\":9925:9943   */\n      add\n        /* \"#utility.yul\":9916:9922   */\n      dup7\n        /* \"#utility.yul\":9872:9944   */\n      tag_187\n      jump\t// in\n    tag_348:\n        /* \"#utility.yul\":9954:10027   */\n      tag_349\n        /* \"#utility.yul\":10022:10025   */\n      0x80\n        /* \"#utility.yul\":10011:10020   */\n      dup4\n        /* \"#utility.yul\":10007:10026   */\n      add\n        /* \"#utility.yul\":9998:10004   */\n      dup6\n        /* \"#utility.yul\":9954:10027   */\n      tag_187\n      jump\t// in\n    tag_349:\n        /* \"#utility.yul\":10037:10104   */\n      tag_350\n        /* \"#utility.yul\":10099:10102   */\n      0xa0\n        /* \"#utility.yul\":10088:10097   */\n      dup4\n        /* \"#utility.yul\":10084:10103   */\n      add\n        /* \"#utility.yul\":10075:10081   */\n      dup5\n        /* \"#utility.yul\":10037:10104   */\n      tag_189\n      jump\t// in\n    tag_350:\n        /* \"#utility.yul\":9257:10111   */\n      swap8\n      swap7\n      pop\n      pop\n      pop\n      pop\n      pop\n      pop\n      pop\n      jump\t// out\n        /* \"#utility.yul\":10117:10591   */\n    tag_48:\n        /* \"#utility.yul\":10185:10191   */\n      0x00\n        /* \"#utility.yul\":10193:10199   */\n      0x00\n        /* \"#utility.yul\":10242:10244   */\n      0x40\n        /* \"#utility.yul\":10230:10239   */\n      dup4\n        /* \"#utility.yul\":10221:10228   */\n      dup6\n        /* \"#utility.yul\":10217:10240   */\n      sub\n        /* \"#utility.yul\":10213:10245   */\n      slt\n        /* \"#utility.yul\":10210:10329   */\n      iszero\n      tag_352\n      jumpi\n        /* \"#utility.yul\":10248:10327   */\n      tag_353\n      tag_166\n      jump\t// in\n    tag_353:\n        /* \"#utility.yul\":10210:10329   */\n    tag_352:\n        /* \"#utility.yul\":10368:10369   */\n      0x00\n        /* \"#utility.yul\":10393:10446   */\n      tag_354\n        /* \"#utility.yul\":10438:10445   */\n      dup6\n        /* \"#utility.yul\":10429:10435   */\n      dup3\n        /* \"#utility.yul\":10418:10427   */\n      dup7\n        /* \"#utility.yul\":10414:10436   */\n      add\n        /* \"#utility.yul\":10393:10446   */\n      tag_170\n      jump\t// in\n    tag_354:\n        /* \"#utility.yul\":10383:10446   */\n      swap3\n      pop\n        /* \"#utility.yul\":10339:10456   */\n      pop\n        /* \"#utility.yul\":10495:10497   */\n      0x20\n        /* \"#utility.yul\":10521:10574   */\n      tag_355\n        /* \"#utility.yul\":10566:10573   */\n      dup6\n        /* \"#utility.yul\":10557:10563   */\n      dup3\n        /* \"#utility.yul\":10546:10555   */\n      dup7\n        /* \"#utility.yul\":10542:10564   */\n      add\n        /* \"#utility.yul\":10521:10574   */\n      tag_170\n      jump\t// in\n    tag_355:\n        /* \"#utility.yul\":10511:10574   */\n      swap2\n      pop\n        /* \"#utility.yul\":10466:10584   */\n      pop\n        /* \"#utility.yul\":10117:10591   */\n      swap3\n      pop\n      swap3\n      swap1\n      pop\n      jump\t// out\n        /* \"#utility.yul\":10597:10714   */\n    tag_199:\n        /* \"#utility.yul\":10706:10707   */\n      0x00\n        /* \"#utility.yul\":10703:10704   */\n      0x00\n        /* \"#utility.yul\":10696:10708   */\n      revert\n        /* \"#utility.yul\":10720:10837   */\n    tag_200:\n        /* \"#utility.yul\":10829:10830   */\n      0x00\n        /* \"#utility.yul\":10826:10827   */\n      0x00\n        /* \"#utility.yul\":10819:10831   */\n      revert\n        /* \"#utility.yul\":10843:11023   */\n    tag_85:\n        /* \"#utility.yul\":10891:10968   */\n      0x4e487b7100000000000000000000000000000000000000000000000000000000\n        /* \"#utility.yul\":10888:10889   */\n      0x00\n        /* \"#utility.yul\":10881:10969   */\n      mstore\n        /* \"#utility.yul\":10988:10992   */\n      0x41\n        /* \"#utility.yul\":10985:10986   */\n      0x04\n        /* \"#utility.yul\":10978:10993   */\n      mstore\n        /* \"#utility.yul\":11012:11016   */\n      0x24\n        /* \"#utility.yul\":11009:11010   */\n      0x00\n        /* \"#utility.yul\":11002:11017   */\n      revert\n        /* \"#utility.yul\":11029:11310   */\n    tag_201:\n        /* \"#utility.yul\":11112:11139   */\n      tag_360\n        /* \"#utility.yul\":11134:11138   */\n      dup3\n        /* \"#utility.yul\":11112:11139   */\n      tag_174\n      jump\t// in\n    tag_360:\n        /* \"#utility.yul\":11104:11110   */\n      dup2\n        /* \"#utility.yul\":11100:11140   */\n      add\n        /* \"#utility.yul\":11242:11248   */\n      dup2\n        /* \"#utility.yul\":11230:11240   */\n      dup2\n        /* \"#utility.yul\":11227:11249   */\n      lt\n        /* \"#utility.yul\":11206:11224   */\n      0xffffffffffffffff\n        /* \"#utility.yul\":11194:11204   */\n      dup3\n        /* \"#utility.yul\":11191:11225   */\n      gt\n        /* \"#utility.yul\":11188:11250   */\n      or\n        /* \"#utility.yul\":11185:11273   */\n      iszero\n      tag_361\n      jumpi\n        /* \"#utility.yul\":11253:11271   */\n      tag_362\n      tag_85\n      jump\t// in\n    tag_362:\n        /* \"#utility.yul\":11185:11273   */\n    tag_361:\n        /* \"#utility.yul\":11293:11303   */\n      dup1\n        /* \"#utility.yul\":11289:11291   */\n      0x40\n        /* \"#utility.yul\":11282:11304   */\n      mstore\n        /* \"#utility.yul\":11072:11310   */\n      pop\n        /* \"#utility.yul\":11029:11310   */\n      pop\n      pop\n      jump\t// out\n        /* \"#utility.yul\":11316:11445   */\n    tag_202:\n        /* \"#utility.yul\":11350:11356   */\n      0x00\n        /* \"#utility.yul\":11377:11397   */\n      tag_364\n      tag_165\n      jump\t// in\n    tag_364:\n        /* \"#utility.yul\":11367:11397   */\n      swap1\n      pop\n        /* \"#utility.yul\":11406:11439   */\n      tag_365\n        /* \"#utility.yul\":11434:11438   */\n      dup3\n        /* \"#utility.yul\":11426:11432   */\n      dup3\n        /* \"#utility.yul\":11406:11439   */\n      tag_201\n      jump\t// in\n    tag_365:\n        /* \"#utility.yul\":11316:11445   */\n      swap2\n      swap1\n      pop\n      jump\t// out\n        /* \"#utility.yul\":11451:11759   */\n    tag_203:\n        /* \"#utility.yul\":11513:11517   */\n      0x00\n        /* \"#utility.yul\":11603:11621   */\n      0xffffffffffffffff\n        /* \"#utility.yul\":11595:11601   */\n      dup3\n        /* \"#utility.yul\":11592:11622   */\n      gt\n        /* \"#utility.yul\":11589:11645   */\n      iszero\n      tag_367\n      jumpi\n        /* \"#utility.yul\":11625:11643   */\n      tag_368\n      tag_85\n      jump\t// in\n    tag_368:\n        /* \"#utility.yul\":11589:11645   */\n    tag_367:\n        /* \"#utility.yul\":11663:11692   */\n      tag_369\n        /* \"#utility.yul\":11685:11691   */\n      dup3\n        /* \"#utility.yul\":11663:11692   */\n      tag_174\n      jump\t// in\n    tag_369:\n        /* \"#utility.yul\":11655:11692   */\n      swap1\n      pop\n        /* \"#utility.yul\":11747:11751   */\n      0x20\n        /* \"#utility.yul\":11741:11745   */\n      dup2\n        /* \"#utility.yul\":11737:11752   */\n      add\n        /* \"#utility.yul\":11729:11752   */\n      swap1\n      pop\n        /* \"#utility.yul\":11451:11759   */\n      swap2\n      swap1\n      pop\n      jump\t// out\n        /* \"#utility.yul\":11765:11913   */\n    tag_204:\n        /* \"#utility.yul\":11863:11869   */\n      dup3\n        /* \"#utility.yul\":11858:11861   */\n      dup2\n        /* \"#utility.yul\":11853:11856   */\n      dup4\n        /* \"#utility.yul\":11840:11870   */\n      calldatacopy\n        /* \"#utility.yul\":11904:11905   */\n      0x00\n        /* \"#utility.yul\":11895:11901   */\n      dup4\n        /* \"#utility.yul\":11890:11893   */\n      dup4\n        /* \"#utility.yul\":11886:11902   */\n      add\n        /* \"#utility.yul\":11879:11906   */\n      mstore\n        /* \"#utility.yul\":11765:11913   */\n      pop\n      pop\n      pop\n      jump\t// out\n        /* \"#utility.yul\":11919:12344   */\n    tag_205:\n        /* \"#utility.yul\":11997:12002   */\n      0x00\n        /* \"#utility.yul\":12022:12088   */\n      tag_372\n        /* \"#utility.yul\":12038:12087   */\n      tag_373\n        /* \"#utility.yul\":12080:12086   */\n      dup5\n        /* \"#utility.yul\":12038:12087   */\n      tag_203\n      jump\t// in\n    tag_373:\n        /* \"#utility.yul\":12022:12088   */\n      tag_202\n      jump\t// in\n    tag_372:\n        /* \"#utility.yul\":12013:12088   */\n      swap1\n      pop\n        /* \"#utility.yul\":12111:12117   */\n      dup3\n        /* \"#utility.yul\":12104:12109   */\n      dup2\n        /* \"#utility.yul\":12097:12118   */\n      mstore\n        /* \"#utility.yul\":12149:12153   */\n      0x20\n        /* \"#utility.yul\":12142:12147   */\n      dup2\n        /* \"#utility.yul\":12138:12154   */\n      add\n        /* \"#utility.yul\":12187:12190   */\n      dup5\n        /* \"#utility.yul\":12178:12184   */\n      dup5\n        /* \"#utility.yul\":12173:12176   */\n      dup5\n        /* \"#utility.yul\":12169:12185   */\n      add\n        /* \"#utility.yul\":12166:12191   */\n      gt\n        /* \"#utility.yul\":12163:12275   */\n      iszero\n      tag_374\n      jumpi\n        /* \"#utility.yul\":12194:12273   */\n      tag_375\n      tag_200\n      jump\t// in\n    tag_375:\n        /* \"#utility.yul\":12163:12275   */\n    tag_374:\n        /* \"#utility.yul\":12284:12338   */\n      tag_376\n        /* \"#utility.yul\":12331:12337   */\n      dup5\n        /* \"#utility.yul\":12326:12329   */\n      dup3\n        /* \"#utility.yul\":12321:12324   */\n      dup6\n        /* \"#utility.yul\":12284:12338   */\n      tag_204\n      jump\t// in\n    tag_376:\n        /* \"#utility.yul\":12003:12344   */\n      pop\n        /* \"#utility.yul\":11919:12344   */\n      swap4\n      swap3\n      pop\n      pop\n      pop\n      jump\t// out\n        /* \"#utility.yul\":12364:12704   */\n    tag_206:\n        /* \"#utility.yul\":12420:12425   */\n      0x00\n        /* \"#utility.yul\":12469:12472   */\n      dup3\n        /* \"#utility.yul\":12462:12466   */\n      0x1f\n        /* \"#utility.yul\":12454:12460   */\n      dup4\n        /* \"#utility.yul\":12450:12467   */\n      add\n        /* \"#utility.yul\":12446:12473   */\n      slt\n        /* \"#utility.yul\":12436:12558   */\n      tag_378\n      jumpi\n        /* \"#utility.yul\":12477:12556   */\n      tag_379\n      tag_199\n      jump\t// in\n    tag_379:\n        /* \"#utility.yul\":12436:12558   */\n    tag_378:\n        /* \"#utility.yul\":12594:12600   */\n      dup2\n        /* \"#utility.yul\":12581:12601   */\n      calldataload\n        /* \"#utility.yul\":12619:12698   */\n      tag_380\n        /* \"#utility.yul\":12694:12697   */\n      dup5\n        /* \"#utility.yul\":12686:12692   */\n      dup3\n        /* \"#utility.yul\":12679:12683   */\n      0x20\n        /* \"#utility.yul\":12671:12677   */\n      dup7\n        /* \"#utility.yul\":12667:12684   */\n      add\n        /* \"#utility.yul\":12619:12698   */\n      tag_205\n      jump\t// in\n    tag_380:\n        /* \"#utility.yul\":12610:12698   */\n      swap2\n      pop\n        /* \"#utility.yul\":12426:12704   */\n      pop\n        /* \"#utility.yul\":12364:12704   */\n      swap3\n      swap2\n      pop\n      pop\n      jump\t// out\n        /* \"#utility.yul\":12710:13031   */\n    tag_207:\n        /* \"#utility.yul\":12797:12801   */\n      0x00\n        /* \"#utility.yul\":12887:12905   */\n      0xffffffffffffffff\n        /* \"#utility.yul\":12879:12885   */\n      dup3\n        /* \"#utility.yul\":12876:12906   */\n      gt\n        /* \"#utility.yul\":12873:12929   */\n      iszero\n      tag_382\n      jumpi\n        /* \"#utility.yul\":12909:12927   */\n      tag_383\n      tag_85\n      jump\t// in\n    tag_383:\n        /* \"#utility.yul\":12873:12929   */\n    tag_382:\n        /* \"#utility.yul\":12959:12963   */\n      0x20\n        /* \"#utility.yul\":12951:12957   */\n      dup3\n        /* \"#utility.yul\":12947:12964   */\n      mul\n        /* \"#utility.yul\":12939:12964   */\n      swap1\n      pop\n        /* \"#utility.yul\":13019:13023   */\n      0x20\n        /* \"#utility.yul\":13013:13017   */\n      dup2\n        /* \"#utility.yul\":13009:13024   */\n      add\n        /* \"#utility.yul\":13001:13024   */\n      swap1\n      pop\n        /* \"#utility.yul\":12710:13031   */\n      swap2\n      swap1\n      pop\n      jump\t// out\n        /* \"#utility.yul\":13037:13154   */\n    tag_208:\n        /* \"#utility.yul\":13146:13147   */\n      0x00\n        /* \"#utility.yul\":13143:13144   */\n      0x00\n        /* \"#utility.yul\":13136:13148   */\n      revert\n        /* \"#utility.yul\":13176:14121   */\n    tag_209:\n        /* \"#utility.yul\":13282:13287   */\n      0x00\n        /* \"#utility.yul\":13307:13398   */\n      tag_386\n        /* \"#utility.yul\":13323:13397   */\n      tag_387\n        /* \"#utility.yul\":13390:13396   */\n      dup5\n        /* \"#utility.yul\":13323:13397   */\n      tag_207\n      jump\t// in\n    tag_387:\n        /* \"#utility.yul\":13307:13398   */\n      tag_202\n      jump\t// in\n    tag_386:\n        /* \"#utility.yul\":13298:13398   */\n      swap1\n      pop\n        /* \"#utility.yul\":13418:13423   */\n      dup1\n        /* \"#utility.yul\":13447:13453   */\n      dup4\n        /* \"#utility.yul\":13440:13445   */\n      dup3\n        /* \"#utility.yul\":13433:13454   */\n      mstore\n        /* \"#utility.yul\":13481:13485   */\n      0x20\n        /* \"#utility.yul\":13474:13479   */\n      dup3\n        /* \"#utility.yul\":13470:13486   */\n      add\n        /* \"#utility.yul\":13463:13486   */\n      swap1\n      pop\n        /* \"#utility.yul\":13534:13538   */\n      0x20\n        /* \"#utility.yul\":13526:13532   */\n      dup5\n        /* \"#utility.yul\":13522:13539   */\n      mul\n        /* \"#utility.yul\":13514:13520   */\n      dup4\n        /* \"#utility.yul\":13510:13540   */\n      add\n        /* \"#utility.yul\":13563:13566   */\n      dup6\n        /* \"#utility.yul\":13555:13561   */\n      dup2\n        /* \"#utility.yul\":13552:13567   */\n      gt\n        /* \"#utility.yul\":13549:13671   */\n      iszero\n      tag_388\n      jumpi\n        /* \"#utility.yul\":13582:13661   */\n      tag_389\n      tag_208\n      jump\t// in\n    tag_389:\n        /* \"#utility.yul\":13549:13671   */\n    tag_388:\n        /* \"#utility.yul\":13697:13703   */\n      dup4\n        /* \"#utility.yul\":13680:14115   */\n    tag_390:\n        /* \"#utility.yul\":13714:13720   */\n      dup2\n        /* \"#utility.yul\":13709:13712   */\n      dup2\n        /* \"#utility.yul\":13706:13721   */\n      lt\n        /* \"#utility.yul\":13680:14115   */\n      iszero\n      tag_392\n      jumpi\n        /* \"#utility.yul\":13803:13806   */\n      dup1\n        /* \"#utility.yul\":13790:13807   */\n      calldataload\n        /* \"#utility.yul\":13839:13857   */\n      0xffffffffffffffff\n        /* \"#utility.yul\":13826:13837   */\n      dup2\n        /* \"#utility.yul\":13823:13858   */\n      gt\n        /* \"#utility.yul\":13820:13942   */\n      iszero\n      tag_393\n      jumpi\n        /* \"#utility.yul\":13861:13940   */\n      tag_394\n      tag_199\n      jump\t// in\n    tag_394:\n        /* \"#utility.yul\":13820:13942   */\n    tag_393:\n        /* \"#utility.yul\":13985:13996   */\n      dup1\n        /* \"#utility.yul\":13977:13983   */\n      dup7\n        /* \"#utility.yul\":13973:13997   */\n      add\n        /* \"#utility.yul\":14023:14070   */\n      tag_395\n        /* \"#utility.yul\":14066:14069   */\n      dup10\n        /* \"#utility.yul\":14054:14064   */\n      dup3\n        /* \"#utility.yul\":14023:14070   */\n      tag_206\n      jump\t// in\n    tag_395:\n        /* \"#utility.yul\":14018:14021   */\n      dup6\n        /* \"#utility.yul\":14011:14071   */\n      mstore\n        /* \"#utility.yul\":14100:14104   */\n      0x20\n        /* \"#utility.yul\":14095:14098   */\n      dup6\n        /* \"#utility.yul\":14091:14105   */\n      add\n        /* \"#utility.yul\":14084:14105   */\n      swap5\n      pop\n        /* \"#utility.yul\":13756:14115   */\n      pop\n      pop\n        /* \"#utility.yul\":13740:13744   */\n      0x20\n        /* \"#utility.yul\":13735:13738   */\n      dup2\n        /* \"#utility.yul\":13731:13745   */\n      add\n        /* \"#utility.yul\":13724:13745   */\n      swap1\n      pop\n        /* \"#utility.yul\":13680:14115   */\n      jump(tag_390)\n    tag_392:\n        /* \"#utility.yul\":13684:13705   */\n      pop\n        /* \"#utility.yul\":13288:14121   */\n      pop\n      pop\n        /* \"#utility.yul\":13176:14121   */\n      swap4\n      swap3\n      pop\n      pop\n      pop\n      jump\t// out\n        /* \"#utility.yul\":14143:14533   */\n    tag_210:\n        /* \"#utility.yul\":14224:14229   */\n      0x00\n        /* \"#utility.yul\":14273:14276   */\n      dup3\n        /* \"#utility.yul\":14266:14270   */\n      0x1f\n        /* \"#utility.yul\":14258:14264   */\n      dup4\n        /* \"#utility.yul\":14254:14271   */\n      add\n        /* \"#utility.yul\":14250:14277   */\n      slt\n        /* \"#utility.yul\":14240:14362   */\n      tag_397\n      jumpi\n        /* \"#utility.yul\":14281:14360   */\n      tag_398\n      tag_199\n      jump\t// in\n    tag_398:\n        /* \"#utility.yul\":14240:14362   */\n    tag_397:\n        /* \"#utility.yul\":14398:14404   */\n      dup2\n        /* \"#utility.yul\":14385:14405   */\n      calldataload\n        /* \"#utility.yul\":14423:14527   */\n      tag_399\n        /* \"#utility.yul\":14523:14526   */\n      dup5\n        /* \"#utility.yul\":14515:14521   */\n      dup3\n        /* \"#utility.yul\":14508:14512   */\n      0x20\n        /* \"#utility.yul\":14500:14506   */\n      dup7\n        /* \"#utility.yul\":14496:14513   */\n      add\n        /* \"#utility.yul\":14423:14527   */\n      tag_209\n      jump\t// in\n    tag_399:\n        /* \"#utility.yul\":14414:14527   */\n      swap2\n      pop\n        /* \"#utility.yul\":14230:14533   */\n      pop\n        /* \"#utility.yul\":14143:14533   */\n      swap3\n      swap2\n      pop\n      pop\n      jump\t// out\n        /* \"#utility.yul\":14539:15568   */\n    tag_55:\n        /* \"#utility.yul\":14661:14667   */\n      0x00\n        /* \"#utility.yul\":14669:14675   */\n      0x00\n        /* \"#utility.yul\":14677:14683   */\n      0x00\n        /* \"#utility.yul\":14726:14728   */\n      0x60\n        /* \"#utility.yul\":14714:14723   */\n      dup5\n        /* \"#utility.yul\":14705:14712   */\n      dup7\n        /* \"#utility.yul\":14701:14724   */\n      sub\n        /* \"#utility.yul\":14697:14729   */\n      slt\n        /* \"#utility.yul\":14694:14813   */\n      iszero\n      tag_401\n      jumpi\n        /* \"#utility.yul\":14732:14811   */\n      tag_402\n      tag_166\n      jump\t// in\n    tag_402:\n        /* \"#utility.yul\":14694:14813   */\n    tag_401:\n        /* \"#utility.yul\":14880:14881   */\n      0x00\n        /* \"#utility.yul\":14869:14878   */\n      dup5\n        /* \"#utility.yul\":14865:14882   */\n      add\n        /* \"#utility.yul\":14852:14883   */\n      calldataload\n        /* \"#utility.yul\":14910:14928   */\n      0xffffffffffffffff\n        /* \"#utility.yul\":14902:14908   */\n      dup2\n        /* \"#utility.yul\":14899:14929   */\n      gt\n        /* \"#utility.yul\":14896:15013   */\n      iszero\n      tag_403\n      jumpi\n        /* \"#utility.yul\":14932:15011   */\n      tag_404\n      tag_167\n      jump\t// in\n    tag_404:\n        /* \"#utility.yul\":14896:15013   */\n    tag_403:\n        /* \"#utility.yul\":15037:15100   */\n      tag_405\n        /* \"#utility.yul\":15092:15099   */\n      dup7\n        /* \"#utility.yul\":15083:15089   */\n      dup3\n        /* \"#utility.yul\":15072:15081   */\n      dup8\n        /* \"#utility.yul\":15068:15090   */\n      add\n        /* \"#utility.yul\":15037:15100   */\n      tag_206\n      jump\t// in\n    tag_405:\n        /* \"#utility.yul\":15027:15100   */\n      swap4\n      pop\n        /* \"#utility.yul\":14823:15110   */\n      pop\n        /* \"#utility.yul\":15177:15179   */\n      0x20\n        /* \"#utility.yul\":15166:15175   */\n      dup5\n        /* \"#utility.yul\":15162:15180   */\n      add\n        /* \"#utility.yul\":15149:15181   */\n      calldataload\n        /* \"#utility.yul\":15208:15226   */\n      0xffffffffffffffff\n        /* \"#utility.yul\":15200:15206   */\n      dup2\n        /* \"#utility.yul\":15197:15227   */\n      gt\n        /* \"#utility.yul\":15194:15311   */\n      iszero\n      tag_406\n      jumpi\n        /* \"#utility.yul\":15230:15309   */\n      tag_407\n      tag_167\n      jump\t// in\n    tag_407:\n        /* \"#utility.yul\":15194:15311   */\n    tag_406:\n        /* \"#utility.yul\":15335:15423   */\n      tag_408\n        /* \"#utility.yul\":15415:15422   */\n      dup7\n        /* \"#utility.yul\":15406:15412   */\n      dup3\n        /* \"#utility.yul\":15395:15404   */\n      dup8\n        /* \"#utility.yul\":15391:15413   */\n      add\n        /* \"#utility.yul\":15335:15423   */\n      tag_210\n      jump\t// in\n    tag_408:\n        /* \"#utility.yul\":15325:15423   */\n      swap3\n      pop\n        /* \"#utility.yul\":15120:15433   */\n      pop\n        /* \"#utility.yul\":15472:15474   */\n      0x40\n        /* \"#utility.yul\":15498:15551   */\n      tag_409\n        /* \"#utility.yul\":15543:15550   */\n      dup7\n        /* \"#utility.yul\":15534:15540   */\n      dup3\n        /* \"#utility.yul\":15523:15532   */\n      dup8\n        /* \"#utility.yul\":15519:15541   */\n      add\n        /* \"#utility.yul\":15498:15551   */\n      tag_170\n      jump\t// in\n    tag_409:\n        /* \"#utility.yul\":15488:15551   */\n      swap2\n      pop\n        /* \"#utility.yul\":15443:15561   */\n      pop\n        /* \"#utility.yul\":14539:15568   */\n      swap3\n      pop\n      swap3\n      pop\n      swap3\n      jump\t// out\n        /* \"#utility.yul\":15574:15743   */\n    tag_211:\n        /* \"#utility.yul\":15714:15735   */\n      0x506f6c6c20646f6573206e6f7420657869737400000000000000000000000000\n        /* \"#utility.yul\":15710:15711   */\n      0x00\n        /* \"#utility.yul\":15702:15708   */\n      dup3\n        /* \"#utility.yul\":15698:15712   */\n      add\n        /* \"#utility.yul\":15691:15736   */\n      mstore\n        /* \"#utility.yul\":15574:15743   */\n      pop\n      jump\t// out\n        /* \"#utility.yul\":15749:16115   */\n    tag_212:\n        /* \"#utility.yul\":15891:15894   */\n      0x00\n        /* \"#utility.yul\":15912:15979   */\n      tag_412\n        /* \"#utility.yul\":15976:15978   */\n      0x13\n        /* \"#utility.yul\":15971:15974   */\n      dup4\n        /* \"#utility.yul\":15912:15979   */\n      tag_172\n      jump\t// in\n    tag_412:\n        /* \"#utility.yul\":15905:15979   */\n      swap2\n      pop\n        /* \"#utility.yul\":15988:16081   */\n      tag_413\n        /* \"#utility.yul\":16077:16080   */\n      dup3\n        /* \"#utility.yul\":15988:16081   */\n      tag_211\n      jump\t// in\n    tag_413:\n        /* \"#utility.yul\":16106:16108   */\n      0x20\n        /* \"#utility.yul\":16101:16104   */\n      dup3\n        /* \"#utility.yul\":16097:16109   */\n      add\n        /* \"#utility.yul\":16090:16109   */\n      swap1\n      pop\n        /* \"#utility.yul\":15749:16115   */\n      swap2\n      swap1\n      pop\n      jump\t// out\n        /* \"#utility.yul\":16121:16540   */\n    tag_62:\n        /* \"#utility.yul\":16287:16291   */\n      0x00\n        /* \"#utility.yul\":16325:16327   */\n      0x20\n        /* \"#utility.yul\":16314:16323   */\n      dup3\n        /* \"#utility.yul\":16310:16328   */\n      add\n        /* \"#utility.yul\":16302:16328   */\n      swap1\n      pop\n        /* \"#utility.yul\":16374:16383   */\n      dup2\n        /* \"#utility.yul\":16368:16372   */\n      dup2\n        /* \"#utility.yul\":16364:16384   */\n      sub\n        /* \"#utility.yul\":16360:16361   */\n      0x00\n        /* \"#utility.yul\":16349:16358   */\n      dup4\n        /* \"#utility.yul\":16345:16362   */\n      add\n        /* \"#utility.yul\":16338:16385   */\n      mstore\n        /* \"#utility.yul\":16402:16533   */\n      tag_415\n        /* \"#utility.yul\":16528:16532   */\n      dup2\n        /* \"#utility.yul\":16402:16533   */\n      tag_212\n      jump\t// in\n    tag_415:\n        /* \"#utility.yul\":16394:16533   */\n      swap1\n      pop\n        /* \"#utility.yul\":16121:16540   */\n      swap2\n      swap1\n      pop\n      jump\t// out\n        /* \"#utility.yul\":16546:16726   */\n    tag_213:\n        /* \"#utility.yul\":16594:16671   */\n      0x4e487b7100000000000000000000000000000000000000000000000000000000\n        /* \"#utility.yul\":16591:16592   */\n      0x00\n        /* \"#utility.yul\":16584:16672   */\n      mstore\n        /* \"#utility.yul\":16691:16695   */\n      0x22\n        /* \"#utility.yul\":16688:16689   */\n      0x04\n        /* \"#utility.yul\":16681:16696   */\n      mstore\n        /* \"#utility.yul\":16715:16719   */\n      0x24\n        /* \"#utility.yul\":16712:16713   */\n      0x00\n        /* \"#utility.yul\":16705:16720   */\n      revert\n        /* \"#utility.yul\":16732:17052   */\n    tag_65:\n        /* \"#utility.yul\":16776:16782   */\n      0x00\n        /* \"#utility.yul\":16813:16814   */\n      0x02\n        /* \"#utility.yul\":16807:16811   */\n      dup3\n        /* \"#utility.yul\":16803:16815   */\n      div\n        /* \"#utility.yul\":16793:16815   */\n      swap1\n      pop\n        /* \"#utility.yul\":16860:16861   */\n      0x01\n        /* \"#utility.yul\":16854:16858   */\n      dup3\n        /* \"#utility.yul\":16850:16862   */\n      and\n        /* \"#utility.yul\":16881:16899   */\n      dup1\n        /* \"#utility.yul\":16871:16952   */\n      tag_418\n      jumpi\n        /* \"#utility.yul\":16937:16941   */\n      0x7f\n        /* \"#utility.yul\":16929:16935   */\n      dup3\n        /* \"#utility.yul\":16925:16942   */\n      and\n        /* \"#utility.yul\":16915:16942   */\n      swap2\n      pop\n        /* \"#utility.yul\":16871:16952   */\n    tag_418:\n        /* \"#utility.yul\":16999:17001   */\n      0x20\n        /* \"#utility.yul\":16991:16997   */\n      dup3\n        /* \"#utility.yul\":16988:17002   */\n      lt\n        /* \"#utility.yul\":16968:16986   */\n      dup2\n        /* \"#utility.yul\":16965:17003   */\n      sub\n        /* \"#utility.yul\":16962:17046   */\n      tag_419\n      jumpi\n        /* \"#utility.yul\":17018:17036   */\n      tag_420\n      tag_213\n      jump\t// in\n    tag_420:\n        /* \"#utility.yul\":16962:17046   */\n    tag_419:\n        /* \"#utility.yul\":16783:17052   */\n      pop\n        /* \"#utility.yul\":16732:17052   */\n      swap2\n      swap1\n      pop\n      jump\t// out\n        /* \"#utility.yul\":17058:17238   */\n    tag_92:\n        /* \"#utility.yul\":17106:17183   */\n      0x4e487b7100000000000000000000000000000000000000000000000000000000\n        /* \"#utility.yul\":17103:17104   */\n      0x00\n        /* \"#utility.yul\":17096:17184   */\n      mstore\n        /* \"#utility.yul\":17203:17207   */\n      0x32\n        /* \"#utility.yul\":17200:17201   */\n      0x04\n        /* \"#utility.yul\":17193:17208   */\n      mstore\n        /* \"#utility.yul\":17227:17231   */\n      0x24\n        /* \"#utility.yul\":17224:17225   */\n      0x00\n        /* \"#utility.yul\":17217:17232   */\n      revert\n        /* \"#utility.yul\":17244:17412   */\n    tag_214:\n        /* \"#utility.yul\":17384:17404   */\n      0x506f6c6c206973206e6f74206163746976650000000000000000000000000000\n        /* \"#utility.yul\":17380:17381   */\n      0x00\n        /* \"#utility.yul\":17372:17378   */\n      dup3\n        /* \"#utility.yul\":17368:17382   */\n      add\n        /* \"#utility.yul\":17361:17405   */\n      mstore\n        /* \"#utility.yul\":17244:17412   */\n      pop\n      jump\t// out\n        /* \"#utility.yul\":17418:17784   */\n    tag_215:\n        /* \"#utility.yul\":17560:17563   */\n      0x00\n        /* \"#utility.yul\":17581:17648   */\n      tag_424\n        /* \"#utility.yul\":17645:17647   */\n      0x12\n        /* \"#utility.yul\":17640:17643   */\n      dup4\n        /* \"#utility.yul\":17581:17648   */\n      tag_172\n      jump\t// in\n    tag_424:\n        /* \"#utility.yul\":17574:17648   */\n      swap2\n      pop\n        /* \"#utility.yul\":17657:17750   */\n      tag_425\n        /* \"#utility.yul\":17746:17749   */\n      dup3\n        /* \"#utility.yul\":17657:17750   */\n      tag_214\n      jump\t// in\n    tag_425:\n        /* \"#utility.yul\":17775:17777   */\n      0x20\n        /* \"#utility.yul\":17770:17773   */\n      dup3\n        /* \"#utility.yul\":17766:17778   */\n      add\n        /* \"#utility.yul\":17759:17778   */\n      swap1\n      pop\n        /* \"#utility.yul\":17418:17784   */\n      swap2\n      swap1\n      pop\n      jump\t// out\n        /* \"#utility.yul\":17790:18209   */\n    tag_111:\n        /* \"#utility.yul\":17956:17960   */\n      0x00\n        /* \"#utility.yul\":17994:17996   */\n      0x20\n        /* \"#utility.yul\":17983:17992   */\n      dup3\n        /* \"#utility.yul\":17979:17997   */\n      add\n        /* \"#utility.yul\":17971:17997   */\n      swap1\n      pop\n        /* \"#utility.yul\":18043:18052   */\n      dup2\n        /* \"#utility.yul\":18037:18041   */\n      dup2\n        /* \"#utility.yul\":18033:18053   */\n      sub\n        /* \"#utility.yul\":18029:18030   */\n      0x00\n        /* \"#utility.yul\":18018:18027   */\n      dup4\n        /* \"#utility.yul\":18014:18031   */\n      add\n        /* \"#utility.yul\":18007:18054   */\n      mstore\n        /* \"#utility.yul\":18071:18202   */\n      tag_427\n        /* \"#utility.yul\":18197:18201   */\n      dup2\n        /* \"#utility.yul\":18071:18202   */\n      tag_215\n      jump\t// in\n    tag_427:\n        /* \"#utility.yul\":18063:18202   */\n      swap1\n      pop\n        /* \"#utility.yul\":17790:18209   */\n      swap2\n      swap1\n      pop\n      jump\t// out\n        /* \"#utility.yul\":18215:18389   */\n    tag_216:\n        /* \"#utility.yul\":18355:18381   */\n      0x506f6c6c20686173206e6f742073746172746564207965740000000000000000\n        /* \"#utility.yul\":18351:18352   */\n      0x00\n        /* \"#utility.yul\":18343:18349   */\n      dup3\n        /* \"#utility.yul\":18339:18353   */\n      add\n        /* \"#utility.yul\":18332:18382   */\n      mstore\n        /* \"#utility.yul\":18215:18389   */\n      pop\n      jump\t// out\n        /* \"#utility.yul\":18395:18761   */\n    tag_217:\n        /* \"#utility.yul\":18537:18540   */\n      0x00\n        /* \"#utility.yul\":18558:18625   */\n      tag_430\n        /* \"#utility.yul\":18622:18624   */\n      0x18\n        /* \"#utility.yul\":18617:18620   */\n      dup4\n        /* \"#utility.yul\":18558:18625   */\n      tag_172\n      jump\t// in\n    tag_430:\n        /* \"#utility.yul\":18551:18625   */\n      swap2\n      pop\n        /* \"#utility.yul\":18634:18727   */\n      tag_431\n        /* \"#utility.yul\":18723:18726   */\n      dup3\n        /* \"#utility.yul\":18634:18727   */\n      tag_216\n      jump\t// in\n    tag_431:\n        /* \"#utility.yul\":18752:18754   */\n      0x20\n        /* \"#utility.yul\":18747:18750   */\n      dup3\n        /* \"#utility.yul\":18743:18755   */\n      add\n        /* \"#utility.yul\":18736:18755   */\n      swap1\n      pop\n        /* \"#utility.yul\":18395:18761   */\n      swap2\n      swap1\n      pop\n      jump\t// out\n        /* \"#utility.yul\":18767:19186   */\n    tag_114:\n        /* \"#utility.yul\":18933:18937   */\n      0x00\n        /* \"#utility.yul\":18971:18973   */\n      0x20\n        /* \"#utility.yul\":18960:18969   */\n      dup3\n        /* \"#utility.yul\":18956:18974   */\n      add\n        /* \"#utility.yul\":18948:18974   */\n      swap1\n      pop\n        /* \"#utility.yul\":19020:19029   */\n      dup2\n        /* \"#utility.yul\":19014:19018   */\n      dup2\n        /* \"#utility.yul\":19010:19030   */\n      sub\n        /* \"#utility.yul\":19006:19007   */\n      0x00\n        /* \"#utility.yul\":18995:19004   */\n      dup4\n        /* \"#utility.yul\":18991:19008   */\n      add\n        /* \"#utility.yul\":18984:19031   */\n      mstore\n        /* \"#utility.yul\":19048:19179   */\n      tag_433\n        /* \"#utility.yul\":19174:19178   */\n      dup2\n        /* \"#utility.yul\":19048:19179   */\n      tag_217\n      jump\t// in\n    tag_433:\n        /* \"#utility.yul\":19040:19179   */\n      swap1\n      pop\n        /* \"#utility.yul\":18767:19186   */\n      swap2\n      swap1\n      pop\n      jump\t// out\n        /* \"#utility.yul\":19192:19356   */\n    tag_218:\n        /* \"#utility.yul\":19332:19348   */\n      0x506f6c6c2068617320656e646564000000000000000000000000000000000000\n        /* \"#utility.yul\":19328:19329   */\n      0x00\n        /* \"#utility.yul\":19320:19326   */\n      dup3\n        /* \"#utility.yul\":19316:19330   */\n      add\n        /* \"#utility.yul\":19309:19349   */\n      mstore\n        /* \"#utility.yul\":19192:19356   */\n      pop\n      jump\t// out\n        /* \"#utility.yul\":19362:19728   */\n    tag_219:\n        /* \"#utility.yul\":19504:19507   */\n      0x00\n        /* \"#utility.yul\":19525:19592   */\n      tag_436\n        /* \"#utility.yul\":19589:19591   */\n      0x0e\n        /* \"#utility.yul\":19584:19587   */\n      dup4\n        /* \"#utility.yul\":19525:19592   */\n      tag_172\n      jump\t// in\n    tag_436:\n        /* \"#utility.yul\":19518:19592   */\n      swap2\n      pop\n        /* \"#utility.yul\":19601:19694   */\n      tag_437\n        /* \"#utility.yul\":19690:19693   */\n      dup3\n        /* \"#utility.yul\":19601:19694   */\n      tag_218\n      jump\t// in\n    tag_437:\n        /* \"#utility.yul\":19719:19721   */\n      0x20\n        /* \"#utility.yul\":19714:19717   */\n      dup3\n        /* \"#utility.yul\":19710:19722   */\n      add\n        /* \"#utility.yul\":19703:19722   */\n      swap1\n      pop\n        /* \"#utility.yul\":19362:19728   */\n      swap2\n      swap1\n      pop\n      jump\t// out\n        /* \"#utility.yul\":19734:20153   */\n    tag_117:\n        /* \"#utility.yul\":19900:19904   */\n      0x00\n        /* \"#utility.yul\":19938:19940   */\n      0x20\n        /* \"#utility.yul\":19927:19936   */\n      dup3\n        /* \"#utility.yul\":19923:19941   */\n      add\n        /* \"#utility.yul\":19915:19941   */\n      swap1\n      pop\n        /* \"#utility.yul\":19987:19996   */\n      dup2\n        /* \"#utility.yul\":19981:19985   */\n      dup2\n        /* \"#utility.yul\":19977:19997   */\n      sub\n        /* \"#utility.yul\":19973:19974   */\n      0x00\n        /* \"#utility.yul\":19962:19971   */\n      dup4\n        /* \"#utility.yul\":19958:19975   */\n      add\n        /* \"#utility.yul\":19951:19998   */\n      mstore\n        /* \"#utility.yul\":20015:20146   */\n      tag_439\n        /* \"#utility.yul\":20141:20145   */\n      dup2\n        /* \"#utility.yul\":20015:20146   */\n      tag_219\n      jump\t// in\n    tag_439:\n        /* \"#utility.yul\":20007:20146   */\n      swap1\n      pop\n        /* \"#utility.yul\":19734:20153   */\n      swap2\n      swap1\n      pop\n      jump\t// out\n        /* \"#utility.yul\":20159:20322   */\n    tag_220:\n        /* \"#utility.yul\":20299:20314   */\n      0x416c726561647920766f74656400000000000000000000000000000000000000\n        /* \"#utility.yul\":20295:20296   */\n      0x00\n        /* \"#utility.yul\":20287:20293   */\n      dup3\n        /* \"#utility.yul\":20283:20297   */\n      add\n        /* \"#utility.yul\":20276:20315   */\n      mstore\n        /* \"#utility.yul\":20159:20322   */\n      pop\n      jump\t// out\n        /* \"#utility.yul\":20328:20694   */\n    tag_221:\n        /* \"#utility.yul\":20470:20473   */\n      0x00\n        /* \"#utility.yul\":20491:20558   */\n      tag_442\n        /* \"#utility.yul\":20555:20557   */\n      0x0d\n        /* \"#utility.yul\":20550:20553   */\n      dup4\n        /* \"#utility.yul\":20491:20558   */\n      tag_172\n      jump\t// in\n    tag_442:\n        /* \"#utility.yul\":20484:20558   */\n      swap2\n      pop\n        /* \"#utility.yul\":20567:20660   */\n      tag_443\n        /* \"#utility.yul\":20656:20659   */\n      dup3\n        /* \"#utility.yul\":20567:20660   */\n      tag_220\n      jump\t// in\n    tag_443:\n        /* \"#utility.yul\":20685:20687   */\n      0x20\n        /* \"#utility.yul\":20680:20683   */\n      dup3\n        /* \"#utility.yul\":20676:20688   */\n      add\n        /* \"#utility.yul\":20669:20688   */\n      swap1\n      pop\n        /* \"#utility.yul\":20328:20694   */\n      swap2\n      swap1\n      pop\n      jump\t// out\n        /* \"#utility.yul\":20700:21119   */\n    tag_120:\n        /* \"#utility.yul\":20866:20870   */\n      0x00\n        /* \"#utility.yul\":20904:20906   */\n      0x20\n        /* \"#utility.yul\":20893:20902   */\n      dup3\n        /* \"#utility.yul\":20889:20907   */\n      add\n        /* \"#utility.yul\":20881:20907   */\n      swap1\n      pop\n        /* \"#utility.yul\":20953:20962   */\n      dup2\n        /* \"#utility.yul\":20947:20951   */\n      dup2\n        /* \"#utility.yul\":20943:20963   */\n      sub\n        /* \"#utility.yul\":20939:20940   */\n      0x00\n        /* \"#utility.yul\":20928:20937   */\n      dup4\n        /* \"#utility.yul\":20924:20941   */\n      add\n        /* \"#utility.yul\":20917:20964   */\n      mstore\n        /* \"#utility.yul\":20981:21112   */\n      tag_445\n        /* \"#utility.yul\":21107:21111   */\n      dup2\n        /* \"#utility.yul\":20981:21112   */\n      tag_221\n      jump\t// in\n    tag_445:\n        /* \"#utility.yul\":20973:21112   */\n      swap1\n      pop\n        /* \"#utility.yul\":20700:21119   */\n      swap2\n      swap1\n      pop\n      jump\t// out\n        /* \"#utility.yul\":21125:21289   */\n    tag_222:\n        /* \"#utility.yul\":21265:21281   */\n      0x496e76616c6964206f7074696f6e000000000000000000000000000000000000\n        /* \"#utility.yul\":21261:21262   */\n      0x00\n        /* \"#utility.yul\":21253:21259   */\n      dup3\n        /* \"#utility.yul\":21249:21263   */\n      add\n        /* \"#utility.yul\":21242:21282   */\n      mstore\n        /* \"#utility.yul\":21125:21289   */\n      pop\n      jump\t// out\n        /* \"#utility.yul\":21295:21661   */\n    tag_223:\n        /* \"#utility.yul\":21437:21440   */\n      0x00\n        /* \"#utility.yul\":21458:21525   */\n      tag_448\n        /* \"#utility.yul\":21522:21524   */\n      0x0e\n        /* \"#utility.yul\":21517:21520   */\n      dup4\n        /* \"#utility.yul\":21458:21525   */\n      tag_172\n      jump\t// in\n    tag_448:\n        /* \"#utility.yul\":21451:21525   */\n      swap2\n      pop\n        /* \"#utility.yul\":21534:21627   */\n      tag_449\n        /* \"#utility.yul\":21623:21626   */\n      dup3\n        /* \"#utility.yul\":21534:21627   */\n      tag_222\n      jump\t// in\n    tag_449:\n        /* \"#utility.yul\":21652:21654   */\n      0x20\n        /* \"#utility.yul\":21647:21650   */\n      dup3\n        /* \"#utility.yul\":21643:21655   */\n      add\n        /* \"#utility.yul\":21636:21655   */\n      swap1\n      pop\n        /* \"#utility.yul\":21295:21661   */\n      swap2\n      swap1\n      pop\n      jump\t// out\n        /* \"#utility.yul\":21667:22086   */\n    tag_123:\n        /* \"#utility.yul\":21833:21837   */\n      0x00\n        /* \"#utility.yul\":21871:21873   */\n      0x20\n        /* \"#utility.yul\":21860:21869   */\n      dup3\n        /* \"#utility.yul\":21856:21874   */\n      add\n        /* \"#utility.yul\":21848:21874   */\n      swap1\n      pop\n        /* \"#utility.yul\":21920:21929   */\n      dup2\n        /* \"#utility.yul\":21914:21918   */\n      dup2\n        /* \"#utility.yul\":21910:21930   */\n      sub\n        /* \"#utility.yul\":21906:21907   */\n      0x00\n        /* \"#utility.yul\":21895:21904   */\n      dup4\n        /* \"#utility.yul\":21891:21908   */\n      add\n        /* \"#utility.yul\":21884:21931   */\n      mstore\n        /* \"#utility.yul\":21948:22079   */\n      tag_451\n        /* \"#utility.yul\":22074:22078   */\n      dup2\n        /* \"#utility.yul\":21948:22079   */\n      tag_223\n      jump\t// in\n    tag_451:\n        /* \"#utility.yul\":21940:22079   */\n      swap1\n      pop\n        /* \"#utility.yul\":21667:22086   */\n      swap2\n      swap1\n      pop\n      jump\t// out\n        /* \"#utility.yul\":22092:22272   */\n    tag_224:\n        /* \"#utility.yul\":22140:22217   */\n      0x4e487b7100000000000000000000000000000000000000000000000000000000\n        /* \"#utility.yul\":22137:22138   */\n      0x00\n        /* \"#utility.yul\":22130:22218   */\n      mstore\n        /* \"#utility.yul\":22237:22241   */\n      0x11\n        /* \"#utility.yul\":22234:22235   */\n      0x04\n        /* \"#utility.yul\":22227:22242   */\n      mstore\n        /* \"#utility.yul\":22261:22265   */\n      0x24\n        /* \"#utility.yul\":22258:22259   */\n      0x00\n        /* \"#utility.yul\":22251:22266   */\n      revert\n        /* \"#utility.yul\":22278:22511   */\n    tag_125:\n        /* \"#utility.yul\":22317:22320   */\n      0x00\n        /* \"#utility.yul\":22340:22364   */\n      tag_454\n        /* \"#utility.yul\":22358:22363   */\n      dup3\n        /* \"#utility.yul\":22340:22364   */\n      tag_168\n      jump\t// in\n    tag_454:\n        /* \"#utility.yul\":22331:22364   */\n      swap2\n      pop\n        /* \"#utility.yul\":22386:22452   */\n      0xffffffffffffffffffffffffffffffffffffffffffffffffffffffffffffffff\n        /* \"#utility.yul\":22379:22384   */\n      dup3\n        /* \"#utility.yul\":22376:22453   */\n      sub\n        /* \"#utility.yul\":22373:22476   */\n      tag_455\n      jumpi\n        /* \"#utility.yul\":22456:22474   */\n      tag_456\n      tag_224\n      jump\t// in\n    tag_456:\n        /* \"#utility.yul\":22373:22476   */\n    tag_455:\n        /* \"#utility.yul\":22503:22504   */\n      0x01\n        /* \"#utility.yul\":22496:22501   */\n      dup3\n        /* \"#utility.yul\":22492:22505   */\n      add\n        /* \"#utility.yul\":22485:22505   */\n      swap1\n      pop\n        /* \"#utility.yul\":22278:22511   */\n      swap2\n      swap1\n      pop\n      jump\t// out\n        /* \"#utility.yul\":22517:22959   */\n    tag_127:\n        /* \"#utility.yul\":22666:22670   */\n      0x00\n        /* \"#utility.yul\":22704:22706   */\n      0x60\n        /* \"#utility.yul\":22693:22702   */\n      dup3\n        /* \"#utility.yul\":22689:22707   */\n      add\n        /* \"#utility.yul\":22681:22707   */\n      swap1\n      pop\n        /* \"#utility.yul\":22717:22788   */\n      tag_458\n        /* \"#utility.yul\":22785:22786   */\n      0x00\n        /* \"#utility.yul\":22774:22783   */\n      dup4\n        /* \"#utility.yul\":22770:22787   */\n      add\n        /* \"#utility.yul\":22761:22767   */\n      dup7\n        /* \"#utility.yul\":22717:22788   */\n      tag_187\n      jump\t// in\n    tag_458:\n        /* \"#utility.yul\":22798:22870   */\n      tag_459\n        /* \"#utility.yul\":22866:22868   */\n      0x20\n        /* \"#utility.yul\":22855:22864   */\n      dup4\n        /* \"#utility.yul\":22851:22869   */\n      add\n        /* \"#utility.yul\":22842:22848   */\n      dup6\n        /* \"#utility.yul\":22798:22870   */\n      tag_186\n      jump\t// in\n    tag_459:\n        /* \"#utility.yul\":22880:22952   */\n      tag_460\n        /* \"#utility.yul\":22948:22950   */\n      0x40\n        /* \"#utility.yul\":22937:22946   */\n      dup4\n        /* \"#utility.yul\":22933:22951   */\n      add\n        /* \"#utility.yul\":22924:22930   */\n      dup5\n        /* \"#utility.yul\":22880:22952   */\n      tag_187\n      jump\t// in\n    tag_460:\n        /* \"#utility.yul\":22517:22959   */\n      swap5\n      swap4\n      pop\n      pop\n      pop\n      pop\n      jump\t// out\n        /* \"#utility.yul\":22965:23193   */\n    tag_225:\n        /* \"#utility.yul\":23105:23139   */\n      0x4f6e6c7920706f6c6c2063726561746f722063616e20706572666f726d207468\n        /* \"#utility.yul\":23101:23102   */\n      0x00\n        /* \"#utility.yul\":23093:23099   */\n      dup3\n        /* \"#utility.yul\":23089:23103   */\n      add\n        /* \"#utility.yul\":23082:23140   */\n      mstore\n        /* \"#utility.yul\":23174:23185   */\n      0x697320616374696f6e0000000000000000000000000000000000000000000000\n        /* \"#utility.yul\":23169:23171   */\n      0x20\n        /* \"#utility.yul\":23161:23167   */\n      dup3\n        /* \"#utility.yul\":23157:23172   */\n      add\n        /* \"#utility.yul\":23150:23186   */\n      mstore\n        /* \"#utility.yul\":22965:23193   */\n      pop\n      jump\t// out\n        /* \"#utility.yul\":23199:23565   */\n    tag_226:\n        /* \"#utility.yul\":23341:23344   */\n      0x00\n        /* \"#utility.yul\":23362:23429   */\n      tag_463\n        /* \"#utility.yul\":23426:23428   */\n      0x29\n        /* \"#utility.yul\":23421:23424   */\n      dup4\n        /* \"#utility.yul\":23362:23429   */\n      tag_172\n      jump\t// in\n    tag_463:\n        /* \"#utility.yul\":23355:23429   */\n      swap2\n      pop\n        /* \"#utility.yul\":23438:23531   */\n      tag_464\n        /* \"#utility.yul\":23527:23530   */\n      dup3\n        /* \"#utility.yul\":23438:23531   */\n      tag_225\n      jump\t// in\n    tag_464:\n        /* \"#utility.yul\":23556:23558   */\n      0x40\n        /* \"#utility.yul\":23551:23554   */\n      dup3\n        /* \"#utility.yul\":23547:23559   */\n      add\n        /* \"#utility.yul\":23540:23559   */\n      swap1\n      pop\n        /* \"#utility.yul\":23199:23565   */\n      swap2\n      swap1\n      pop\n      jump\t// out\n        /* \"#utility.yul\":23571:23990   */\n    tag_131:\n        /* \"#utility.yul\":23737:23741   */\n      0x00\n        /* \"#utility.yul\":23775:23777   */\n      0x20\n        /* \"#utility.yul\":23764:23773   */\n      dup3\n        /* \"#utility.yul\":23760:23778   */\n      add\n        /* \"#utility.yul\":23752:23778   */\n      swap1\n      pop\n        /* \"#utility.yul\":23824:23833   */\n      dup2\n        /* \"#utility.yul\":23818:23822   */\n      dup2\n        /* \"#utility.yul\":23814:23834   */\n      sub\n        /* \"#utility.yul\":23810:23811   */\n      0x00\n        /* \"#utility.yul\":23799:23808   */\n      dup4\n        /* \"#utility.yul\":23795:23812   */\n      add\n        /* \"#utility.yul\":23788:23835   */\n      mstore\n        /* \"#utility.yul\":23852:23983   */\n      tag_466\n        /* \"#utility.yul\":23978:23982   */\n      dup2\n        /* \"#utility.yul\":23852:23983   */\n      tag_226\n      jump\t// in\n    tag_466:\n        /* \"#utility.yul\":23844:23983   */\n      swap1\n      pop\n        /* \"#utility.yul\":23571:23990   */\n      swap2\n      swap1\n      pop\n      jump\t// out\n        /* \"#utility.yul\":23996:24164   */\n    tag_227:\n        /* \"#utility.yul\":24136:24156   */\n      0x506f6c6c20616c726561647920656e6465640000000000000000000000000000\n        /* \"#utility.yul\":24132:24133   */\n      0x00\n        /* \"#utility.yul\":24124:24130   */\n      dup3\n        /* \"#utility.yul\":24120:24134   */\n      add\n        /* \"#utility.yul\":24113:24157   */\n      mstore\n        /* \"#utility.yul\":23996:24164   */\n      pop\n      jump\t// out\n        /* \"#utility.yul\":24170:24536   */\n    tag_228:\n        /* \"#utility.yul\":24312:24315   */\n      0x00\n        /* \"#utility.yul\":24333:24400   */\n      tag_469\n        /* \"#utility.yul\":24397:24399   */\n      0x12\n        /* \"#utility.yul\":24392:24395   */\n      dup4\n        /* \"#utility.yul\":24333:24400   */\n      tag_172\n      jump\t// in\n    tag_469:\n        /* \"#utility.yul\":24326:24400   */\n      swap2\n      pop\n        /* \"#utility.yul\":24409:24502   */\n      tag_470\n        /* \"#utility.yul\":24498:24501   */\n      dup3\n        /* \"#utility.yul\":24409:24502   */\n      tag_227\n      jump\t// in\n    tag_470:\n        /* \"#utility.yul\":24527:24529   */\n      0x20\n        /* \"#utility.yul\":24522:24525   */\n      dup3\n        /* \"#utility.yul\":24518:24530   */\n      add\n        /* \"#utility.yul\":24511:24530   */\n      swap1\n      pop\n        /* \"#utility.yul\":24170:24536   */\n      swap2\n      swap1\n      pop\n      jump\t// out\n        /* \"#utility.yul\":24542:24961   */\n    tag_139:\n        /* \"#utility.yul\":24708:24712   */\n      0x00\n        /* \"#utility.yul\":24746:24748   */\n      0x20\n        /* \"#utility.yul\":24735:24744   */\n      dup3\n        /* \"#utility.yul\":24731:24749   */\n      add\n        /* \"#utility.yul\":24723:24749   */\n      swap1\n      pop\n        /* \"#utility.yul\":24795:24804   */\n      dup2\n        /* \"#utility.yul\":24789:24793   */\n      dup2\n        /* \"#utility.yul\":24785:24805   */\n      sub\n        /* \"#utility.yul\":24781:24782   */\n      0x00\n        /* \"#utility.yul\":24770:24779   */\n      dup4\n        /* \"#utility.yul\":24766:24783   */\n      add\n        /* \"#utility.yul\":24759:24806   */\n      mstore\n        /* \"#utility.yul\":24823:24954   */\n      tag_472\n        /* \"#utility.yul\":24949:24953   */\n      dup2\n        /* \"#utility.yul\":24823:24954   */\n      tag_228\n      jump\t// in\n    tag_472:\n        /* \"#utility.yul\":24815:24954   */\n      swap1\n      pop\n        /* \"#utility.yul\":24542:24961   */\n      swap2\n      swap1\n      pop\n      jump\t// out\n        /* \"#utility.yul\":24967:25141   */\n    tag_229:\n        /* \"#utility.yul\":25107:25133   */\n      0x5175657374696f6e2063616e6e6f7420626520656d7074790000000000000000\n        /* \"#utility.yul\":25103:25104   */\n      0x00\n        /* \"#utility.yul\":25095:25101   */\n      dup3\n        /* \"#utility.yul\":25091:25105   */\n      add\n        /* \"#utility.yul\":25084:25134   */\n      mstore\n        /* \"#utility.yul\":24967:25141   */\n      pop\n      jump\t// out\n        /* \"#utility.yul\":25147:25513   */\n    tag_230:\n        /* \"#utility.yul\":25289:25292   */\n      0x00\n        /* \"#utility.yul\":25310:25377   */\n      tag_475\n        /* \"#utility.yul\":25374:25376   */\n      0x18\n        /* \"#utility.yul\":25369:25372   */\n      dup4\n        /* \"#utility.yul\":25310:25377   */\n      tag_172\n      jump\t// in\n    tag_475:\n        /* \"#utility.yul\":25303:25377   */\n      swap2\n      pop\n        /* \"#utility.yul\":25386:25479   */\n      tag_476\n        /* \"#utility.yul\":25475:25478   */\n      dup3\n        /* \"#utility.yul\":25386:25479   */\n      tag_229\n      jump\t// in\n    tag_476:\n        /* \"#utility.yul\":25504:25506   */\n      0x20\n        /* \"#utility.yul\":25499:25502   */\n      dup3\n        /* \"#utility.yul\":25495:25507   */\n      add\n        /* \"#utility.yul\":25488:25507   */\n      swap1\n      pop\n        /* \"#utility.yul\":25147:25513   */\n      swap2\n      swap1\n      pop\n      jump\t// out\n        /* \"#utility.yul\":25519:25938   */\n    tag_144:\n        /* \"#utility.yul\":25685:25689   */\n      0x00\n        /* \"#utility.yul\":25723:25725   */\n      0x20\n        /* \"#utility.yul\":25712:25721   */\n      dup3\n        /* \"#utility.yul\":25708:25726   */\n      add\n        /* \"#utility.yul\":25700:25726   */\n      swap1\n      pop\n        /* \"#utility.yul\":25772:25781   */\n      dup2\n        /* \"#utility.yul\":25766:25770   */\n      dup2\n        /* \"#utility.yul\":25762:25782   */\n      sub\n        /* \"#utility.yul\":25758:25759   */\n      0x00\n        /* \"#utility.yul\":25747:25756   */\n      dup4\n        /* \"#utility.yul\":25743:25760   */\n      add\n        /* \"#utility.yul\":25736:25783   */\n      mstore\n        /* \"#utility.yul\":25800:25931   */\n      tag_478\n        /* \"#utility.yul\":25926:25930   */\n      dup2\n        /* \"#utility.yul\":25800:25931   */\n      tag_230\n      jump\t// in\n    tag_478:\n        /* \"#utility.yul\":25792:25931   */\n      swap1\n      pop\n        /* \"#utility.yul\":25519:25938   */\n      swap2\n      swap1\n      pop\n      jump\t// out\n        /* \"#utility.yul\":25944:26121   */\n    tag_231:\n        /* \"#utility.yul\":26084:26113   */\n      0x4174206c656173742032206f7074696f6e732072657175697265640000000000\n        /* \"#utility.yul\":26080:26081   */\n      0x00\n        /* \"#utility.yul\":26072:26078   */\n      dup3\n        /* \"#utility.yul\":26068:26082   */\n      add\n        /* \"#utility.yul\":26061:26114   */\n      mstore\n        /* \"#utility.yul\":25944:26121   */\n      pop\n      jump\t// out\n        /* \"#utility.yul\":26127:26493   */\n    tag_232:\n        /* \"#utility.yul\":26269:26272   */\n      0x00\n        /* \"#utility.yul\":26290:26357   */\n      tag_481\n        /* \"#utility.yul\":26354:26356   */\n      0x1b\n        /* \"#utility.yul\":26349:26352   */\n      dup4\n        /* \"#utility.yul\":26290:26357   */\n      tag_172\n      jump\t// in\n    tag_481:\n        /* \"#utility.yul\":26283:26357   */\n      swap2\n      pop\n        /* \"#utility.yul\":26366:26459   */\n      tag_482\n        /* \"#utility.yul\":26455:26458   */\n      dup3\n        /* \"#utility.yul\":26366:26459   */\n      tag_231\n      jump\t// in\n    tag_482:\n        /* \"#utility.yul\":26484:26486   */\n      0x20\n        /* \"#utility.yul\":26479:26482   */\n      dup3\n        /* \"#utility.yul\":26475:26487   */\n      add\n        /* \"#utility.yul\":26468:26487   */\n      swap1\n      pop\n        /* \"#utility.yul\":26127:26493   */\n      swap2\n      swap1\n      pop\n      jump\t// out\n        /* \"#utility.yul\":26499:26918   */\n    tag_147:\n        /* \"#utility.yul\":26665:26669   */\n      0x00\n        /* \"#utility.yul\":26703:26705   */\n      0x20\n        /* \"#utility.yul\":26692:26701   */\n      dup3\n        /* \"#utility.yul\":26688:26706   */\n      add\n        /* \"#utility.yul\":26680:26706   */\n      swap1\n      pop\n        /* \"#utility.yul\":26752:26761   */\n      dup2\n        /* \"#utility.yul\":26746:26750   */\n      dup2\n        /* \"#utility.yul\":26742:26762   */\n      sub\n        /* \"#utility.yul\":26738:26739   */\n      0x00\n        /* \"#utility.yul\":26727:26736   */\n      dup4\n        /* \"#utility.yul\":26723:26740   */\n      add\n        /* \"#utility.yul\":26716:26763   */\n      mstore\n        /* \"#utility.yul\":26780:26911   */\n      tag_484\n        /* \"#utility.yul\":26906:26910   */\n      dup2\n        /* \"#utility.yul\":26780:26911   */\n      tag_232\n      jump\t// in\n    tag_484:\n        /* \"#utility.yul\":26772:26911   */\n      swap1\n      pop\n        /* \"#utility.yul\":26499:26918   */\n      swap2\n      swap1\n      pop\n      jump\t// out\n        /* \"#utility.yul\":26924:27099   */\n    tag_233:\n        /* \"#utility.yul\":27064:27091   */\n      0x4475726174696f6e206d75737420626520706f73697469766500000000000000\n        /* \"#utility.yul\":27060:27061   */\n      0x00\n        /* \"#utility.yul\":27052:27058   */\n      dup3\n        /* \"#utility.yul\":27048:27062   */\n      add\n        /* \"#utility.yul\":27041:27092   */\n      mstore\n        /* \"#utility.yul\":26924:27099   */\n      pop\n      jump\t// out\n        /* \"#utility.yul\":27105:27471   */\n    tag_234:\n        /* \"#utility.yul\":27247:27250   */\n      0x00\n        /* \"#utility.yul\":27268:27335   */\n      tag_487\n        /* \"#utility.yul\":27332:27334   */\n      0x19\n        /* \"#utility.yul\":27327:27330   */\n      dup4\n        /* \"#utility.yul\":27268:27335   */\n      tag_172\n      jump\t// in\n    tag_487:\n        /* \"#utility.yul\":27261:27335   */\n      swap2\n      pop\n        /* \"#utility.yul\":27344:27437   */\n      tag_488\n        /* \"#utility.yul\":27433:27436   */\n      dup3\n        /* \"#utility.yul\":27344:27437   */\n      tag_233\n      jump\t// in\n    tag_488:\n        /* \"#utility.yul\":27462:27464   */\n      0x20\n        /* \"#utility.yul\":27457:27460   */\n      dup3\n        /* \"#utility.yul\":27453:27465   */\n      add\n        /* \"#utility.yul\":27446:27465   */\n      swap1\n      pop\n        /* \"#utility.yul\":27105:27471   */\n      swap2\n      swap1\n      pop\n      jump\t// out\n        /* \"#utility.yul\":27477:27896   */\n    tag_150:\n        /* \"#utility.yul\":27643:27647   */\n      0x00\n        /* \"#utility.yul\":27681:27683   */\n      0x20\n        /* \"#utility.yul\":27670:27679   */\n      dup3\n        /* \"#utility.yul\":27666:27684   */\n      add\n        /* \"#utility.yul\":27658:27684   */\n      swap1\n      pop\n        /* \"#utility.yul\":27730:27739   */\n      dup2\n        /* \"#utility.yul\":27724:27728   */\n      dup2\n        /* \"#utility.yul\":27720:27740   */\n      sub\n        /* \"#utility.yul\":27716:27717   */\n      0x00\n        /* \"#utility.yul\":27705:27714   */\n      dup4\n        /* \"#utility.yul\":27701:27718   */\n      add\n        /* \"#utility.yul\":27694:27741   */\n      mstore\n        /* \"#utility.yul\":27758:27889   */\n      tag_490\n        /* \"#utility.yul\":27884:27888   */\n      dup2\n        /* \"#utility.yul\":27758:27889   */\n      tag_234\n      jump\t// in\n    tag_490:\n        /* \"#utility.yul\":27750:27889   */\n      swap1\n      pop\n        /* \"#utility.yul\":27477:27896   */\n      swap2\n      swap1\n      pop\n      jump\t// out\n        /* \"#utility.yul\":27902:28043   */\n    tag_235:\n        /* \"#utility.yul\":27951:27955   */\n      0x00\n        /* \"#utility.yul\":27974:27977   */\n      dup2\n        /* \"#utility.yul\":27966:27977   */\n      swap1\n      pop\n        /* \"#utility.yul\":27997:28000   */\n      dup2\n        /* \"#utility.yul\":27994:27995   */\n      0x00\n        /* \"#utility.yul\":27987:28001   */\n      mstore\n        /* \"#utility.yul\":28031:28035   */\n      0x20\n        /* \"#utility.yul\":28028:28029   */\n      0x00\n        /* \"#utility.yul\":28018:28036   */\n      keccak256\n        /* \"#utility.yul\":28010:28036   */\n      swap1\n      pop\n        /* \"#utility.yul\":27902:28043   */\n      swap2\n      swap1\n      pop\n      jump\t// out\n        /* \"#utility.yul\":28049:28142   */\n    tag_236:\n        /* \"#utility.yul\":28086:28092   */\n      0x00\n        /* \"#utility.yul\":28133:28135   */\n      0x20\n        /* \"#utility.yul\":28128:28130   */\n      0x1f\n        /* \"#utility.yul\":28121:28126   */\n      dup4\n        /* \"#utility.yul\":28117:28131   */\n      add\n        /* \"#utility.yul\":28113:28136   */\n      div\n        /* \"#utility.yul\":28103:28136   */\n      swap1\n      pop\n        /* \"#utility.yul\":28049:28142   */\n      swap2\n      swap1\n      pop\n      jump\t// out\n        /* \"#utility.yul\":28148:28255   */\n    tag_237:\n        /* \"#utility.yul\":28192:28200   */\n      0x00\n        /* \"#utility.yul\":28242:28247   */\n      dup3\n        /* \"#utility.yul\":28236:28240   */\n      dup3\n        /* \"#utility.yul\":28232:28248   */\n      shl\n        /* \"#utility.yul\":28211:28248   */\n      swap1\n      pop\n        /* \"#utility.yul\":28148:28255   */\n      swap3\n      swap2\n      pop\n      pop\n      jump\t// out\n        /* \"#utility.yul\":28261:28654   */\n    tag_238:\n        /* \"#utility.yul\":28330:28336   */\n      0x00\n        /* \"#utility.yul\":28380:28381   */\n      0x08\n        /* \"#utility.yul\":28368:28378   */\n      dup4\n        /* \"#utility.yul\":28364:28382   */\n      mul\n        /* \"#utility.yul\":28403:28500   */\n      tag_495\n        /* \"#utility.yul\":28433:28499   */\n      0xffffffffffffffffffffffffffffffffffffffffffffffffffffffffffffffff\n        /* \"#utility.yul\":28422:28431   */\n      dup3\n        /* \"#utility.yul\":28403:28500   */\n      tag_237\n      jump\t// in\n    tag_495:\n        /* \"#utility.yul\":28521:28560   */\n      tag_496\n        /* \"#utility.yul\":28551:28559   */\n      dup7\n        /* \"#utility.yul\":28540:28549   */\n      dup4\n        /* \"#utility.yul\":28521:28560   */\n      tag_237\n      jump\t// in\n    tag_496:\n        /* \"#utility.yul\":28509:28560   */\n      swap6\n      pop\n        /* \"#utility.yul\":28593:28597   */\n      dup1\n        /* \"#utility.yul\":28589:28598   */\n      not\n        /* \"#utility.yul\":28582:28587   */\n      dup5\n        /* \"#utility.yul\":28578:28599   */\n      and\n        /* \"#utility.yul\":28569:28599   */\n      swap4\n      pop\n        /* \"#utility.yul\":28642:28646   */\n      dup1\n        /* \"#utility.yul\":28632:28640   */\n      dup7\n        /* \"#utility.yul\":28628:28647   */\n      and\n        /* \"#utility.yul\":28621:28626   */\n      dup5\n        /* \"#utility.yul\":28618:28648   */\n      or\n        /* \"#utility.yul\":28608:28648   */\n      swap3\n      pop\n        /* \"#utility.yul\":28337:28654   */\n      pop\n      pop\n        /* \"#utility.yul\":28261:28654   */\n      swap4\n      swap3\n      pop\n      pop\n      pop\n      jump\t// out\n        /* \"#utility.yul\":28660:28720   */\n    tag_239:\n        /* \"#utility.yul\":28688:28691   */\n      0x00\n        /* \"#utility.yul\":28709:28714   */\n      dup2\n        /* \"#utility.yul\":28702:28714   */\n      swap1\n      pop\n        /* \"#utility.yul\":28660:28720   */\n      swap2\n      swap1\n      pop\n      jump\t// out\n        /* \"#utility.yul\":28726:28868   */\n    tag_240:\n        /* \"#utility.yul\":28776:28785   */\n      0x00\n        /* \"#utility.yul\":28809:28862   */\n      tag_499\n        /* \"#utility.yul\":28827:28861   */\n      tag_500\n        /* \"#utility.yul\":28836:28860   */\n      tag_501\n        /* \"#utility.yul\":28854:28859   */\n      dup5\n        /* \"#utility.yul\":28836:28860   */\n      tag_168\n      jump\t// in\n    tag_501:\n        /* \"#utility.yul\":28827:28861   */\n      tag_239\n      jump\t// in\n    tag_500:\n        /* \"#utility.yul\":28809:28862   */\n      tag_168\n      jump\t// in\n    tag_499:\n        /* \"#utility.yul\":28796:28862   */\n      swap1\n      pop\n        /* \"#utility.yul\":28726:28868   */\n      swap2\n      swap1\n      pop\n      jump\t// out\n        /* \"#utility.yul\":28874:28949   */\n    tag_241:\n        /* \"#utility.yul\":28917:28920   */\n      0x00\n        /* \"#utility.yul\":28938:28943   */\n      dup2\n        /* \"#utility.yul\":28931:28943   */\n      swap1\n      pop\n        /* \"#utility.yul\":28874:28949   */\n      swap2\n      swap1\n      pop\n      jump\t// out\n        /* \"#utility.yul\":28955:29224   */\n    tag_242:\n        /* \"#utility.yul\":29065:29104   */\n      tag_504\n        /* \"#utility.yul\":29096:29103   */\n      dup4\n        /* \"#utility.yul\":29065:29104   */\n      tag_240\n      jump\t// in\n    tag_504:\n        /* \"#utility.yul\":29126:29217   */\n      tag_505\n        /* \"#utility.yul\":29175:29216   */\n      tag_506\n        /* \"#utility.yul\":29199:29215   */\n      dup3\n        /* \"#utility.yul\":29175:29216   */\n      tag_241\n      jump\t// in\n    tag_506:\n        /* \"#utility.yul\":29167:29173   */\n      dup5\n        /* \"#utility.yul\":29160:29164   */\n      dup5\n        /* \"#utility.yul\":29154:29165   */\n      sload\n        /* \"#utility.yul\":29126:29217   */\n      tag_238\n      jump\t// in\n    tag_505:\n        /* \"#utility.yul\":29120:29124   */\n      dup3\n        /* \"#utility.yul\":29113:29218   */\n      sstore\n        /* \"#utility.yul\":29031:29224   */\n      pop\n        /* \"#utility.yul\":28955:29224   */\n      pop\n      pop\n      pop\n      jump\t// out\n        /* \"#utility.yul\":29230:29303   */\n    tag_243:\n        /* \"#utility.yul\":29275:29278   */\n      0x00\n        /* \"#utility.yul\":29296:29297   */\n      0x00\n        /* \"#utility.yul\":29289:29297   */\n      swap1\n      pop\n        /* \"#utility.yul\":29230:29303   */\n      swap1\n      jump\t// out\n        /* \"#utility.yul\":29309:29498   */\n    tag_244:\n        /* \"#utility.yul\":29386:29418   */\n      tag_509\n      tag_243\n      jump\t// in\n    tag_509:\n        /* \"#utility.yul\":29427:29492   */\n      tag_510\n        /* \"#utility.yul\":29485:29491   */\n      dup2\n        /* \"#utility.yul\":29477:29483   */\n      dup5\n        /* \"#utility.yul\":29471:29475   */\n      dup5\n        /* \"#utility.yul\":29427:29492   */\n      tag_242\n      jump\t// in\n    tag_510:\n        /* \"#utility.yul\":29362:29498   */\n      pop\n        /* \"#utility.yul\":29309:29498   */\n      pop\n      pop\n      jump\t// out\n        /* \"#utility.yul\":29504:29690   */\n    tag_245:\n        /* \"#utility.yul\":29564:29684   */\n    tag_512:\n        /* \"#utility.yul\":29581:29584   */\n      dup2\n        /* \"#utility.yul\":29574:29579   */\n      dup2\n        /* \"#utility.yul\":29571:29585   */\n      lt\n        /* \"#utility.yul\":29564:29684   */\n      iszero\n      tag_514\n      jumpi\n        /* \"#utility.yul\":29635:29674   */\n      tag_515\n        /* \"#utility.yul\":29672:29673   */\n      0x00\n        /* \"#utility.yul\":29665:29670   */\n      dup3\n        /* \"#utility.yul\":29635:29674   */\n      tag_244\n      jump\t// in\n    tag_515:\n        /* \"#utility.yul\":29608:29609   */\n      0x01\n        /* \"#utility.yul\":29601:29606   */\n      dup2\n        /* \"#utility.yul\":29597:29610   */\n      add\n        /* \"#utility.yul\":29588:29610   */\n      swap1\n      pop\n        /* \"#utility.yul\":29564:29684   */\n      jump(tag_512)\n    tag_514:\n        /* \"#utility.yul\":29504:29690   */\n      pop\n      pop\n      jump\t// out\n        /* \"#utility.yul\":29696:30239   */\n    tag_246:\n        /* \"#utility.yul\":29797:29799   */\n      0x1f\n        /* \"#utility.yul\":29792:29795   */\n      dup3\n        /* \"#utility.yul\":29789:29800   */\n      gt\n        /* \"#utility.yul\":29786:30232   */\n      iszero\n      tag_517\n      jumpi\n        /* \"#utility.yul\":29831:29869   */\n      tag_518\n        /* \"#utility.yul\":29863:29868   */\n      dup2\n        /* \"#utility.yul\":29831:29869   */\n      tag_235\n      jump\t// in\n    tag_518:\n        /* \"#utility.yul\":29915:29944   */\n      tag_519\n        /* \"#utility.yul\":29933:29943   */\n      dup5\n        /* \"#utility.yul\":29915:29944   */\n      tag_236\n      jump\t// in\n    tag_519:\n        /* \"#utility.yul\":29905:29913   */\n      dup2\n        /* \"#utility.yul\":29901:29945   */\n      add\n        /* \"#utility.yul\":30098:30100   */\n      0x20\n        /* \"#utility.yul\":30086:30096   */\n      dup6\n        /* \"#utility.yul\":30083:30101   */\n      lt\n        /* \"#utility.yul\":30080:30129   */\n      iszero\n      tag_520\n      jumpi\n        /* \"#utility.yul\":30119:30127   */\n      dup2\n        /* \"#utility.yul\":30104:30127   */\n      swap1\n      pop\n        /* \"#utility.yul\":30080:30129   */\n    tag_520:\n        /* \"#utility.yul\":30142:30222   */\n      tag_521\n        /* \"#utility.yul\":30198:30220   */\n      tag_522\n        /* \"#utility.yul\":30216:30219   */\n      dup6\n        /* \"#utility.yul\":30198:30220   */\n      tag_236\n      jump\t// in\n    tag_522:\n        /* \"#utility.yul\":30188:30196   */\n      dup4\n        /* \"#utility.yul\":30184:30221   */\n      add\n        /* \"#utility.yul\":30171:30182   */\n      dup3\n        /* \"#utility.yul\":30142:30222   */\n      tag_245\n      jump\t// in\n    tag_521:\n        /* \"#utility.yul\":29801:30232   */\n      pop\n      pop\n        /* \"#utility.yul\":29786:30232   */\n    tag_517:\n        /* \"#utility.yul\":29696:30239   */\n      pop\n      pop\n      pop\n      jump\t// out\n        /* \"#utility.yul\":30245:30362   */\n    tag_247:\n        /* \"#utility.yul\":30299:30307   */\n      0x00\n        /* \"#utility.yul\":30349:30354   */\n      dup3\n        /* \"#utility.yul\":30343:30347   */\n      dup3\n        /* \"#utility.yul\":30339:30355   */\n      shr\n        /* \"#utility.yul\":30318:30355   */\n      swap1\n      pop\n        /* \"#utility.yul\":30245:30362   */\n      swap3\n      swap2\n      pop\n      pop\n      jump\t// out\n        /* \"#utility.yul\":30368:30537   */\n    tag_248:\n        /* \"#utility.yul\":30412:30418   */\n      0x00\n        /* \"#utility.yul\":30445:30496   */\n      tag_525\n        /* \"#utility.yul\":30493:30494   */\n      0x00\n        /* \"#utility.yul\":30489:30495   */\n      not\n        /* \"#utility.yul\":30481:30486   */\n      dup5\n        /* \"#utility.yul\":30478:30479   */\n      0x08\n        /* \"#utility.yul\":30474:30487   */\n      mul\n        /* \"#utility.yul\":30445:30496   */\n      tag_247\n      jump\t// in\n    tag_525:\n        /* \"#utility.yul\":30441:30497   */\n      not\n        /* \"#utility.yul\":30526:30530   */\n      dup1\n        /* \"#utility.yul\":30520:30524   */\n      dup4\n        /* \"#utility.yul\":30516:30531   */\n      and\n        /* \"#utility.yul\":30506:30531   */\n      swap2\n      pop\n        /* \"#utility.yul\":30419:30537   */\n      pop\n        /* \"#utility.yul\":30368:30537   */\n      swap3\n      swap2\n      pop\n      pop\n      jump\t// out\n        /* \"#utility.yul\":30542:30837   */\n    tag_249:\n        /* \"#utility.yul\":30618:30622   */\n      0x00\n        /* \"#utility.yul\":30764:30793   */\n      tag_527\n        /* \"#utility.yul\":30789:30792   */\n      dup4\n        /* \"#utility.yul\":30783:30787   */\n      dup4\n        /* \"#utility.yul\":30764:30793   */\n      tag_248\n      jump\t// in\n    tag_527:\n        /* \"#utility.yul\":30756:30793   */\n      swap2\n      pop\n        /* \"#utility.yul\":30826:30829   */\n      dup3\n        /* \"#utility.yul\":30823:30824   */\n      0x02\n        /* \"#utility.yul\":30819:30830   */\n      mul\n        /* \"#utility.yul\":30813:30817   */\n      dup3\n        /* \"#utility.yul\":30810:30831   */\n      or\n        /* \"#utility.yul\":30802:30831   */\n      swap1\n      pop\n        /* \"#utility.yul\":30542:30837   */\n      swap3\n      swap2\n      pop\n      pop\n      jump\t// out\n        /* \"#utility.yul\":30842:32237   */\n    tag_153:\n        /* \"#utility.yul\":30959:30996   */\n      tag_529\n        /* \"#utility.yul\":30992:30995   */\n      dup3\n        /* \"#utility.yul\":30959:30996   */\n      tag_171\n      jump\t// in\n    tag_529:\n        /* \"#utility.yul\":31061:31079   */\n      0xffffffffffffffff\n        /* \"#utility.yul\":31053:31059   */\n      dup2\n        /* \"#utility.yul\":31050:31080   */\n      gt\n        /* \"#utility.yul\":31047:31103   */\n      iszero\n      tag_530\n      jumpi\n        /* \"#utility.yul\":31083:31101   */\n      tag_531\n      tag_85\n      jump\t// in\n    tag_531:\n        /* \"#utility.yul\":31047:31103   */\n    tag_530:\n        /* \"#utility.yul\":31127:31165   */\n      tag_532\n        /* \"#utility.yul\":31159:31163   */\n      dup3\n        /* \"#utility.yul\":31153:31164   */\n      sload\n        /* \"#utility.yul\":31127:31165   */\n      tag_65\n      jump\t// in\n    tag_532:\n        /* \"#utility.yul\":31212:31279   */\n      tag_533\n        /* \"#utility.yul\":31272:31278   */\n      dup3\n        /* \"#utility.yul\":31264:31270   */\n      dup3\n        /* \"#utility.yul\":31258:31262   */\n      dup6\n        /* \"#utility.yul\":31212:31279   */\n      tag_246\n      jump\t// in\n    tag_533:\n        /* \"#utility.yul\":31306:31307   */\n      0x00\n        /* \"#utility.yul\":31330:31334   */\n      0x20\n        /* \"#utility.yul\":31317:31334   */\n      swap1\n      pop\n        /* \"#utility.yul\":31362:31364   */\n      0x1f\n        /* \"#utility.yul\":31354:31360   */\n      dup4\n        /* \"#utility.yul\":31351:31365   */\n      gt\n        /* \"#utility.yul\":31379:31380   */\n      0x01\n        /* \"#utility.yul\":31374:31992   */\n      dup2\n      eq\n      tag_535\n      jumpi\n        /* \"#utility.yul\":32036:32037   */\n      0x00\n        /* \"#utility.yul\":32053:32059   */\n      dup5\n        /* \"#utility.yul\":32050:32127   */\n      iszero\n      tag_536\n      jumpi\n        /* \"#utility.yul\":32102:32111   */\n      dup3\n        /* \"#utility.yul\":32097:32100   */\n      dup8\n        /* \"#utility.yul\":32093:32112   */\n      add\n        /* \"#utility.yul\":32087:32113   */\n      mload\n        /* \"#utility.yul\":32078:32113   */\n      swap1\n      pop\n        /* \"#utility.yul\":32050:32127   */\n    tag_536:\n        /* \"#utility.yul\":32153:32220   */\n      tag_537\n        /* \"#utility.yul\":32213:32219   */\n      dup6\n        /* \"#utility.yul\":32206:32211   */\n      dup3\n        /* \"#utility.yul\":32153:32220   */\n      tag_249\n      jump\t// in\n    tag_537:\n        /* \"#utility.yul\":32147:32151   */\n      dup7\n        /* \"#utility.yul\":32140:32221   */\n      sstore\n        /* \"#utility.yul\":32009:32231   */\n      pop\n        /* \"#utility.yul\":31344:32231   */\n      jump(tag_534)\n        /* \"#utility.yul\":31374:31992   */\n    tag_535:\n        /* \"#utility.yul\":31426:31430   */\n      0x1f\n        /* \"#utility.yul\":31422:31431   */\n      not\n        /* \"#utility.yul\":31414:31420   */\n      dup5\n        /* \"#utility.yul\":31410:31432   */\n      and\n        /* \"#utility.yul\":31460:31497   */\n      tag_538\n        /* \"#utility.yul\":31492:31496   */\n      dup7\n        /* \"#utility.yul\":31460:31497   */\n      tag_235\n      jump\t// in\n    tag_538:\n        /* \"#utility.yul\":31519:31520   */\n      0x00\n        /* \"#utility.yul\":31533:31741   */\n    tag_539:\n        /* \"#utility.yul\":31547:31554   */\n      dup3\n        /* \"#utility.yul\":31544:31545   */\n      dup2\n        /* \"#utility.yul\":31541:31555   */\n      lt\n        /* \"#utility.yul\":31533:31741   */\n      iszero\n      tag_541\n      jumpi\n        /* \"#utility.yul\":31626:31635   */\n      dup5\n        /* \"#utility.yul\":31621:31624   */\n      dup10\n        /* \"#utility.yul\":31617:31636   */\n      add\n        /* \"#utility.yul\":31611:31637   */\n      mload\n        /* \"#utility.yul\":31603:31609   */\n      dup3\n        /* \"#utility.yul\":31596:31638   */\n      sstore\n        /* \"#utility.yul\":31677:31678   */\n      0x01\n        /* \"#utility.yul\":31669:31675   */\n      dup3\n        /* \"#utility.yul\":31665:31679   */\n      add\n        /* \"#utility.yul\":31655:31679   */\n      swap2\n      pop\n        /* \"#utility.yul\":31724:31726   */\n      0x20\n        /* \"#utility.yul\":31713:31722   */\n      dup6\n        /* \"#utility.yul\":31709:31727   */\n      add\n        /* \"#utility.yul\":31696:31727   */\n      swap5\n      pop\n        /* \"#utility.yul\":31570:31574   */\n      0x20\n        /* \"#utility.yul\":31567:31568   */\n      dup2\n        /* \"#utility.yul\":31563:31575   */\n      add\n        /* \"#utility.yul\":31558:31575   */\n      swap1\n      pop\n        /* \"#utility.yul\":31533:31741   */\n      jump(tag_539)\n    tag_541:\n        /* \"#utility.yul\":31769:31775   */\n      dup7\n        /* \"#utility.yul\":31760:31767   */\n      dup4\n        /* \"#utility.yul\":31757:31776   */\n      lt\n        /* \"#utility.yul\":31754:31933   */\n      iszero\n      tag_542\n      jumpi\n        /* \"#utility.yul\":31827:31836   */\n      dup5\n        /* \"#utility.yul\":31822:31825   */\n      dup10\n        /* \"#utility.yul\":31818:31837   */\n      add\n        /* \"#utility.yul\":31812:31838   */\n      mload\n        /* \"#utility.yul\":31870:31918   */\n      tag_543\n        /* \"#utility.yul\":31912:31916   */\n      0x1f\n        /* \"#utility.yul\":31904:31910   */\n      dup10\n        /* \"#utility.yul\":31900:31917   */\n      and\n        /* \"#utility.yul\":31889:31898   */\n      dup3\n        /* \"#utility.yul\":31870:31918   */\n      tag_248\n      jump\t// in\n    tag_543:\n        /* \"#utility.yul\":31862:31868   */\n      dup4\n        /* \"#utility.yul\":31855:31919   */\n      sstore\n        /* \"#utility.yul\":31777:31933   */\n      pop\n        /* \"#utility.yul\":31754:31933   */\n    tag_542:\n        /* \"#utility.yul\":31979:31980   */\n      0x01\n        /* \"#utility.yul\":31975:31976   */\n      0x02\n        /* \"#utility.yul\":31967:31973   */\n      dup9\n        /* \"#utility.yul\":31963:31977   */\n      mul\n        /* \"#utility.yul\":31959:31981   */\n      add\n        /* \"#utility.yul\":31953:31957   */\n      dup9\n        /* \"#utility.yul\":31946:31982   */\n      sstore\n        /* \"#utility.yul\":31381:31992   */\n      pop\n      pop\n      pop\n        /* \"#utility.yul\":31344:32231   */\n    tag_534:\n      pop\n        /* \"#utility.yul\":30934:32237   */\n      pop\n      pop\n      pop\n        /* \"#utility.yul\":30842:32237   */\n      pop\n      pop\n      jump\t// out\n        /* \"#utility.yul\":32243:32434   */\n    tag_155:\n        /* \"#utility.yul\":32283:32286   */\n      0x00\n        /* \"#utility.yul\":32302:32322   */\n      tag_545\n        /* \"#utility.yul\":32320:32321   */\n      dup3\n        /* \"#utility.yul\":32302:32322   */\n      tag_168\n      jump\t// in\n    tag_545:\n        /* \"#utility.yul\":32297:32322   */\n      swap2\n      pop\n        /* \"#utility.yul\":32336:32356   */\n      tag_546\n        /* \"#utility.yul\":32354:32355   */\n      dup4\n        /* \"#utility.yul\":32336:32356   */\n      tag_168\n      jump\t// in\n    tag_546:\n        /* \"#utility.yul\":32331:32356   */\n      swap3\n      pop\n        /* \"#utility.yul\":32379:32380   */\n      dup3\n        /* \"#utility.yul\":32376:32377   */\n      dup3\n        /* \"#utility.yul\":32372:32381   */\n      add\n        /* \"#utility.yul\":32365:32381   */\n      swap1\n      pop\n        /* \"#utility.yul\":32400:32403   */\n      dup1\n        /* \"#utility.yul\":32397:32398   */\n      dup3\n        /* \"#utility.yul\":32394:32404   */\n      gt\n        /* \"#utility.yul\":32391:32427   */\n      iszero\n      tag_547\n      jumpi\n        /* \"#utility.yul\":32407:32425   */\n      tag_548\n      tag_224\n      jump\t// in\n    tag_548:\n        /* \"#utility.yul\":32391:32427   */\n    tag_547:\n        /* \"#utility.yul\":32243:32434   */\n      swap3\n      swap2\n      pop\n      pop\n      jump\t// out\n        /* \"#utility.yul\":32440:32973   */\n    tag_164:\n        /* \"#utility.yul\":32609:32613   */\n      0x00\n        /* \"#utility.yul\":32647:32649   */\n      0x60\n        /* \"#utility.yul\":32636:32645   */\n      dup3\n        /* \"#utility.yul\":32632:32650   */\n      add\n        /* \"#utility.yul\":32624:32650   */\n      swap1\n      pop\n        /* \"#utility.yul\":32660:32731   */\n      tag_550\n        /* \"#utility.yul\":32728:32729   */\n      0x00\n        /* \"#utility.yul\":32717:32726   */\n      dup4\n        /* \"#utility.yul\":32713:32730   */\n      add\n        /* \"#utility.yul\":32704:32710   */\n      dup7\n        /* \"#utility.yul\":32660:32731   */\n      tag_187\n      jump\t// in\n    tag_550:\n        /* \"#utility.yul\":32778:32787   */\n      dup2\n        /* \"#utility.yul\":32772:32776   */\n      dup2\n        /* \"#utility.yul\":32768:32788   */\n      sub\n        /* \"#utility.yul\":32763:32765   */\n      0x20\n        /* \"#utility.yul\":32752:32761   */\n      dup4\n        /* \"#utility.yul\":32748:32766   */\n      add\n        /* \"#utility.yul\":32741:32789   */\n      mstore\n        /* \"#utility.yul\":32806:32884   */\n      tag_551\n        /* \"#utility.yul\":32879:32883   */\n      dup2\n        /* \"#utility.yul\":32870:32876   */\n      dup6\n        /* \"#utility.yul\":32806:32884   */\n      tag_175\n      jump\t// in\n    tag_551:\n        /* \"#utility.yul\":32798:32884   */\n      swap1\n      pop\n        /* \"#utility.yul\":32894:32966   */\n      tag_552\n        /* \"#utility.yul\":32962:32964   */\n      0x40\n        /* \"#utility.yul\":32951:32960   */\n      dup4\n        /* \"#utility.yul\":32947:32965   */\n      add\n        /* \"#utility.yul\":32938:32944   */\n      dup5\n        /* \"#utility.yul\":32894:32966   */\n      tag_186\n      jump\t// in\n    tag_552:\n        /* \"#utility.yul\":32440:32973   */\n      swap5\n      swap4\n      pop\n      pop\n      pop\n      pop\n      jump\t// out\n\n    auxdata: 0xa26469706673582212205017eed08c562a1f676191d3776ebc94be64f6f34a1d9af37f746d962551eda664736f6c634300081e0033\n}\n",
				"bytecode": {
					"linkReferences": {},
					"object": "6080604052348015600e575f5ffd5b50611e2c8061001c5f395ff3fe608060405234801561000f575f5ffd5b506004361061009c575f3560e01c80639207891d116100645780639207891d14610171578063ac2f00741461018f578063b384abef146101c4578063f43b8778146101e0578063f8c860f4146101fc5761009c565b806329b8f44a146100a057806333b4097b146100d557806343859632146101055780636f13ab00146101355780638280264b14610153575b5f5ffd5b6100ba60048036038101906100b59190610e29565b61022c565b6040516100cc9695949392919061102f565b60405180910390f35b6100ef60048036038101906100ea9190610e29565b61044e565b6040516100fc9190611153565b60405180910390f35b61011f600480360381019061011a919061119d565b610568565b60405161012c91906111db565b60405180910390f35b61013d61061f565b60405161014a91906111f4565b60405180910390f35b61015b610624565b60405161016891906111f4565b60405180910390f35b61017961062c565b60405161018691906111f4565b60405180910390f35b6101a960048036038101906101a49190610e29565b610632565b6040516101bb9695949392919061120d565b60405180910390f35b6101de60048036038101906101d99190611273565b61071b565b005b6101fa60048036038101906101f59190610e29565b6109f3565b005b610216600480360381019061021191906114bf565b610ba2565b60405161022391906111f4565b60405180910390f35b6060805f5f5f5f866001548110801561024557505f8110155b610284576040517f08c379a000000000000000000000000000000000000000000000000000000000815260040161027b90611591565b60405180910390fd5b5f60025f8a81526020019081526020015f2090508060010181600201826005015f9054906101000a900473ffffffffffffffffffffffffffffffffffffffff1683600601548460070154856008015f9054906101000a900460ff168580546102eb906115dc565b80601f0160208091040260200160405190810160405280929190818152602001828054610317906115dc565b80156103625780601f1061033957610100808354040283529160200191610362565b820191905f5260205f20905b81548152906001019060200180831161034557829003601f168201915b5050505050955084805480602002602001604051908101604052809291908181526020015f905b82821015610431578382905f5260205f200180546103a6906115dc565b80601f01602080910402602001604051908101604052809291908181526020018280546103d2906115dc565b801561041d5780601f106103f45761010080835404028352916020019161041d565b820191905f5260205f20905b81548152906001019060200180831161040057829003601f168201915b505050505081526020019060010190610389565b505050509450975097509750975097509750505091939550919395565b6060816001548110801561046257505f8110155b6104a1576040517f08c379a000000000000000000000000000000000000000000000000000000000815260040161049890611591565b60405180910390fd5b5f60025f8581526020019081526020015f2090505f816002018054905067ffffffffffffffff8111156104d7576104d66112b9565b5b6040519080825280602002602001820160405280156105055781602001602082028036833780820191505090505b5090505f5f90505b826002018054905081101561055c57826003015f8281526020019081526020015f20548282815181106105435761054261160c565b5b602002602001018181525050808060010191505061050d565b50809350505050919050565b5f826001548110801561057b57505f8110155b6105ba576040517f08c379a00000000000000000000000000000000000000000000000000000000081526004016105b190611591565b60405180910390fd5b60025f8581526020019081526020015f206004015f8473ffffffffffffffffffffffffffffffffffffffff1673ffffffffffffffffffffffffffffffffffffffff1681526020019081526020015f205f9054906101000a900460ff1691505092915050565b5f5481565b5f5f54905090565b60015481565b6002602052805f5260405f205f91509050805f015490806001018054610657906115dc565b80601f0160208091040260200160405190810160405280929190818152602001828054610683906115dc565b80156106ce5780601f106106a5576101008083540402835291602001916106ce565b820191905f5260205f20905b8154815290600101906020018083116106b157829003601f168201915b505050505090806005015f9054906101000a900473ffffffffffffffffffffffffffffffffffffffff1690806006015490806007015490806008015f9054906101000a900460ff16905086565b816001548110801561072d57505f8110155b61076c576040517f08c379a000000000000000000000000000000000000000000000000000000000815260040161076390611591565b60405180910390fd5b5f60025f8581526020019081526020015f209050806008015f9054906101000a900460ff166107d0576040517f08c379a00000000000000000000000000000000000000000000000000000000081526004016107c790611683565b60405180910390fd5b8060060154421015610817576040517f08c379a000000000000000000000000000000000000000000000000000000000815260040161080e906116eb565b60405180910390fd5b806007015442111561085e576040517f08c379a000000000000000000000000000000000000000000000000000000000815260040161085590611753565b60405180910390fd5b806004015f3373ffffffffffffffffffffffffffffffffffffffff1673ffffffffffffffffffffffffffffffffffffffff1681526020019081526020015f205f9054906101000a900460ff16156108ea576040517f08c379a00000000000000000000000000000000000000000000000000000000081526004016108e1906117bb565b60405180910390fd5b80600201805490508310610933576040517f08c379a000000000000000000000000000000000000000000000000000000000815260040161092a90611823565b60405180910390fd5b806003015f8481526020019081526020015f205f8154809291906109569061186e565b91905055506001816004015f3373ffffffffffffffffffffffffffffffffffffffff1673ffffffffffffffffffffffffffffffffffffffff1681526020019081526020015f205f6101000a81548160ff0219169083151502179055507f2acce567deca3aabf56327adbb4524bd5318936eaefa69e3a5208ffda0cfec098433856040516109e5939291906118b5565b60405180910390a150505050565b803373ffffffffffffffffffffffffffffffffffffffff1660025f8381526020019081526020015f206005015f9054906101000a900473ffffffffffffffffffffffffffffffffffffffff1673ffffffffffffffffffffffffffffffffffffffff1614610a95576040517f08c379a0000000000000000000000000000000000000000000000000000000008152600401610a8c9061195a565b60405180910390fd5b8160015481108015610aa757505f8110155b610ae6576040517f08c379a0000000000000000000000000000000000000000000000000000000008152600401610add90611591565b60405180910390fd5b5f60025f8581526020019081526020015f209050806008015f9054906101000a900460ff16610b4a576040517f08c379a0000000000000000000000000000000000000000000000000000000008152600401610b41906119c2565b60405180910390fd5b5f816008015f6101000a81548160ff0219169083151502179055507f14d4cfc1c2a6f37c8f97ad80fc12bd9d943ea6d4dd7684137850125597ce9bf784604051610b9491906111f4565b60405180910390a150505050565b5f5f845111610be6576040517f08c379a0000000000000000000000000000000000000000000000000000000008152600401610bdd90611a2a565b60405180910390fd5b600283511015610c2b576040517f08c379a0000000000000000000000000000000000000000000000000000000008152600401610c2290611a92565b60405180910390fd5b5f8211610c6d576040517f08c379a0000000000000000000000000000000000000000000000000000000008152600401610c6490611afa565b60405180910390fd5b60015f815480929190610c7f9061186e565b919050555f819055505f60025f5f5481526020019081526020015f2090505f54815f018190555084816001019081610cb79190611cb8565b5033816005015f6101000a81548173ffffffffffffffffffffffffffffffffffffffff021916908373ffffffffffffffffffffffffffffffffffffffff1602179055504281600601819055508242610d0f9190611d87565b81600701819055506001816008015f6101000a81548160ff0219169083151502179055505f5f90505b8451811015610d9c5781600201858281518110610d5857610d5761160c565b5b6020026020010151908060018154018082558091505060019003905f5260205f20015f909190919091509081610d8e9190611cb8565b508080600101915050610d38565b507fd2a8dbeae3cac9e94402cc3d7e3ee6cb0a2c32d2e426bf82f24b87ffd1089efd5f548633604051610dd193929190611dba565b60405180910390a15f549150509392505050565b5f604051905090565b5f5ffd5b5f5ffd5b5f819050919050565b610e0881610df6565b8114610e12575f5ffd5b50565b5f81359050610e2381610dff565b92915050565b5f60208284031215610e3e57610e3d610dee565b5b5f610e4b84828501610e15565b91505092915050565b5f81519050919050565b5f82825260208201905092915050565b8281835e5f83830152505050565b5f601f19601f8301169050919050565b5f610e9682610e54565b610ea08185610e5e565b9350610eb0818560208601610e6e565b610eb981610e7c565b840191505092915050565b5f81519050919050565b5f82825260208201905092915050565b5f819050602082019050919050565b5f82825260208201905092915050565b5f610f0782610e54565b610f118185610eed565b9350610f21818560208601610e6e565b610f2a81610e7c565b840191505092915050565b5f610f408383610efd565b905092915050565b5f602082019050919050565b5f610f5e82610ec4565b610f688185610ece565b935083602082028501610f7a85610ede565b805f5b85811015610fb55784840389528151610f968582610f35565b9450610fa183610f48565b925060208a01995050600181019050610f7d565b50829750879550505050505092915050565b5f73ffffffffffffffffffffffffffffffffffffffff82169050919050565b5f610ff082610fc7565b9050919050565b61100081610fe6565b82525050565b61100f81610df6565b82525050565b5f8115159050919050565b61102981611015565b82525050565b5f60c0820190508181035f8301526110478189610e8c565b9050818103602083015261105b8188610f54565b905061106a6040830187610ff7565b6110776060830186611006565b6110846080830185611006565b61109160a0830184611020565b979650505050505050565b5f81519050919050565b5f82825260208201905092915050565b5f819050602082019050919050565b6110ce81610df6565b82525050565b5f6110df83836110c5565b60208301905092915050565b5f602082019050919050565b5f6111018261109c565b61110b81856110a6565b9350611116836110b6565b805f5b8381101561114657815161112d88826110d4565b9750611138836110eb565b925050600181019050611119565b5085935050505092915050565b5f6020820190508181035f83015261116b81846110f7565b905092915050565b61117c81610fe6565b8114611186575f5ffd5b50565b5f8135905061119781611173565b92915050565b5f5f604083850312156111b3576111b2610dee565b5b5f6111c085828601610e15565b92505060206111d185828601611189565b9150509250929050565b5f6020820190506111ee5f830184611020565b92915050565b5f6020820190506112075f830184611006565b92915050565b5f60c0820190506112205f830189611006565b81810360208301526112328188610e8c565b90506112416040830187610ff7565b61124e6060830186611006565b61125b6080830185611006565b61126860a0830184611020565b979650505050505050565b5f5f6040838503121561128957611288610dee565b5b5f61129685828601610e15565b92505060206112a785828601610e15565b9150509250929050565b5f5ffd5b5f5ffd5b7f4e487b71000000000000000000000000000000000000000000000000000000005f52604160045260245ffd5b6112ef82610e7c565b810181811067ffffffffffffffff8211171561130e5761130d6112b9565b5b80604052505050565b5f611320610de5565b905061132c82826112e6565b919050565b5f67ffffffffffffffff82111561134b5761134a6112b9565b5b61135482610e7c565b9050602081019050919050565b828183375f83830152505050565b5f61138161137c84611331565b611317565b90508281526020810184848401111561139d5761139c6112b5565b5b6113a8848285611361565b509392505050565b5f82601f8301126113c4576113c36112b1565b5b81356113d484826020860161136f565b91505092915050565b5f67ffffffffffffffff8211156113f7576113f66112b9565b5b602082029050602081019050919050565b5f5ffd5b5f61141e611419846113dd565b611317565b9050808382526020820190506020840283018581111561144157611440611408565b5b835b8181101561148857803567ffffffffffffffff811115611466576114656112b1565b5b80860161147389826113b0565b85526020850194505050602081019050611443565b5050509392505050565b5f82601f8301126114a6576114a56112b1565b5b81356114b684826020860161140c565b91505092915050565b5f5f5f606084860312156114d6576114d5610dee565b5b5f84013567ffffffffffffffff8111156114f3576114f2610df2565b5b6114ff868287016113b0565b935050602084013567ffffffffffffffff8111156115205761151f610df2565b5b61152c86828701611492565b925050604061153d86828701610e15565b9150509250925092565b7f506f6c6c20646f6573206e6f74206578697374000000000000000000000000005f82015250565b5f61157b601383610e5e565b915061158682611547565b602082019050919050565b5f6020820190508181035f8301526115a88161156f565b9050919050565b7f4e487b71000000000000000000000000000000000000000000000000000000005f52602260045260245ffd5b5f60028204905060018216806115f357607f821691505b602082108103611606576116056115af565b5b50919050565b7f4e487b71000000000000000000000000000000000000000000000000000000005f52603260045260245ffd5b7f506f6c6c206973206e6f742061637469766500000000000000000000000000005f82015250565b5f61166d601283610e5e565b915061167882611639565b602082019050919050565b5f6020820190508181035f83015261169a81611661565b9050919050565b7f506f6c6c20686173206e6f7420737461727465642079657400000000000000005f82015250565b5f6116d5601883610e5e565b91506116e0826116a1565b602082019050919050565b5f6020820190508181035f830152611702816116c9565b9050919050565b7f506f6c6c2068617320656e6465640000000000000000000000000000000000005f82015250565b5f61173d600e83610e5e565b915061174882611709565b602082019050919050565b5f6020820190508181035f83015261176a81611731565b9050919050565b7f416c726561647920766f746564000000000000000000000000000000000000005f82015250565b5f6117a5600d83610e5e565b91506117b082611771565b602082019050919050565b5f6020820190508181035f8301526117d281611799565b9050919050565b7f496e76616c6964206f7074696f6e0000000000000000000000000000000000005f82015250565b5f61180d600e83610e5e565b9150611818826117d9565b602082019050919050565b5f6020820190508181035f83015261183a81611801565b9050919050565b7f4e487b71000000000000000000000000000000000000000000000000000000005f52601160045260245ffd5b5f61187882610df6565b91507fffffffffffffffffffffffffffffffffffffffffffffffffffffffffffffffff82036118aa576118a9611841565b5b600182019050919050565b5f6060820190506118c85f830186611006565b6118d56020830185610ff7565b6118e26040830184611006565b949350505050565b7f4f6e6c7920706f6c6c2063726561746f722063616e20706572666f726d2074685f8201527f697320616374696f6e0000000000000000000000000000000000000000000000602082015250565b5f611944602983610e5e565b915061194f826118ea565b604082019050919050565b5f6020820190508181035f83015261197181611938565b9050919050565b7f506f6c6c20616c726561647920656e64656400000000000000000000000000005f82015250565b5f6119ac601283610e5e565b91506119b782611978565b602082019050919050565b5f6020820190508181035f8301526119d9816119a0565b9050919050565b7f5175657374696f6e2063616e6e6f7420626520656d70747900000000000000005f82015250565b5f611a14601883610e5e565b9150611a1f826119e0565b602082019050919050565b5f6020820190508181035f830152611a4181611a08565b9050919050565b7f4174206c656173742032206f7074696f6e7320726571756972656400000000005f82015250565b5f611a7c601b83610e5e565b9150611a8782611a48565b602082019050919050565b5f6020820190508181035f830152611aa981611a70565b9050919050565b7f4475726174696f6e206d75737420626520706f736974697665000000000000005f82015250565b5f611ae4601983610e5e565b9150611aef82611ab0565b602082019050919050565b5f6020820190508181035f830152611b1181611ad8565b9050919050565b5f819050815f5260205f209050919050565b5f6020601f8301049050919050565b5f82821b905092915050565b5f60088302611b747fffffffffffffffffffffffffffffffffffffffffffffffffffffffffffffffff82611b39565b611b7e8683611b39565b95508019841693508086168417925050509392505050565b5f819050919050565b5f611bb9611bb4611baf84610df6565b611b96565b610df6565b9050919050565b5f819050919050565b611bd283611b9f565b611be6611bde82611bc0565b848454611b45565b825550505050565b5f5f905090565b611bfd611bee565b611c08818484611bc9565b505050565b5b81811015611c2b57611c205f82611bf5565b600181019050611c0e565b5050565b601f821115611c7057611c4181611b18565b611c4a84611b2a565b81016020851015611c59578190505b611c6d611c6585611b2a565b830182611c0d565b50505b505050565b5f82821c905092915050565b5f611c905f1984600802611c75565b1980831691505092915050565b5f611ca88383611c81565b9150826002028217905092915050565b611cc182610e54565b67ffffffffffffffff811115611cda57611cd96112b9565b5b611ce482546115dc565b611cef828285611c2f565b5f60209050601f831160018114611d20575f8415611d0e578287015190505b611d188582611c9d565b865550611d7f565b601f198416611d2e86611b18565b5f5b82811015611d5557848901518255600182019150602085019450602081019050611d30565b86831015611d725784890151611d6e601f891682611c81565b8355505b6001600288020188555050505b505050505050565b5f611d9182610df6565b9150611d9c83610df6565b9250828201905080821115611db457611db3611841565b5b92915050565b5f606082019050611dcd5f830186611006565b8181036020830152611ddf8185610e8c565b9050611dee6040830184610ff7565b94935050505056fea26469706673582212205017eed08c562a1f676191d3776ebc94be64f6f34a1d9af37f746d962551eda664736f6c634300081e0033",
					"opcodes": "PUSH1 0x80 PUSH1 0x40 MSTORE CALLVALUE DUP1 ISZERO PUSH1 0xE JUMPI PUSH0 PUSH0 REVERT JUMPDEST POP PUSH2 0x1E2C DUP1 PUSH2 0x1C PUSH0 CODECOPY PUSH0 RETURN INVALID PUSH1 0x80 PUSH1 0x40 MSTORE CALLVALUE DUP1 ISZERO PUSH2 0xF JUMPI PUSH0 PUSH0 REVERT JUMPDEST POP PUSH1 0x4 CALLDATASIZE LT PUSH2 0x9C JUMPI PUSH0 CALLDATALOAD PUSH1 0xE0 SHR DUP1 PUSH4 0x9207891D GT PUSH2 0x64 JUMPI DUP1 PUSH4 0x9207891D EQ PUSH2 0x171 JUMPI DUP1 PUSH4 0xAC2F0074 EQ PUSH2 0x18F JUMPI DUP1 PUSH4 0xB384ABEF EQ PUSH2 0x1C4 JUMPI DUP1 PUSH4 0xF43B8778 EQ PUSH2 0x1E0 JUMPI DUP1 PUSH4 0xF8C860F4 EQ PUSH2 0x1FC JUMPI PUSH2 0x9C JUMP JUMPDEST DUP1 PUSH4 0x29B8F44A EQ PUSH2 0xA0 JUMPI DUP1 PUSH4 0x33B4097B EQ PUSH2 0xD5 JUMPI DUP1 PUSH4 0x43859632 EQ PUSH2 0x105 JUMPI DUP1 PUSH4 0x6F13AB00 EQ PUSH2 0x135 JUMPI DUP1 PUSH4 0x8280264B EQ PUSH2 0x153 JUMPI JUMPDEST PUSH0 PUSH0 REVERT JUMPDEST PUSH2 0xBA PUSH1 0x4 DUP1 CALLDATASIZE SUB DUP2 ADD SWAP1 PUSH2 0xB5 SWAP2 SWAP1 PUSH2 0xE29 JUMP JUMPDEST PUSH2 0x22C JUMP JUMPDEST PUSH1 0x40 MLOAD PUSH2 0xCC SWAP7 SWAP6 SWAP5 SWAP4 SWAP3 SWAP2 SWAP1 PUSH2 0x102F JUMP JUMPDEST PUSH1 0x40 MLOAD DUP1 SWAP2 SUB SWAP1 RETURN JUMPDEST PUSH2 0xEF PUSH1 0x4 DUP1 CALLDATASIZE SUB DUP2 ADD SWAP1 PUSH2 0xEA SWAP2 SWAP1 PUSH2 0xE29 JUMP JUMPDEST PUSH2 0x44E JUMP JUMPDEST PUSH1 0x40 MLOAD PUSH2 0xFC SWAP2 SWAP1 PUSH2 0x1153 JUMP JUMPDEST PUSH1 0x40 MLOAD DUP1 SWAP2 SUB SWAP1 RETURN JUMPDEST PUSH2 0x11F PUSH1 0x4 DUP1 CALLDATASIZE SUB DUP2 ADD SWAP1 PUSH2 0x11A SWAP2 SWAP1 PUSH2 0x119D JUMP JUMPDEST PUSH2 0x568 JUMP JUMPDEST PUSH1 0x40 MLOAD PUSH2 0x12C SWAP2 SWAP1 PUSH2 0x11DB JUMP JUMPDEST PUSH1 0x40 MLOAD DUP1 SWAP2 SUB SWAP1 RETURN JUMPDEST PUSH2 0x13D PUSH2 0x61F JUMP JUMPDEST PUSH1 0x40 MLOAD PUSH2 0x14A SWAP2 SWAP1 PUSH2 0x11F4 JUMP JUMPDEST PUSH1 0x40 MLOAD DUP1 SWAP2 SUB SWAP1 RETURN JUMPDEST PUSH2 0x15B PUSH2 0x624 JUMP JUMPDEST PUSH1 0x40 MLOAD PUSH2 0x168 SWAP2 SWAP1 PUSH2 0x11F4 JUMP JUMPDEST PUSH1 0x40 MLOAD DUP1 SWAP2 SUB SWAP1 RETURN JUMPDEST PUSH2 0x179 PUSH2 0x62C JUMP JUMPDEST PUSH1 0x40 MLOAD PUSH2 0x186 SWAP2 SWAP1 PUSH2 0x11F4 JUMP JUMPDEST PUSH1 0x40 MLOAD DUP1 SWAP2 SUB SWAP1 RETURN JUMPDEST PUSH2 0x1A9 PUSH1 0x4 DUP1 CALLDATASIZE SUB DUP2 ADD SWAP1 PUSH2 0x1A4 SWAP2 SWAP1 PUSH2 0xE29 JUMP JUMPDEST PUSH2 0x632 JUMP JUMPDEST PUSH1 0x40 MLOAD PUSH2 0x1BB SWAP7 SWAP6 SWAP5 SWAP4 SWAP3 SWAP2 SWAP1 PUSH2 0x120D JUMP JUMPDEST PUSH1 0x40 MLOAD DUP1 SWAP2 SUB SWAP1 RETURN JUMPDEST PUSH2 0x1DE PUSH1 0x4 DUP1 CALLDATASIZE SUB DUP2 ADD SWAP1 PUSH2 0x1D9 SWAP2 SWAP1 PUSH2 0x1273 JUMP JUMPDEST PUSH2 0x71B JUMP JUMPDEST STOP JUMPDEST PUSH2 0x1FA PUSH1 0x4 DUP1 CALLDATASIZE SUB DUP2 ADD SWAP1 PUSH2 0x1F5 SWAP2 SWAP1 PUSH2 0xE29 JUMP JUMPDEST PUSH2 0x9F3 JUMP JUMPDEST STOP JUMPDEST PUSH2 0x216 PUSH1 0x4 DUP1 CALLDATASIZE SUB DUP2 ADD SWAP1 PUSH2 0x211 SWAP2 SWAP1 PUSH2 0x14BF JUMP JUMPDEST PUSH2 0xBA2 JUMP JUMPDEST PUSH1 0x40 MLOAD PUSH2 0x223 SWAP2 SWAP1 PUSH2 0x11F4 JUMP JUMPDEST PUSH1 0x40 MLOAD DUP1 SWAP2 SUB SWAP1 RETURN JUMPDEST PUSH1 0x60 DUP1 PUSH0 PUSH0 PUSH0 PUSH0 DUP7 PUSH1 0x1 SLOAD DUP2 LT DUP1 ISZERO PUSH2 0x245 JUMPI POP PUSH0 DUP2 LT ISZERO JUMPDEST PUSH2 0x284 JUMPI PUSH1 0x40 MLOAD PUSH32 0x8C379A000000000000000000000000000000000000000000000000000000000 DUP2 MSTORE PUSH1 0x4 ADD PUSH2 0x27B SWAP1 PUSH2 0x1591 JUMP JUMPDEST PUSH1 0x40 MLOAD DUP1 SWAP2 SUB SWAP1 REVERT JUMPDEST PUSH0 PUSH1 0x2 PUSH0 DUP11 DUP2 MSTORE PUSH1 0x20 ADD SWAP1 DUP2 MSTORE PUSH1 0x20 ADD PUSH0 KECCAK256 SWAP1 POP DUP1 PUSH1 0x1 ADD DUP2 PUSH1 0x2 ADD DUP3 PUSH1 0x5 ADD PUSH0 SWAP1 SLOAD SWAP1 PUSH2 0x100 EXP SWAP1 DIV PUSH20 0xFFFFFFFFFFFFFFFFFFFFFFFFFFFFFFFFFFFFFFFF AND DUP4 PUSH1 0x6 ADD SLOAD DUP5 PUSH1 0x7 ADD SLOAD DUP6 PUSH1 0x8 ADD PUSH0 SWAP1 SLOAD SWAP1 PUSH2 0x100 EXP SWAP1 DIV PUSH1 0xFF AND DUP6 DUP1 SLOAD PUSH2 0x2EB SWAP1 PUSH2 0x15DC JUMP JUMPDEST DUP1 PUSH1 0x1F ADD PUSH1 0x20 DUP1 SWAP2 DIV MUL PUSH1 0x20 ADD PUSH1 0x40 MLOAD SWAP1 DUP2 ADD PUSH1 0x40 MSTORE DUP1 SWAP3 SWAP2 SWAP1 DUP2 DUP2 MSTORE PUSH1 0x20 ADD DUP3 DUP1 SLOAD PUSH2 0x317 SWAP1 PUSH2 0x15DC JUMP JUMPDEST DUP1 ISZERO PUSH2 0x362 JUMPI DUP1 PUSH1 0x1F LT PUSH2 0x339 JUMPI PUSH2 0x100 DUP1 DUP4 SLOAD DIV MUL DUP4 MSTORE SWAP2 PUSH1 0x20 ADD SWAP2 PUSH2 0x362 JUMP JUMPDEST DUP3 ADD SWAP2 SWAP1 PUSH0 MSTORE PUSH1 0x20 PUSH0 KECCAK256 SWAP1 JUMPDEST DUP2 SLOAD DUP2 MSTORE SWAP1 PUSH1 0x1 ADD SWAP1 PUSH1 0x20 ADD DUP1 DUP4 GT PUSH2 0x345 JUMPI DUP3 SWAP1 SUB PUSH1 0x1F AND DUP3 ADD SWAP2 JUMPDEST POP POP POP POP POP SWAP6 POP DUP5 DUP1 SLOAD DUP1 PUSH1 0x20 MUL PUSH1 0x20 ADD PUSH1 0x40 MLOAD SWAP1 DUP2 ADD PUSH1 0x40 MSTORE DUP1 SWAP3 SWAP2 SWAP1 DUP2 DUP2 MSTORE PUSH1 0x20 ADD PUSH0 SWAP1 JUMPDEST DUP3 DUP3 LT ISZERO PUSH2 0x431 JUMPI DUP4 DUP3 SWAP1 PUSH0 MSTORE PUSH1 0x20 PUSH0 KECCAK256 ADD DUP1 SLOAD PUSH2 0x3A6 SWAP1 PUSH2 0x15DC JUMP JUMPDEST DUP1 PUSH1 0x1F ADD PUSH1 0x20 DUP1 SWAP2 DIV MUL PUSH1 0x20 ADD PUSH1 0x40 MLOAD SWAP1 DUP2 ADD PUSH1 0x40 MSTORE DUP1 SWAP3 SWAP2 SWAP1 DUP2 DUP2 MSTORE PUSH1 0x20 ADD DUP3 DUP1 SLOAD PUSH2 0x3D2 SWAP1 PUSH2 0x15DC JUMP JUMPDEST DUP1 ISZERO PUSH2 0x41D JUMPI DUP1 PUSH1 0x1F LT PUSH2 0x3F4 JUMPI PUSH2 0x100 DUP1 DUP4 SLOAD DIV MUL DUP4 MSTORE SWAP2 PUSH1 0x20 ADD SWAP2 PUSH2 0x41D JUMP JUMPDEST DUP3 ADD SWAP2 SWAP1 PUSH0 MSTORE PUSH1 0x20 PUSH0 KECCAK256 SWAP1 JUMPDEST DUP2 SLOAD DUP2 MSTORE SWAP1 PUSH1 0x1 ADD SWAP1 PUSH1 0x20 ADD DUP1 DUP4 GT PUSH2 0x400 JUMPI DUP3 SWAP1 SUB PUSH1 0x1F AND DUP3 ADD SWAP2 JUMPDEST POP POP POP POP POP DUP2 MSTORE PUSH1 0x20 ADD SWAP1 PUSH1 0x1 ADD SWAP1 PUSH2 0x389 JUMP JUMPDEST POP POP POP POP SWAP5 POP SWAP8 POP SWAP8 POP SWAP8 POP SWAP8 POP SWAP8 POP SWAP8 POP POP POP SWAP2 SWAP4 SWAP6 POP SWAP2 SWAP4 SWAP6 JUMP JUMPDEST PUSH1 0x60 DUP2 PUSH1 0x1 SLOAD DUP2 LT DUP1 ISZERO PUSH2 0x462 JUMPI POP PUSH0 DUP2 LT ISZERO JUMPDEST PUSH2 0x4A1 JUMPI PUSH1 0x40 MLOAD PUSH32 0x8C379A000000000000000000000000000000000000000000000000000000000 DUP2 MSTORE PUSH1 0x4 ADD PUSH2 0x498 SWAP1 PUSH2 0x1591 JUMP JUMPDEST PUSH1 0x40 MLOAD DUP1 SWAP2 SUB SWAP1 REVERT JUMPDEST PUSH0 PUSH1 0x2 PUSH0 DUP6 DUP2 MSTORE PUSH1 0x20 ADD SWAP1 DUP2 MSTORE PUSH1 0x20 ADD PUSH0 KECCAK256 SWAP1 POP PUSH0 DUP2 PUSH1 0x2 ADD DUP1 SLOAD SWAP1 POP PUSH8 0xFFFFFFFFFFFFFFFF DUP2 GT ISZERO PUSH2 0x4D7 JUMPI PUSH2 0x4D6 PUSH2 0x12B9 JUMP JUMPDEST JUMPDEST PUSH1 0x40 MLOAD SWAP1 DUP1 DUP3 MSTORE DUP1 PUSH1 0x20 MUL PUSH1 0x20 ADD DUP3 ADD PUSH1 0x40 MSTORE DUP1 ISZERO PUSH2 0x505 JUMPI DUP2 PUSH1 0x20 ADD PUSH1 0x20 DUP3 MUL DUP1 CALLDATASIZE DUP4 CALLDATACOPY DUP1 DUP3 ADD SWAP2 POP POP SWAP1 POP JUMPDEST POP SWAP1 POP PUSH0 PUSH0 SWAP1 POP JUMPDEST DUP3 PUSH1 0x2 ADD DUP1 SLOAD SWAP1 POP DUP2 LT ISZERO PUSH2 0x55C JUMPI DUP3 PUSH1 0x3 ADD PUSH0 DUP3 DUP2 MSTORE PUSH1 0x20 ADD SWAP1 DUP2 MSTORE PUSH1 0x20 ADD PUSH0 KECCAK256 SLOAD DUP3 DUP3 DUP2 MLOAD DUP2 LT PUSH2 0x543 JUMPI PUSH2 0x542 PUSH2 0x160C JUMP JUMPDEST JUMPDEST PUSH1 0x20 MUL PUSH1 0x20 ADD ADD DUP2 DUP2 MSTORE POP POP DUP1 DUP1 PUSH1 0x1 ADD SWAP2 POP POP PUSH2 0x50D JUMP JUMPDEST POP DUP1 SWAP4 POP POP POP POP SWAP2 SWAP1 POP JUMP JUMPDEST PUSH0 DUP3 PUSH1 0x1 SLOAD DUP2 LT DUP1 ISZERO PUSH2 0x57B JUMPI POP PUSH0 DUP2 LT ISZERO JUMPDEST PUSH2 0x5BA JUMPI PUSH1 0x40 MLOAD PUSH32 0x8C379A000000000000000000000000000000000000000000000000000000000 DUP2 MSTORE PUSH1 0x4 ADD PUSH2 0x5B1 SWAP1 PUSH2 0x1591 JUMP JUMPDEST PUSH1 0x40 MLOAD DUP1 SWAP2 SUB SWAP1 REVERT JUMPDEST PUSH1 0x2 PUSH0 DUP6 DUP2 MSTORE PUSH1 0x20 ADD SWAP1 DUP2 MSTORE PUSH1 0x20 ADD PUSH0 KECCAK256 PUSH1 0x4 ADD PUSH0 DUP5 PUSH20 0xFFFFFFFFFFFFFFFFFFFFFFFFFFFFFFFFFFFFFFFF AND PUSH20 0xFFFFFFFFFFFFFFFFFFFFFFFFFFFFFFFFFFFFFFFF AND DUP2 MSTORE PUSH1 0x20 ADD SWAP1 DUP2 MSTORE PUSH1 0x20 ADD PUSH0 KECCAK256 PUSH0 SWAP1 SLOAD SWAP1 PUSH2 0x100 EXP SWAP1 DIV PUSH1 0xFF AND SWAP2 POP POP SWAP3 SWAP2 POP POP JUMP JUMPDEST PUSH0 SLOAD DUP2 JUMP JUMPDEST PUSH0 PUSH0 SLOAD SWAP1 POP SWAP1 JUMP JUMPDEST PUSH1 0x1 SLOAD DUP2 JUMP JUMPDEST PUSH1 0x2 PUSH1 0x20 MSTORE DUP1 PUSH0 MSTORE PUSH1 0x40 PUSH0 KECCAK256 PUSH0 SWAP2 POP SWAP1 POP DUP1 PUSH0 ADD SLOAD SWAP1 DUP1 PUSH1 0x1 ADD DUP1 SLOAD PUSH2 0x657 SWAP1 PUSH2 0x15DC JUMP JUMPDEST DUP1 PUSH1 0x1F ADD PUSH1 0x20 DUP1 SWAP2 DIV MUL PUSH1 0x20 ADD PUSH1 0x40 MLOAD SWAP1 DUP2 ADD PUSH1 0x40 MSTORE DUP1 SWAP3 SWAP2 SWAP1 DUP2 DUP2 MSTORE PUSH1 0x20 ADD DUP3 DUP1 SLOAD PUSH2 0x683 SWAP1 PUSH2 0x15DC JUMP JUMPDEST DUP1 ISZERO PUSH2 0x6CE JUMPI DUP1 PUSH1 0x1F LT PUSH2 0x6A5 JUMPI PUSH2 0x100 DUP1 DUP4 SLOAD DIV MUL DUP4 MSTORE SWAP2 PUSH1 0x20 ADD SWAP2 PUSH2 0x6CE JUMP JUMPDEST DUP3 ADD SWAP2 SWAP1 PUSH0 MSTORE PUSH1 0x20 PUSH0 KECCAK256 SWAP1 JUMPDEST DUP2 SLOAD DUP2 MSTORE SWAP1 PUSH1 0x1 ADD SWAP1 PUSH1 0x20 ADD DUP1 DUP4 GT PUSH2 0x6B1 JUMPI DUP3 SWAP1 SUB PUSH1 0x1F AND DUP3 ADD SWAP2 JUMPDEST POP POP POP POP POP SWAP1 DUP1 PUSH1 0x5 ADD PUSH0 SWAP1 SLOAD SWAP1 PUSH2 0x100 EXP SWAP1 DIV PUSH20 0xFFFFFFFFFFFFFFFFFFFFFFFFFFFFFFFFFFFFFFFF AND SWAP1 DUP1 PUSH1 0x6 ADD SLOAD SWAP1 DUP1 PUSH1 0x7 ADD SLOAD SWAP1 DUP1 PUSH1 0x8 ADD PUSH0 SWAP1 SLOAD SWAP1 PUSH2 0x100 EXP SWAP1 DIV PUSH1 0xFF AND SWAP1 POP DUP7 JUMP JUMPDEST DUP2 PUSH1 0x1 SLOAD DUP2 LT DUP1 ISZERO PUSH2 0x72D JUMPI POP PUSH0 DUP2 LT ISZERO JUMPDEST PUSH2 0x76C JUMPI PUSH1 0x40 MLOAD PUSH32 0x8C379A000000000000000000000000000000000000000000000000000000000 DUP2 MSTORE PUSH1 0x4 ADD PUSH2 0x763 SWAP1 PUSH2 0x1591 JUMP JUMPDEST PUSH1 0x40 MLOAD DUP1 SWAP2 SUB SWAP1 REVERT JUMPDEST PUSH0 PUSH1 0x2 PUSH0 DUP6 DUP2 MSTORE PUSH1 0x20 ADD SWAP1 DUP2 MSTORE PUSH1 0x20 ADD PUSH0 KECCAK256 SWAP1 POP DUP1 PUSH1 0x8 ADD PUSH0 SWAP1 SLOAD SWAP1 PUSH2 0x100 EXP SWAP1 DIV PUSH1 0xFF AND PUSH2 0x7D0 JUMPI PUSH1 0x40 MLOAD PUSH32 0x8C379A000000000000000000000000000000000000000000000000000000000 DUP2 MSTORE PUSH1 0x4 ADD PUSH2 0x7C7 SWAP1 PUSH2 0x1683 JUMP JUMPDEST PUSH1 0x40 MLOAD DUP1 SWAP2 SUB SWAP1 REVERT JUMPDEST DUP1 PUSH1 0x6 ADD SLOAD TIMESTAMP LT ISZERO PUSH2 0x817 JUMPI PUSH1 0x40 MLOAD PUSH32 0x8C379A000000000000000000000000000000000000000000000000000000000 DUP2 MSTORE PUSH1 0x4 ADD PUSH2 0x80E SWAP1 PUSH2 0x16EB JUMP JUMPDEST PUSH1 0x40 MLOAD DUP1 SWAP2 SUB SWAP1 REVERT JUMPDEST DUP1 PUSH1 0x7 ADD SLOAD TIMESTAMP GT ISZERO PUSH2 0x85E JUMPI PUSH1 0x40 MLOAD PUSH32 0x8C379A000000000000000000000000000000000000000000000000000000000 DUP2 MSTORE PUSH1 0x4 ADD PUSH2 0x855 SWAP1 PUSH2 0x1753 JUMP JUMPDEST PUSH1 0x40 MLOAD DUP1 SWAP2 SUB SWAP1 REVERT JUMPDEST DUP1 PUSH1 0x4 ADD PUSH0 CALLER PUSH20 0xFFFFFFFFFFFFFFFFFFFFFFFFFFFFFFFFFFFFFFFF AND PUSH20 0xFFFFFFFFFFFFFFFFFFFFFFFFFFFFFFFFFFFFFFFF AND DUP2 MSTORE PUSH1 0x20 ADD SWAP1 DUP2 MSTORE PUSH1 0x20 ADD PUSH0 KECCAK256 PUSH0 SWAP1 SLOAD SWAP1 PUSH2 0x100 EXP SWAP1 DIV PUSH1 0xFF AND ISZERO PUSH2 0x8EA JUMPI PUSH1 0x40 MLOAD PUSH32 0x8C379A000000000000000000000000000000000000000000000000000000000 DUP2 MSTORE PUSH1 0x4 ADD PUSH2 0x8E1 SWAP1 PUSH2 0x17BB JUMP JUMPDEST PUSH1 0x40 MLOAD DUP1 SWAP2 SUB SWAP1 REVERT JUMPDEST DUP1 PUSH1 0x2 ADD DUP1 SLOAD SWAP1 POP DUP4 LT PUSH2 0x933 JUMPI PUSH1 0x40 MLOAD PUSH32 0x8C379A000000000000000000000000000000000000000000000000000000000 DUP2 MSTORE PUSH1 0x4 ADD PUSH2 0x92A SWAP1 PUSH2 0x1823 JUMP JUMPDEST PUSH1 0x40 MLOAD DUP1 SWAP2 SUB SWAP1 REVERT JUMPDEST DUP1 PUSH1 0x3 ADD PUSH0 DUP5 DUP2 MSTORE PUSH1 0x20 ADD SWAP1 DUP2 MSTORE PUSH1 0x20 ADD PUSH0 KECCAK256 PUSH0 DUP2 SLOAD DUP1 SWAP3 SWAP2 SWAP1 PUSH2 0x956 SWAP1 PUSH2 0x186E JUMP JUMPDEST SWAP2 SWAP1 POP SSTORE POP PUSH1 0x1 DUP2 PUSH1 0x4 ADD PUSH0 CALLER PUSH20 0xFFFFFFFFFFFFFFFFFFFFFFFFFFFFFFFFFFFFFFFF AND PUSH20 0xFFFFFFFFFFFFFFFFFFFFFFFFFFFFFFFFFFFFFFFF AND DUP2 MSTORE PUSH1 0x20 ADD SWAP1 DUP2 MSTORE PUSH1 0x20 ADD PUSH0 KECCAK256 PUSH0 PUSH2 0x100 EXP DUP2 SLOAD DUP2 PUSH1 0xFF MUL NOT AND SWAP1 DUP4 ISZERO ISZERO MUL OR SWAP1 SSTORE POP PUSH32 0x2ACCE567DECA3AABF56327ADBB4524BD5318936EAEFA69E3A5208FFDA0CFEC09 DUP5 CALLER DUP6 PUSH1 0x40 MLOAD PUSH2 0x9E5 SWAP4 SWAP3 SWAP2 SWAP1 PUSH2 0x18B5 JUMP JUMPDEST PUSH1 0x40 MLOAD DUP1 SWAP2 SUB SWAP1 LOG1 POP POP POP POP JUMP JUMPDEST DUP1 CALLER PUSH20 0xFFFFFFFFFFFFFFFFFFFFFFFFFFFFFFFFFFFFFFFF AND PUSH1 0x2 PUSH0 DUP4 DUP2 MSTORE PUSH1 0x20 ADD SWAP1 DUP2 MSTORE PUSH1 0x20 ADD PUSH0 KECCAK256 PUSH1 0x5 ADD PUSH0 SWAP1 SLOAD SWAP1 PUSH2 0x100 EXP SWAP1 DIV PUSH20 0xFFFFFFFFFFFFFFFFFFFFFFFFFFFFFFFFFFFFFFFF AND PUSH20 0xFFFFFFFFFFFFFFFFFFFFFFFFFFFFFFFFFFFFFFFF AND EQ PUSH2 0xA95 JUMPI PUSH1 0x40 MLOAD PUSH32 0x8C379A000000000000000000000000000000000000000000000000000000000 DUP2 MSTORE PUSH1 0x4 ADD PUSH2 0xA8C SWAP1 PUSH2 0x195A JUMP JUMPDEST PUSH1 0x40 MLOAD DUP1 SWAP2 SUB SWAP1 REVERT JUMPDEST DUP2 PUSH1 0x1 SLOAD DUP2 LT DUP1 ISZERO PUSH2 0xAA7 JUMPI POP PUSH0 DUP2 LT ISZERO JUMPDEST PUSH2 0xAE6 JUMPI PUSH1 0x40 MLOAD PUSH32 0x8C379A000000000000000000000000000000000000000000000000000000000 DUP2 MSTORE PUSH1 0x4 ADD PUSH2 0xADD SWAP1 PUSH2 0x1591 JUMP JUMPDEST PUSH1 0x40 MLOAD DUP1 SWAP2 SUB SWAP1 REVERT JUMPDEST PUSH0 PUSH1 0x2 PUSH0 DUP6 DUP2 MSTORE PUSH1 0x20 ADD SWAP1 DUP2 MSTORE PUSH1 0x20 ADD PUSH0 KECCAK256 SWAP1 POP DUP1 PUSH1 0x8 ADD PUSH0 SWAP1 SLOAD SWAP1 PUSH2 0x100 EXP SWAP1 DIV PUSH1 0xFF AND PUSH2 0xB4A JUMPI PUSH1 0x40 MLOAD PUSH32 0x8C379A000000000000000000000000000000000000000000000000000000000 DUP2 MSTORE PUSH1 0x4 ADD PUSH2 0xB41 SWAP1 PUSH2 0x19C2 JUMP JUMPDEST PUSH1 0x40 MLOAD DUP1 SWAP2 SUB SWAP1 REVERT JUMPDEST PUSH0 DUP2 PUSH1 0x8 ADD PUSH0 PUSH2 0x100 EXP DUP2 SLOAD DUP2 PUSH1 0xFF MUL NOT AND SWAP1 DUP4 ISZERO ISZERO MUL OR SWAP1 SSTORE POP PUSH32 0x14D4CFC1C2A6F37C8F97AD80FC12BD9D943EA6D4DD7684137850125597CE9BF7 DUP5 PUSH1 0x40 MLOAD PUSH2 0xB94 SWAP2 SWAP1 PUSH2 0x11F4 JUMP JUMPDEST PUSH1 0x40 MLOAD DUP1 SWAP2 SUB SWAP1 LOG1 POP POP POP POP JUMP JUMPDEST PUSH0 PUSH0 DUP5 MLOAD GT PUSH2 0xBE6 JUMPI PUSH1 0x40 MLOAD PUSH32 0x8C379A000000000000000000000000000000000000000000000000000000000 DUP2 MSTORE PUSH1 0x4 ADD PUSH2 0xBDD SWAP1 PUSH2 0x1A2A JUMP JUMPDEST PUSH1 0x40 MLOAD DUP1 SWAP2 SUB SWAP1 REVERT JUMPDEST PUSH1 0x2 DUP4 MLOAD LT ISZERO PUSH2 0xC2B JUMPI PUSH1 0x40 MLOAD PUSH32 0x8C379A000000000000000000000000000000000000000000000000000000000 DUP2 MSTORE PUSH1 0x4 ADD PUSH2 0xC22 SWAP1 PUSH2 0x1A92 JUMP JUMPDEST PUSH1 0x40 MLOAD DUP1 SWAP2 SUB SWAP1 REVERT JUMPDEST PUSH0 DUP3 GT PUSH2 0xC6D JUMPI PUSH1 0x40 MLOAD PUSH32 0x8C379A000000000000000000000000000000000000000000000000000000000 DUP2 MSTORE PUSH1 0x4 ADD PUSH2 0xC64 SWAP1 PUSH2 0x1AFA JUMP JUMPDEST PUSH1 0x40 MLOAD DUP1 SWAP2 SUB SWAP1 REVERT JUMPDEST PUSH1 0x1 PUSH0 DUP2 SLOAD DUP1 SWAP3 SWAP2 SWAP1 PUSH2 0xC7F SWAP1 PUSH2 0x186E JUMP JUMPDEST SWAP2 SWAP1 POP SSTORE PUSH0 DUP2 SWAP1 SSTORE POP PUSH0 PUSH1 0x2 PUSH0 PUSH0 SLOAD DUP2 MSTORE PUSH1 0x20 ADD SWAP1 DUP2 MSTORE PUSH1 0x20 ADD PUSH0 KECCAK256 SWAP1 POP PUSH0 SLOAD DUP2 PUSH0 ADD DUP2 SWAP1 SSTORE POP DUP5 DUP2 PUSH1 0x1 ADD SWAP1 DUP2 PUSH2 0xCB7 SWAP2 SWAP1 PUSH2 0x1CB8 JUMP JUMPDEST POP CALLER DUP2 PUSH1 0x5 ADD PUSH0 PUSH2 0x100 EXP DUP2 SLOAD DUP2 PUSH20 0xFFFFFFFFFFFFFFFFFFFFFFFFFFFFFFFFFFFFFFFF MUL NOT AND SWAP1 DUP4 PUSH20 0xFFFFFFFFFFFFFFFFFFFFFFFFFFFFFFFFFFFFFFFF AND MUL OR SWAP1 SSTORE POP TIMESTAMP DUP2 PUSH1 0x6 ADD DUP2 SWAP1 SSTORE POP DUP3 TIMESTAMP PUSH2 0xD0F SWAP2 SWAP1 PUSH2 0x1D87 JUMP JUMPDEST DUP2 PUSH1 0x7 ADD DUP2 SWAP1 SSTORE POP PUSH1 0x1 DUP2 PUSH1 0x8 ADD PUSH0 PUSH2 0x100 EXP DUP2 SLOAD DUP2 PUSH1 0xFF MUL NOT AND SWAP1 DUP4 ISZERO ISZERO MUL OR SWAP1 SSTORE POP PUSH0 PUSH0 SWAP1 POP JUMPDEST DUP5 MLOAD DUP2 LT ISZERO PUSH2 0xD9C JUMPI DUP2 PUSH1 0x2 ADD DUP6 DUP3 DUP2 MLOAD DUP2 LT PUSH2 0xD58 JUMPI PUSH2 0xD57 PUSH2 0x160C JUMP JUMPDEST JUMPDEST PUSH1 0x20 MUL PUSH1 0x20 ADD ADD MLOAD SWAP1 DUP1 PUSH1 0x1 DUP2 SLOAD ADD DUP1 DUP3 SSTORE DUP1 SWAP2 POP POP PUSH1 0x1 SWAP1 SUB SWAP1 PUSH0 MSTORE PUSH1 0x20 PUSH0 KECCAK256 ADD PUSH0 SWAP1 SWAP2 SWAP1 SWAP2 SWAP1 SWAP2 POP SWAP1 DUP2 PUSH2 0xD8E SWAP2 SWAP1 PUSH2 0x1CB8 JUMP JUMPDEST POP DUP1 DUP1 PUSH1 0x1 ADD SWAP2 POP POP PUSH2 0xD38 JUMP JUMPDEST POP PUSH32 0xD2A8DBEAE3CAC9E94402CC3D7E3EE6CB0A2C32D2E426BF82F24B87FFD1089EFD PUSH0 SLOAD DUP7 CALLER PUSH1 0x40 MLOAD PUSH2 0xDD1 SWAP4 SWAP3 SWAP2 SWAP1 PUSH2 0x1DBA JUMP JUMPDEST PUSH1 0x40 MLOAD DUP1 SWAP2 SUB SWAP1 LOG1 PUSH0 SLOAD SWAP2 POP POP SWAP4 SWAP3 POP POP POP JUMP JUMPDEST PUSH0 PUSH1 0x40 MLOAD SWAP1 POP SWAP1 JUMP JUMPDEST PUSH0 PUSH0 REVERT JUMPDEST PUSH0 PUSH0 REVERT JUMPDEST PUSH0 DUP2 SWAP1 POP SWAP2 SWAP1 POP JUMP JUMPDEST PUSH2 0xE08 DUP2 PUSH2 0xDF6 JUMP JUMPDEST DUP2 EQ PUSH2 0xE12 JUMPI PUSH0 PUSH0 REVERT JUMPDEST POP JUMP JUMPDEST PUSH0 DUP2 CALLDATALOAD SWAP1 POP PUSH2 0xE23 DUP2 PUSH2 0xDFF JUMP JUMPDEST SWAP3 SWAP2 POP POP JUMP JUMPDEST PUSH0 PUSH1 0x20 DUP3 DUP5 SUB SLT ISZERO PUSH2 0xE3E JUMPI PUSH2 0xE3D PUSH2 0xDEE JUMP JUMPDEST JUMPDEST PUSH0 PUSH2 0xE4B DUP5 DUP3 DUP6 ADD PUSH2 0xE15 JUMP JUMPDEST SWAP2 POP POP SWAP3 SWAP2 POP POP JUMP JUMPDEST PUSH0 DUP2 MLOAD SWAP1 POP SWAP2 SWAP1 POP JUMP JUMPDEST PUSH0 DUP3 DUP3 MSTORE PUSH1 0x20 DUP3 ADD SWAP1 POP SWAP3 SWAP2 POP POP JUMP JUMPDEST DUP3 DUP2 DUP4 MCOPY PUSH0 DUP4 DUP4 ADD MSTORE POP POP POP JUMP JUMPDEST PUSH0 PUSH1 0x1F NOT PUSH1 0x1F DUP4 ADD AND SWAP1 POP SWAP2 SWAP1 POP JUMP JUMPDEST PUSH0 PUSH2 0xE96 DUP3 PUSH2 0xE54 JUMP JUMPDEST PUSH2 0xEA0 DUP2 DUP6 PUSH2 0xE5E JUMP JUMPDEST SWAP4 POP PUSH2 0xEB0 DUP2 DUP6 PUSH1 0x20 DUP7 ADD PUSH2 0xE6E JUMP JUMPDEST PUSH2 0xEB9 DUP2 PUSH2 0xE7C JUMP JUMPDEST DUP5 ADD SWAP2 POP POP SWAP3 SWAP2 POP POP JUMP JUMPDEST PUSH0 DUP2 MLOAD SWAP1 POP SWAP2 SWAP1 POP JUMP JUMPDEST PUSH0 DUP3 DUP3 MSTORE PUSH1 0x20 DUP3 ADD SWAP1 POP SWAP3 SWAP2 POP POP JUMP JUMPDEST PUSH0 DUP2 SWAP1 POP PUSH1 0x20 DUP3 ADD SWAP1 POP SWAP2 SWAP1 POP JUMP JUMPDEST PUSH0 DUP3 DUP3 MSTORE PUSH1 0x20 DUP3 ADD SWAP1 POP SWAP3 SWAP2 POP POP JUMP JUMPDEST PUSH0 PUSH2 0xF07 DUP3 PUSH2 0xE54 JUMP JUMPDEST PUSH2 0xF11 DUP2 DUP6 PUSH2 0xEED JUMP JUMPDEST SWAP4 POP PUSH2 0xF21 DUP2 DUP6 PUSH1 0x20 DUP7 ADD PUSH2 0xE6E JUMP JUMPDEST PUSH2 0xF2A DUP2 PUSH2 0xE7C JUMP JUMPDEST DUP5 ADD SWAP2 POP POP SWAP3 SWAP2 POP POP JUMP JUMPDEST PUSH0 PUSH2 0xF40 DUP4 DUP4 PUSH2 0xEFD JUMP JUMPDEST SWAP1 POP SWAP3 SWAP2 POP POP JUMP JUMPDEST PUSH0 PUSH1 0x20 DUP3 ADD SWAP1 POP SWAP2 SWAP1 POP JUMP JUMPDEST PUSH0 PUSH2 0xF5E DUP3 PUSH2 0xEC4 JUMP JUMPDEST PUSH2 0xF68 DUP2 DUP6 PUSH2 0xECE JUMP JUMPDEST SWAP4 POP DUP4 PUSH1 0x20 DUP3 MUL DUP6 ADD PUSH2 0xF7A DUP6 PUSH2 0xEDE JUMP JUMPDEST DUP1 PUSH0 JUMPDEST DUP6 DUP2 LT ISZERO PUSH2 0xFB5 JUMPI DUP5 DUP5 SUB DUP10 MSTORE DUP2 MLOAD PUSH2 0xF96 DUP6 DUP3 PUSH2 0xF35 JUMP JUMPDEST SWAP5 POP PUSH2 0xFA1 DUP4 PUSH2 0xF48 JUMP JUMPDEST SWAP3 POP PUSH1 0x20 DUP11 ADD SWAP10 POP POP PUSH1 0x1 DUP2 ADD SWAP1 POP PUSH2 0xF7D JUMP JUMPDEST POP DUP3 SWAP8 POP DUP8 SWAP6 POP POP POP POP POP POP SWAP3 SWAP2 POP POP JUMP JUMPDEST PUSH0 PUSH20 0xFFFFFFFFFFFFFFFFFFFFFFFFFFFFFFFFFFFFFFFF DUP3 AND SWAP1 POP SWAP2 SWAP1 POP JUMP JUMPDEST PUSH0 PUSH2 0xFF0 DUP3 PUSH2 0xFC7 JUMP JUMPDEST SWAP1 POP SWAP2 SWAP1 POP JUMP JUMPDEST PUSH2 0x1000 DUP2 PUSH2 0xFE6 JUMP JUMPDEST DUP3 MSTORE POP POP JUMP JUMPDEST PUSH2 0x100F DUP2 PUSH2 0xDF6 JUMP JUMPDEST DUP3 MSTORE POP POP JUMP JUMPDEST PUSH0 DUP2 ISZERO ISZERO SWAP1 POP SWAP2 SWAP1 POP JUMP JUMPDEST PUSH2 0x1029 DUP2 PUSH2 0x1015 JUMP JUMPDEST DUP3 MSTORE POP POP JUMP JUMPDEST PUSH0 PUSH1 0xC0 DUP3 ADD SWAP1 POP DUP2 DUP2 SUB PUSH0 DUP4 ADD MSTORE PUSH2 0x1047 DUP2 DUP10 PUSH2 0xE8C JUMP JUMPDEST SWAP1 POP DUP2 DUP2 SUB PUSH1 0x20 DUP4 ADD MSTORE PUSH2 0x105B DUP2 DUP9 PUSH2 0xF54 JUMP JUMPDEST SWAP1 POP PUSH2 0x106A PUSH1 0x40 DUP4 ADD DUP8 PUSH2 0xFF7 JUMP JUMPDEST PUSH2 0x1077 PUSH1 0x60 DUP4 ADD DUP7 PUSH2 0x1006 JUMP JUMPDEST PUSH2 0x1084 PUSH1 0x80 DUP4 ADD DUP6 PUSH2 0x1006 JUMP JUMPDEST PUSH2 0x1091 PUSH1 0xA0 DUP4 ADD DUP5 PUSH2 0x1020 JUMP JUMPDEST SWAP8 SWAP7 POP POP POP POP POP POP POP JUMP JUMPDEST PUSH0 DUP2 MLOAD SWAP1 POP SWAP2 SWAP1 POP JUMP JUMPDEST PUSH0 DUP3 DUP3 MSTORE PUSH1 0x20 DUP3 ADD SWAP1 POP SWAP3 SWAP2 POP POP JUMP JUMPDEST PUSH0 DUP2 SWAP1 POP PUSH1 0x20 DUP3 ADD SWAP1 POP SWAP2 SWAP1 POP JUMP JUMPDEST PUSH2 0x10CE DUP2 PUSH2 0xDF6 JUMP JUMPDEST DUP3 MSTORE POP POP JUMP JUMPDEST PUSH0 PUSH2 0x10DF DUP4 DUP4 PUSH2 0x10C5 JUMP JUMPDEST PUSH1 0x20 DUP4 ADD SWAP1 POP SWAP3 SWAP2 POP POP JUMP JUMPDEST PUSH0 PUSH1 0x20 DUP3 ADD SWAP1 POP SWAP2 SWAP1 POP JUMP JUMPDEST PUSH0 PUSH2 0x1101 DUP3 PUSH2 0x109C JUMP JUMPDEST PUSH2 0x110B DUP2 DUP6 PUSH2 0x10A6 JUMP JUMPDEST SWAP4 POP PUSH2 0x1116 DUP4 PUSH2 0x10B6 JUMP JUMPDEST DUP1 PUSH0 JUMPDEST DUP4 DUP2 LT ISZERO PUSH2 0x1146 JUMPI DUP2 MLOAD PUSH2 0x112D DUP9 DUP3 PUSH2 0x10D4 JUMP JUMPDEST SWAP8 POP PUSH2 0x1138 DUP4 PUSH2 0x10EB JUMP JUMPDEST SWAP3 POP POP PUSH1 0x1 DUP2 ADD SWAP1 POP PUSH2 0x1119 JUMP JUMPDEST POP DUP6 SWAP4 POP POP POP POP SWAP3 SWAP2 POP POP JUMP JUMPDEST PUSH0 PUSH1 0x20 DUP3 ADD SWAP1 POP DUP2 DUP2 SUB PUSH0 DUP4 ADD MSTORE PUSH2 0x116B DUP2 DUP5 PUSH2 0x10F7 JUMP JUMPDEST SWAP1 POP SWAP3 SWAP2 POP POP JUMP JUMPDEST PUSH2 0x117C DUP2 PUSH2 0xFE6 JUMP JUMPDEST DUP2 EQ PUSH2 0x1186 JUMPI PUSH0 PUSH0 REVERT JUMPDEST POP JUMP JUMPDEST PUSH0 DUP2 CALLDATALOAD SWAP1 POP PUSH2 0x1197 DUP2 PUSH2 0x1173 JUMP JUMPDEST SWAP3 SWAP2 POP POP JUMP JUMPDEST PUSH0 PUSH0 PUSH1 0x40 DUP4 DUP6 SUB SLT ISZERO PUSH2 0x11B3 JUMPI PUSH2 0x11B2 PUSH2 0xDEE JUMP JUMPDEST JUMPDEST PUSH0 PUSH2 0x11C0 DUP6 DUP3 DUP7 ADD PUSH2 0xE15 JUMP JUMPDEST SWAP3 POP POP PUSH1 0x20 PUSH2 0x11D1 DUP6 DUP3 DUP7 ADD PUSH2 0x1189 JUMP JUMPDEST SWAP2 POP POP SWAP3 POP SWAP3 SWAP1 POP JUMP JUMPDEST PUSH0 PUSH1 0x20 DUP3 ADD SWAP1 POP PUSH2 0x11EE PUSH0 DUP4 ADD DUP5 PUSH2 0x1020 JUMP JUMPDEST SWAP3 SWAP2 POP POP JUMP JUMPDEST PUSH0 PUSH1 0x20 DUP3 ADD SWAP1 POP PUSH2 0x1207 PUSH0 DUP4 ADD DUP5 PUSH2 0x1006 JUMP JUMPDEST SWAP3 SWAP2 POP POP JUMP JUMPDEST PUSH0 PUSH1 0xC0 DUP3 ADD SWAP1 POP PUSH2 0x1220 PUSH0 DUP4 ADD DUP10 PUSH2 0x1006 JUMP JUMPDEST DUP2 DUP2 SUB PUSH1 0x20 DUP4 ADD MSTORE PUSH2 0x1232 DUP2 DUP9 PUSH2 0xE8C JUMP JUMPDEST SWAP1 POP PUSH2 0x1241 PUSH1 0x40 DUP4 ADD DUP8 PUSH2 0xFF7 JUMP JUMPDEST PUSH2 0x124E PUSH1 0x60 DUP4 ADD DUP7 PUSH2 0x1006 JUMP JUMPDEST PUSH2 0x125B PUSH1 0x80 DUP4 ADD DUP6 PUSH2 0x1006 JUMP JUMPDEST PUSH2 0x1268 PUSH1 0xA0 DUP4 ADD DUP5 PUSH2 0x1020 JUMP JUMPDEST SWAP8 SWAP7 POP POP POP POP POP POP POP JUMP JUMPDEST PUSH0 PUSH0 PUSH1 0x40 DUP4 DUP6 SUB SLT ISZERO PUSH2 0x1289 JUMPI PUSH2 0x1288 PUSH2 0xDEE JUMP JUMPDEST JUMPDEST PUSH0 PUSH2 0x1296 DUP6 DUP3 DUP7 ADD PUSH2 0xE15 JUMP JUMPDEST SWAP3 POP POP PUSH1 0x20 PUSH2 0x12A7 DUP6 DUP3 DUP7 ADD PUSH2 0xE15 JUMP JUMPDEST SWAP2 POP POP SWAP3 POP SWAP3 SWAP1 POP JUMP JUMPDEST PUSH0 PUSH0 REVERT JUMPDEST PUSH0 PUSH0 REVERT JUMPDEST PUSH32 0x4E487B7100000000000000000000000000000000000000000000000000000000 PUSH0 MSTORE PUSH1 0x41 PUSH1 0x4 MSTORE PUSH1 0x24 PUSH0 REVERT JUMPDEST PUSH2 0x12EF DUP3 PUSH2 0xE7C JUMP JUMPDEST DUP2 ADD DUP2 DUP2 LT PUSH8 0xFFFFFFFFFFFFFFFF DUP3 GT OR ISZERO PUSH2 0x130E JUMPI PUSH2 0x130D PUSH2 0x12B9 JUMP JUMPDEST JUMPDEST DUP1 PUSH1 0x40 MSTORE POP POP POP JUMP JUMPDEST PUSH0 PUSH2 0x1320 PUSH2 0xDE5 JUMP JUMPDEST SWAP1 POP PUSH2 0x132C DUP3 DUP3 PUSH2 0x12E6 JUMP JUMPDEST SWAP2 SWAP1 POP JUMP JUMPDEST PUSH0 PUSH8 0xFFFFFFFFFFFFFFFF DUP3 GT ISZERO PUSH2 0x134B JUMPI PUSH2 0x134A PUSH2 0x12B9 JUMP JUMPDEST JUMPDEST PUSH2 0x1354 DUP3 PUSH2 0xE7C JUMP JUMPDEST SWAP1 POP PUSH1 0x20 DUP2 ADD SWAP1 POP SWAP2 SWAP1 POP JUMP JUMPDEST DUP3 DUP2 DUP4 CALLDATACOPY PUSH0 DUP4 DUP4 ADD MSTORE POP POP POP JUMP JUMPDEST PUSH0 PUSH2 0x1381 PUSH2 0x137C DUP5 PUSH2 0x1331 JUMP JUMPDEST PUSH2 0x1317 JUMP JUMPDEST SWAP1 POP DUP3 DUP2 MSTORE PUSH1 0x20 DUP2 ADD DUP5 DUP5 DUP5 ADD GT ISZERO PUSH2 0x139D JUMPI PUSH2 0x139C PUSH2 0x12B5 JUMP JUMPDEST JUMPDEST PUSH2 0x13A8 DUP5 DUP3 DUP6 PUSH2 0x1361 JUMP JUMPDEST POP SWAP4 SWAP3 POP POP POP JUMP JUMPDEST PUSH0 DUP3 PUSH1 0x1F DUP4 ADD SLT PUSH2 0x13C4 JUMPI PUSH2 0x13C3 PUSH2 0x12B1 JUMP JUMPDEST JUMPDEST DUP2 CALLDATALOAD PUSH2 0x13D4 DUP5 DUP3 PUSH1 0x20 DUP7 ADD PUSH2 0x136F JUMP JUMPDEST SWAP2 POP POP SWAP3 SWAP2 POP POP JUMP JUMPDEST PUSH0 PUSH8 0xFFFFFFFFFFFFFFFF DUP3 GT ISZERO PUSH2 0x13F7 JUMPI PUSH2 0x13F6 PUSH2 0x12B9 JUMP JUMPDEST JUMPDEST PUSH1 0x20 DUP3 MUL SWAP1 POP PUSH1 0x20 DUP2 ADD SWAP1 POP SWAP2 SWAP1 POP JUMP JUMPDEST PUSH0 PUSH0 REVERT JUMPDEST PUSH0 PUSH2 0x141E PUSH2 0x1419 DUP5 PUSH2 0x13DD JUMP JUMPDEST PUSH2 0x1317 JUMP JUMPDEST SWAP1 POP DUP1 DUP4 DUP3 MSTORE PUSH1 0x20 DUP3 ADD SWAP1 POP PUSH1 0x20 DUP5 MUL DUP4 ADD DUP6 DUP2 GT ISZERO PUSH2 0x1441 JUMPI PUSH2 0x1440 PUSH2 0x1408 JUMP JUMPDEST JUMPDEST DUP4 JUMPDEST DUP2 DUP2 LT ISZERO PUSH2 0x1488 JUMPI DUP1 CALLDATALOAD PUSH8 0xFFFFFFFFFFFFFFFF DUP2 GT ISZERO PUSH2 0x1466 JUMPI PUSH2 0x1465 PUSH2 0x12B1 JUMP JUMPDEST JUMPDEST DUP1 DUP7 ADD PUSH2 0x1473 DUP10 DUP3 PUSH2 0x13B0 JUMP JUMPDEST DUP6 MSTORE PUSH1 0x20 DUP6 ADD SWAP5 POP POP POP PUSH1 0x20 DUP2 ADD SWAP1 POP PUSH2 0x1443 JUMP JUMPDEST POP POP POP SWAP4 SWAP3 POP POP POP JUMP JUMPDEST PUSH0 DUP3 PUSH1 0x1F DUP4 ADD SLT PUSH2 0x14A6 JUMPI PUSH2 0x14A5 PUSH2 0x12B1 JUMP JUMPDEST JUMPDEST DUP2 CALLDATALOAD PUSH2 0x14B6 DUP5 DUP3 PUSH1 0x20 DUP7 ADD PUSH2 0x140C JUMP JUMPDEST SWAP2 POP POP SWAP3 SWAP2 POP POP JUMP JUMPDEST PUSH0 PUSH0 PUSH0 PUSH1 0x60 DUP5 DUP7 SUB SLT ISZERO PUSH2 0x14D6 JUMPI PUSH2 0x14D5 PUSH2 0xDEE JUMP JUMPDEST JUMPDEST PUSH0 DUP5 ADD CALLDATALOAD PUSH8 0xFFFFFFFFFFFFFFFF DUP2 GT ISZERO PUSH2 0x14F3 JUMPI PUSH2 0x14F2 PUSH2 0xDF2 JUMP JUMPDEST JUMPDEST PUSH2 0x14FF DUP7 DUP3 DUP8 ADD PUSH2 0x13B0 JUMP JUMPDEST SWAP4 POP POP PUSH1 0x20 DUP5 ADD CALLDATALOAD PUSH8 0xFFFFFFFFFFFFFFFF DUP2 GT ISZERO PUSH2 0x1520 JUMPI PUSH2 0x151F PUSH2 0xDF2 JUMP JUMPDEST JUMPDEST PUSH2 0x152C DUP7 DUP3 DUP8 ADD PUSH2 0x1492 JUMP JUMPDEST SWAP3 POP POP PUSH1 0x40 PUSH2 0x153D DUP7 DUP3 DUP8 ADD PUSH2 0xE15 JUMP JUMPDEST SWAP2 POP POP SWAP3 POP SWAP3 POP SWAP3 JUMP JUMPDEST PUSH32 0x506F6C6C20646F6573206E6F7420657869737400000000000000000000000000 PUSH0 DUP3 ADD MSTORE POP JUMP JUMPDEST PUSH0 PUSH2 0x157B PUSH1 0x13 DUP4 PUSH2 0xE5E JUMP JUMPDEST SWAP2 POP PUSH2 0x1586 DUP3 PUSH2 0x1547 JUMP JUMPDEST PUSH1 0x20 DUP3 ADD SWAP1 POP SWAP2 SWAP1 POP JUMP JUMPDEST PUSH0 PUSH1 0x20 DUP3 ADD SWAP1 POP DUP2 DUP2 SUB PUSH0 DUP4 ADD MSTORE PUSH2 0x15A8 DUP2 PUSH2 0x156F JUMP JUMPDEST SWAP1 POP SWAP2 SWAP1 POP JUMP JUMPDEST PUSH32 0x4E487B7100000000000000000000000000000000000000000000000000000000 PUSH0 MSTORE PUSH1 0x22 PUSH1 0x4 MSTORE PUSH1 0x24 PUSH0 REVERT JUMPDEST PUSH0 PUSH1 0x2 DUP3 DIV SWAP1 POP PUSH1 0x1 DUP3 AND DUP1 PUSH2 0x15F3 JUMPI PUSH1 0x7F DUP3 AND SWAP2 POP JUMPDEST PUSH1 0x20 DUP3 LT DUP2 SUB PUSH2 0x1606 JUMPI PUSH2 0x1605 PUSH2 0x15AF JUMP JUMPDEST JUMPDEST POP SWAP2 SWAP1 POP JUMP JUMPDEST PUSH32 0x4E487B7100000000000000000000000000000000000000000000000000000000 PUSH0 MSTORE PUSH1 0x32 PUSH1 0x4 MSTORE PUSH1 0x24 PUSH0 REVERT JUMPDEST PUSH32 0x506F6C6C206973206E6F74206163746976650000000000000000000000000000 PUSH0 DUP3 ADD MSTORE POP JUMP JUMPDEST PUSH0 PUSH2 0x166D PUSH1 0x12 DUP4 PUSH2 0xE5E JUMP JUMPDEST SWAP2 POP PUSH2 0x1678 DUP3 PUSH2 0x1639 JUMP JUMPDEST PUSH1 0x20 DUP3 ADD SWAP1 POP SWAP2 SWAP1 POP JUMP JUMPDEST PUSH0 PUSH1 0x20 DUP3 ADD SWAP1 POP DUP2 DUP2 SUB PUSH0 DUP4 ADD MSTORE PUSH2 0x169A DUP2 PUSH2 0x1661 JUMP JUMPDEST SWAP1 POP SWAP2 SWAP1 POP JUMP JUMPDEST PUSH32 0x506F6C6C20686173206E6F742073746172746564207965740000000000000000 PUSH0 DUP3 ADD MSTORE POP JUMP JUMPDEST PUSH0 PUSH2 0x16D5 PUSH1 0x18 DUP4 PUSH2 0xE5E JUMP JUMPDEST SWAP2 POP PUSH2 0x16E0 DUP3 PUSH2 0x16A1 JUMP JUMPDEST PUSH1 0x20 DUP3 ADD SWAP1 POP SWAP2 SWAP1 POP JUMP JUMPDEST PUSH0 PUSH1 0x20 DUP3 ADD SWAP1 POP DUP2 DUP2 SUB PUSH0 DUP4 ADD MSTORE PUSH2 0x1702 DUP2 PUSH2 0x16C9 JUMP JUMPDEST SWAP1 POP SWAP2 SWAP1 POP JUMP JUMPDEST PUSH32 0x506F6C6C2068617320656E646564000000000000000000000000000000000000 PUSH0 DUP3 ADD MSTORE POP JUMP JUMPDEST PUSH0 PUSH2 0x173D PUSH1 0xE DUP4 PUSH2 0xE5E JUMP JUMPDEST SWAP2 POP PUSH2 0x1748 DUP3 PUSH2 0x1709 JUMP JUMPDEST PUSH1 0x20 DUP3 ADD SWAP1 POP SWAP2 SWAP1 POP JUMP JUMPDEST PUSH0 PUSH1 0x20 DUP3 ADD SWAP1 POP DUP2 DUP2 SUB PUSH0 DUP4 ADD MSTORE PUSH2 0x176A DUP2 PUSH2 0x1731 JUMP JUMPDEST SWAP1 POP SWAP2 SWAP1 POP JUMP JUMPDEST PUSH32 0x416C726561647920766F74656400000000000000000000000000000000000000 PUSH0 DUP3 ADD MSTORE POP JUMP JUMPDEST PUSH0 PUSH2 0x17A5 PUSH1 0xD DUP4 PUSH2 0xE5E JUMP JUMPDEST SWAP2 POP PUSH2 0x17B0 DUP3 PUSH2 0x1771 JUMP JUMPDEST PUSH1 0x20 DUP3 ADD SWAP1 POP SWAP2 SWAP1 POP JUMP JUMPDEST PUSH0 PUSH1 0x20 DUP3 ADD SWAP1 POP DUP2 DUP2 SUB PUSH0 DUP4 ADD MSTORE PUSH2 0x17D2 DUP2 PUSH2 0x1799 JUMP JUMPDEST SWAP1 POP SWAP2 SWAP1 POP JUMP JUMPDEST PUSH32 0x496E76616C6964206F7074696F6E000000000000000000000000000000000000 PUSH0 DUP3 ADD MSTORE POP JUMP JUMPDEST PUSH0 PUSH2 0x180D PUSH1 0xE DUP4 PUSH2 0xE5E JUMP JUMPDEST SWAP2 POP PUSH2 0x1818 DUP3 PUSH2 0x17D9 JUMP JUMPDEST PUSH1 0x20 DUP3 ADD SWAP1 POP SWAP2 SWAP1 POP JUMP JUMPDEST PUSH0 PUSH1 0x20 DUP3 ADD SWAP1 POP DUP2 DUP2 SUB PUSH0 DUP4 ADD MSTORE PUSH2 0x183A DUP2 PUSH2 0x1801 JUMP JUMPDEST SWAP1 POP SWAP2 SWAP1 POP JUMP JUMPDEST PUSH32 0x4E487B7100000000000000000000000000000000000000000000000000000000 PUSH0 MSTORE PUSH1 0x11 PUSH1 0x4 MSTORE PUSH1 0x24 PUSH0 REVERT JUMPDEST PUSH0 PUSH2 0x1878 DUP3 PUSH2 0xDF6 JUMP JUMPDEST SWAP2 POP PUSH32 0xFFFFFFFFFFFFFFFFFFFFFFFFFFFFFFFFFFFFFFFFFFFFFFFFFFFFFFFFFFFFFFFF DUP3 SUB PUSH2 0x18AA JUMPI PUSH2 0x18A9 PUSH2 0x1841 JUMP JUMPDEST JUMPDEST PUSH1 0x1 DUP3 ADD SWAP1 POP SWAP2 SWAP1 POP JUMP JUMPDEST PUSH0 PUSH1 0x60 DUP3 ADD SWAP1 POP PUSH2 0x18C8 PUSH0 DUP4 ADD DUP7 PUSH2 0x1006 JUMP JUMPDEST PUSH2 0x18D5 PUSH1 0x20 DUP4 ADD DUP6 PUSH2 0xFF7 JUMP JUMPDEST PUSH2 0x18E2 PUSH1 0x40 DUP4 ADD DUP5 PUSH2 0x1006 JUMP JUMPDEST SWAP5 SWAP4 POP POP POP POP JUMP JUMPDEST PUSH32 0x4F6E6C7920706F6C6C2063726561746F722063616E20706572666F726D207468 PUSH0 DUP3 ADD MSTORE PUSH32 0x697320616374696F6E0000000000000000000000000000000000000000000000 PUSH1 0x20 DUP3 ADD MSTORE POP JUMP JUMPDEST PUSH0 PUSH2 0x1944 PUSH1 0x29 DUP4 PUSH2 0xE5E JUMP JUMPDEST SWAP2 POP PUSH2 0x194F DUP3 PUSH2 0x18EA JUMP JUMPDEST PUSH1 0x40 DUP3 ADD SWAP1 POP SWAP2 SWAP1 POP JUMP JUMPDEST PUSH0 PUSH1 0x20 DUP3 ADD SWAP1 POP DUP2 DUP2 SUB PUSH0 DUP4 ADD MSTORE PUSH2 0x1971 DUP2 PUSH2 0x1938 JUMP JUMPDEST SWAP1 POP SWAP2 SWAP1 POP JUMP JUMPDEST PUSH32 0x506F6C6C20616C726561647920656E6465640000000000000000000000000000 PUSH0 DUP3 ADD MSTORE POP JUMP JUMPDEST PUSH0 PUSH2 0x19AC PUSH1 0x12 DUP4 PUSH2 0xE5E JUMP JUMPDEST SWAP2 POP PUSH2 0x19B7 DUP3 PUSH2 0x1978 JUMP JUMPDEST PUSH1 0x20 DUP3 ADD SWAP1 POP SWAP2 SWAP1 POP JUMP JUMPDEST PUSH0 PUSH1 0x20 DUP3 ADD SWAP1 POP DUP2 DUP2 SUB PUSH0 DUP4 ADD MSTORE PUSH2 0x19D9 DUP2 PUSH2 0x19A0 JUMP JUMPDEST SWAP1 POP SWAP2 SWAP1 POP JUMP JUMPDEST PUSH32 0x5175657374696F6E2063616E6E6F7420626520656D7074790000000000000000 PUSH0 DUP3 ADD MSTORE POP JUMP JUMPDEST PUSH0 PUSH2 0x1A14 PUSH1 0x18 DUP4 PUSH2 0xE5E JUMP JUMPDEST SWAP2 POP PUSH2 0x1A1F DUP3 PUSH2 0x19E0 JUMP JUMPDEST PUSH1 0x20 DUP3 ADD SWAP1 POP SWAP2 SWAP1 POP JUMP JUMPDEST PUSH0 PUSH1 0x20 DUP3 ADD SWAP1 POP DUP2 DUP2 SUB PUSH0 DUP4 ADD MSTORE PUSH2 0x1A41 DUP2 PUSH2 0x1A08 JUMP JUMPDEST SWAP1 POP SWAP2 SWAP1 POP JUMP JUMPDEST PUSH32 0x4174206C656173742032206F7074696F6E732072657175697265640000000000 PUSH0 DUP3 ADD MSTORE POP JUMP JUMPDEST PUSH0 PUSH2 0x1A7C PUSH1 0x1B DUP4 PUSH2 0xE5E JUMP JUMPDEST SWAP2 POP PUSH2 0x1A87 DUP3 PUSH2 0x1A48 JUMP JUMPDEST PUSH1 0x20 DUP3 ADD SWAP1 POP SWAP2 SWAP1 POP JUMP JUMPDEST PUSH0 PUSH1 0x20 DUP3 ADD SWAP1 POP DUP2 DUP2 SUB PUSH0 DUP4 ADD MSTORE PUSH2 0x1AA9 DUP2 PUSH2 0x1A70 JUMP JUMPDEST SWAP1 POP SWAP2 SWAP1 POP JUMP JUMPDEST PUSH32 0x4475726174696F6E206D75737420626520706F73697469766500000000000000 PUSH0 DUP3 ADD MSTORE POP JUMP JUMPDEST PUSH0 PUSH2 0x1AE4 PUSH1 0x19 DUP4 PUSH2 0xE5E JUMP JUMPDEST SWAP2 POP PUSH2 0x1AEF DUP3 PUSH2 0x1AB0 JUMP JUMPDEST PUSH1 0x20 DUP3 ADD SWAP1 POP SWAP2 SWAP1 POP JUMP JUMPDEST PUSH0 PUSH1 0x20 DUP3 ADD SWAP1 POP DUP2 DUP2 SUB PUSH0 DUP4 ADD MSTORE PUSH2 0x1B11 DUP2 PUSH2 0x1AD8 JUMP JUMPDEST SWAP1 POP SWAP2 SWAP1 POP JUMP JUMPDEST PUSH0 DUP2 SWAP1 POP DUP2 PUSH0 MSTORE PUSH1 0x20 PUSH0 KECCAK256 SWAP1 POP SWAP2 SWAP1 POP JUMP JUMPDEST PUSH0 PUSH1 0x20 PUSH1 0x1F DUP4 ADD DIV SWAP1 POP SWAP2 SWAP1 POP JUMP JUMPDEST PUSH0 DUP3 DUP3 SHL SWAP1 POP SWAP3 SWAP2 POP POP JUMP JUMPDEST PUSH0 PUSH1 0x8 DUP4 MUL PUSH2 0x1B74 PUSH32 0xFFFFFFFFFFFFFFFFFFFFFFFFFFFFFFFFFFFFFFFFFFFFFFFFFFFFFFFFFFFFFFFF DUP3 PUSH2 0x1B39 JUMP JUMPDEST PUSH2 0x1B7E DUP7 DUP4 PUSH2 0x1B39 JUMP JUMPDEST SWAP6 POP DUP1 NOT DUP5 AND SWAP4 POP DUP1 DUP7 AND DUP5 OR SWAP3 POP POP POP SWAP4 SWAP3 POP POP POP JUMP JUMPDEST PUSH0 DUP2 SWAP1 POP SWAP2 SWAP1 POP JUMP JUMPDEST PUSH0 PUSH2 0x1BB9 PUSH2 0x1BB4 PUSH2 0x1BAF DUP5 PUSH2 0xDF6 JUMP JUMPDEST PUSH2 0x1B96 JUMP JUMPDEST PUSH2 0xDF6 JUMP JUMPDEST SWAP1 POP SWAP2 SWAP1 POP JUMP JUMPDEST PUSH0 DUP2 SWAP1 POP SWAP2 SWAP1 POP JUMP JUMPDEST PUSH2 0x1BD2 DUP4 PUSH2 0x1B9F JUMP JUMPDEST PUSH2 0x1BE6 PUSH2 0x1BDE DUP3 PUSH2 0x1BC0 JUMP JUMPDEST DUP5 DUP5 SLOAD PUSH2 0x1B45 JUMP JUMPDEST DUP3 SSTORE POP POP POP POP JUMP JUMPDEST PUSH0 PUSH0 SWAP1 POP SWAP1 JUMP JUMPDEST PUSH2 0x1BFD PUSH2 0x1BEE JUMP JUMPDEST PUSH2 0x1C08 DUP2 DUP5 DUP5 PUSH2 0x1BC9 JUMP JUMPDEST POP POP POP JUMP JUMPDEST JUMPDEST DUP2 DUP2 LT ISZERO PUSH2 0x1C2B JUMPI PUSH2 0x1C20 PUSH0 DUP3 PUSH2 0x1BF5 JUMP JUMPDEST PUSH1 0x1 DUP2 ADD SWAP1 POP PUSH2 0x1C0E JUMP JUMPDEST POP POP JUMP JUMPDEST PUSH1 0x1F DUP3 GT ISZERO PUSH2 0x1C70 JUMPI PUSH2 0x1C41 DUP2 PUSH2 0x1B18 JUMP JUMPDEST PUSH2 0x1C4A DUP5 PUSH2 0x1B2A JUMP JUMPDEST DUP2 ADD PUSH1 0x20 DUP6 LT ISZERO PUSH2 0x1C59 JUMPI DUP2 SWAP1 POP JUMPDEST PUSH2 0x1C6D PUSH2 0x1C65 DUP6 PUSH2 0x1B2A JUMP JUMPDEST DUP4 ADD DUP3 PUSH2 0x1C0D JUMP JUMPDEST POP POP JUMPDEST POP POP POP JUMP JUMPDEST PUSH0 DUP3 DUP3 SHR SWAP1 POP SWAP3 SWAP2 POP POP JUMP JUMPDEST PUSH0 PUSH2 0x1C90 PUSH0 NOT DUP5 PUSH1 0x8 MUL PUSH2 0x1C75 JUMP JUMPDEST NOT DUP1 DUP4 AND SWAP2 POP POP SWAP3 SWAP2 POP POP JUMP JUMPDEST PUSH0 PUSH2 0x1CA8 DUP4 DUP4 PUSH2 0x1C81 JUMP JUMPDEST SWAP2 POP DUP3 PUSH1 0x2 MUL DUP3 OR SWAP1 POP SWAP3 SWAP2 POP POP JUMP JUMPDEST PUSH2 0x1CC1 DUP3 PUSH2 0xE54 JUMP JUMPDEST PUSH8 0xFFFFFFFFFFFFFFFF DUP2 GT ISZERO PUSH2 0x1CDA JUMPI PUSH2 0x1CD9 PUSH2 0x12B9 JUMP JUMPDEST JUMPDEST PUSH2 0x1CE4 DUP3 SLOAD PUSH2 0x15DC JUMP JUMPDEST PUSH2 0x1CEF DUP3 DUP3 DUP6 PUSH2 0x1C2F JUMP JUMPDEST PUSH0 PUSH1 0x20 SWAP1 POP PUSH1 0x1F DUP4 GT PUSH1 0x1 DUP2 EQ PUSH2 0x1D20 JUMPI PUSH0 DUP5 ISZERO PUSH2 0x1D0E JUMPI DUP3 DUP8 ADD MLOAD SWAP1 POP JUMPDEST PUSH2 0x1D18 DUP6 DUP3 PUSH2 0x1C9D JUMP JUMPDEST DUP7 SSTORE POP PUSH2 0x1D7F JUMP JUMPDEST PUSH1 0x1F NOT DUP5 AND PUSH2 0x1D2E DUP7 PUSH2 0x1B18 JUMP JUMPDEST PUSH0 JUMPDEST DUP3 DUP2 LT ISZERO PUSH2 0x1D55 JUMPI DUP5 DUP10 ADD MLOAD DUP3 SSTORE PUSH1 0x1 DUP3 ADD SWAP2 POP PUSH1 0x20 DUP6 ADD SWAP5 POP PUSH1 0x20 DUP2 ADD SWAP1 POP PUSH2 0x1D30 JUMP JUMPDEST DUP7 DUP4 LT ISZERO PUSH2 0x1D72 JUMPI DUP5 DUP10 ADD MLOAD PUSH2 0x1D6E PUSH1 0x1F DUP10 AND DUP3 PUSH2 0x1C81 JUMP JUMPDEST DUP4 SSTORE POP JUMPDEST PUSH1 0x1 PUSH1 0x2 DUP9 MUL ADD DUP9 SSTORE POP POP POP JUMPDEST POP POP POP POP POP POP JUMP JUMPDEST PUSH0 PUSH2 0x1D91 DUP3 PUSH2 0xDF6 JUMP JUMPDEST SWAP2 POP PUSH2 0x1D9C DUP4 PUSH2 0xDF6 JUMP JUMPDEST SWAP3 POP DUP3 DUP3 ADD SWAP1 POP DUP1 DUP3 GT ISZERO PUSH2 0x1DB4 JUMPI PUSH2 0x1DB3 PUSH2 0x1841 JUMP JUMPDEST JUMPDEST SWAP3 SWAP2 POP POP JUMP JUMPDEST PUSH0 PUSH1 0x60 DUP3 ADD SWAP1 POP PUSH2 0x1DCD PUSH0 DUP4 ADD DUP7 PUSH2 0x1006 JUMP JUMPDEST DUP2 DUP2 SUB PUSH1 0x20 DUP4 ADD MSTORE PUSH2 0x1DDF DUP2 DUP6 PUSH2 0xE8C JUMP JUMPDEST SWAP1 POP PUSH2 0x1DEE PUSH1 0x40 DUP4 ADD DUP5 PUSH2 0xFF7 JUMP JUMPDEST SWAP5 SWAP4 POP POP POP POP JUMP INVALID LOG2 PUSH5 0x6970667358 0x22 SLT KECCAK256 POP OR RETURNCONTRACT 0xD0 DUP13 JUMP 0x2A 0x1F PUSH8 0x6191D3776EBC94BE PUSH5 0xF6F34A1D9A RETURN PUSH32 0x746D962551EDA664736F6C634300081E00330000000000000000000000000000 "
				},
				"gasEstimates": {
					"creation": {
						"codeDepositCost": "1544800",
						"executionCost": "1615",
						"totalCost": "1546415"
					},
					"external": {
						"createPoll(string,string[],uint256)": "infinite",
						"endPoll(uint256)": "infinite",
						"getPollInfo(uint256)": "infinite",
						"getPollResults(uint256)": "infinite",
						"hasVoted(uint256,address)": "5328",
						"pollCount()": "2425",
						"pollId()": "2491",
						"polls(uint256)": "infinite",
						"viewID()": "2520",
						"vote(uint256,uint256)": "infinite"
					}
				},
				"methodIdentifiers": {
					"createPoll(string,string[],uint256)": "f8c860f4",
					"endPoll(uint256)": "f43b8778",
					"getPollInfo(uint256)": "29b8f44a",
					"getPollResults(uint256)": "33b4097b",
					"hasVoted(uint256,address)": "43859632",
					"pollCount()": "9207891d",
					"pollId()": "6f13ab00",
					"polls(uint256)": "ac2f0074",
					"viewID()": "8280264b",
					"vote(uint256,uint256)": "b384abef"
				}
			},
			"storageLayout": {
				"storage": [
					{
						"astId": 27,
						"contract": "SecurePoll.sol:SecurePoll",
						"label": "pollId",
						"offset": 0,
						"slot": "0",
						"type": "t_uint256"
					},
					{
						"astId": 29,
						"contract": "SecurePoll.sol:SecurePoll",
						"label": "pollCount",
						"offset": 0,
						"slot": "1",
						"type": "t_uint256"
					},
					{
						"astId": 34,
						"contract": "SecurePoll.sol:SecurePoll",
						"label": "polls",
						"offset": 0,
						"slot": "2",
						"type": "t_mapping(t_uint256,t_struct(Poll)25_storage)"
					}
				],
				"types": {
					"t_address": {
						"encoding": "inplace",
						"label": "address",
						"numberOfBytes": "20"
					},
					"t_array(t_string_storage)dyn_storage": {
						"base": "t_string_storage",
						"encoding": "dynamic_array",
						"label": "string[]",
						"numberOfBytes": "32"
					},
					"t_bool": {
						"encoding": "inplace",
						"label": "bool",
						"numberOfBytes": "1"
					},
					"t_mapping(t_address,t_bool)": {
						"encoding": "mapping",
						"key": "t_address",
						"label": "mapping(address => bool)",
						"numberOfBytes": "32",
						"value": "t_bool"
					},
					"t_mapping(t_uint256,t_struct(Poll)25_storage)": {
						"encoding": "mapping",
						"key": "t_uint256",
						"label": "mapping(uint256 => struct SecurePoll.Poll)",
						"numberOfBytes": "32",
						"value": "t_struct(Poll)25_storage"
					},
					"t_mapping(t_uint256,t_uint256)": {
						"encoding": "mapping",
						"key": "t_uint256",
						"label": "mapping(uint256 => uint256)",
						"numberOfBytes": "32",
						"value": "t_uint256"
					},
					"t_string_storage": {
						"encoding": "bytes",
						"label": "string",
						"numberOfBytes": "32"
					},
					"t_struct(Poll)25_storage": {
						"encoding": "inplace",
						"label": "struct SecurePoll.Poll",
						"members": [
							{
								"astId": 3,
								"contract": "SecurePoll.sol:SecurePoll",
								"label": "id",
								"offset": 0,
								"slot": "0",
								"type": "t_uint256"
							},
							{
								"astId": 5,
								"contract": "SecurePoll.sol:SecurePoll",
								"label": "question",
								"offset": 0,
								"slot": "1",
								"type": "t_string_storage"
							},
							{
								"astId": 8,
								"contract": "SecurePoll.sol:SecurePoll",
								"label": "options",
								"offset": 0,
								"slot": "2",
								"type": "t_array(t_string_storage)dyn_storage"
							},
							{
								"astId": 12,
								"contract": "SecurePoll.sol:SecurePoll",
								"label": "votes",
								"offset": 0,
								"slot": "3",
								"type": "t_mapping(t_uint256,t_uint256)"
							},
							{
								"astId": 16,
								"contract": "SecurePoll.sol:SecurePoll",
								"label": "hasVoted",
								"offset": 0,
								"slot": "4",
								"type": "t_mapping(t_address,t_bool)"
							},
							{
								"astId": 18,
								"contract": "SecurePoll.sol:SecurePoll",
								"label": "creator",
								"offset": 0,
								"slot": "5",
								"type": "t_address"
							},
							{
								"astId": 20,
								"contract": "SecurePoll.sol:SecurePoll",
								"label": "startTime",
								"offset": 0,
								"slot": "6",
								"type": "t_uint256"
							},
							{
								"astId": 22,
								"contract": "SecurePoll.sol:SecurePoll",
								"label": "endTime",
								"offset": 0,
								"slot": "7",
								"type": "t_uint256"
							},
							{
								"astId": 24,
								"contract": "SecurePoll.sol:SecurePoll",
								"label": "isActive",
								"offset": 0,
								"slot": "8",
								"type": "t_bool"
							}
						],
						"numberOfBytes": "288"
					},
					"t_uint256": {
						"encoding": "inplace",
						"label": "uint256",
						"numberOfBytes": "32"
					}
				}
			},
			"userdoc": {
				"kind": "user",
				"methods": {},
				"version": 1
			}
		}
	}
}